S02600004C5546415F50524F4A454354535F54454D505F444154414C4F47474552322E737265630D
S1130000B2C00000CDC00000CBC00000C9C00000D9
S1130010C7C00000C5C00000C3C00000C1C00000CC
S1130020BFC00000BDC000000C943D200C94022110
S1130030B7C00000B5C00000B3C00000B1C00000EC
S1130040AFC000000C941117ABC00000A9C00000A1
S1130050A7C00000A5C00000A3C00000A1C000000C
S11300609FC000009DC000009BC0000099C000001C
S113007097C0000095C0000093C0000091C000002C
S11300808FC000008DC000008BC0000089C000003C
S113009087C0000085C0000083C0000081C000004C
S11300A07FC000007DC000007BC000002E03540010
S11300B065006D00700065007200610074007500D9
S11300C072006500200044006100740061006C004F
S11300D06F006700670065007200000018034400A9
S11300E0650061006E002000430061006D00650042
S11300F072006100000004030904090239000201CE
S113010000C03209040000020806500007058302FB
S1130110400005070504024000050904010001032D
S113012000000009211101000122200007058103BC
S11301301000051201100100000008EB0363200108
S1130140000102DC010600FF0901A10109021500FA
S113015025FF7508950281020903150025FF75081E
S113016095029102C00011241FBECFEFDAE0DEBF7A
S1130170CDBF11E0A0E0B1E0EAEBFBE402C00590E2
S11301800D92A43EB107D9F728E0A4EEB1E001C076
S11301901D92A934B207E1F70E94D6170C94DB250F
S11301A02FCF27982F9A56985E9A57985F9A24983B
S11301B02C9A25982D9A269A3E98469A2098289A01
S11301C06E98769A5D98559A54985C9A5B9A539A6D
S11301D052985A9A599A519A5898509A5898729A89
S11301E06A9A729A85988D9A86988E9A87988F9A29
S11301F08C98849A899A819A889A809A0895899881
S11302002FEF84E39CE0215080409040E1F700C050
S11302100000899A2FEF84E39CE0215080409040B5
S1130220E1F700C000007D99FECF0895292F332700
S113023023303105B9F05CF42130310569F1223005
S1130240310579F589E390E02AEF30E02EC02132C0
S11302503105E9F02232310521F580E290E025E410
S113026031E023C099278130910541F08230910516
S113027041F0892BB1F4E6EFF0E005C0ECEDF0E0DD
S113028002C0ECEAF0E0849190E09F010EC089E0A6
S113029090E023E231E009C082E190E023E331E021
S11302A004C080E090E020E030E0FA013183208354
S11302B0089523B123B123B123B101970097C9F75E
S11302C00895680F791FFC012191CF0127FF02C017
S11302D02A9A01C02A98299A299826FF02C02A9AA4
S11302E001C02A98299A299825FF02C02A9A01C098
S11302F02A98299A299824FF02C02A9A01C02A9888
S1130300299A299823FF02C02A9A01C02A98299A77
S1130310299822FF02C02A9A01C02A98299A29986A
S113032021FF02C02A9A01C02A98299A299820FFFD
S113033002C02A9A01C02A98299A299886179707F1
S113034011F608952A9A680F791F23B1299A2998DA
S113035023FB222720F9220F1B992F5F299A299822
S1130360220F1B992F5F299A2998220F1B992F5F1F
S1130370299A2998220F1B992F5F299A2998220FCD
S11303801B992F5F299A2998220F1B992F5F299A6D
S11303902998220F1B992F5F299A2998FC012193F0
S11303A0CF01E617F70789F608950F931F93CF93AC
S11303B0DF931F92CDB7DEB708E813E161E070E088
S11303C0CE010196BFDF89818F3F41F084E690E042
S11303D070DF015011090115110581F781E090E0EA
S11303E0012B11F480E090E00F90DF91CF911F91E9
S11303F00F910895CF93DF931F92CDB7DEB7599A2B
S113040061E070E0CE0101969DDF0F90DF91CF9106
S11304100895CF93DF9300D01F92CDB7DEB75998DC
S113042061E070E0CE0101968DDFBFDF009731F40B
S11304308A839B83DFDF8A819B8102C081E090E015
S11304400F900F900F90DF91CF910895CF92DF928C
S1130450EF92FF920F931F93CF93DF9300D0CDB70A
S1130460DEB77C016B0108EE13E061E070E0CE01C1
S1130470019668DF89818F3F71F089818E3FA1F4F5
S1130480B601C7015FDF62E070E0CE0101965ADF7A
S113049081E090E00BC084E690E00BDF015011098D
S11304A00115110511F7E9CF80E090E00F900F904E
S11304B0DF91CF911F910F91FF90EF90DF90CF903C
S11304C00895DF92EF92FF920F931F93CF93DF93E0
S11304D0CDB7DEB727970FB6F894DEBF0FBECDBFFA
S11304E0182F042FF52EE62ED72E87FF08C040E0E4
S11304F050E0BA0187E3E5DF823090F51F771C30C6
S113050051F4812F80648983DA82EB82FC820D832B
S1130510112359F006C06EDF7CDF892B91F78FEF32
S11305201FC0183021F081E003C085E901C087E8CD
S11305308E8366E070E0CE010196C3DE1C3029F4A0
S113054061E070E0CE010796FDDE1AE061E070E044
S1130550CE010796F7DE8F8187FF02C01150B1F7F5
S113056027960FB6F894DEBF0FBECDBFDF91CF91B3
S11305701F910F91FF90EF90DF900895FF920F93DA
S11305801F93CF93DF9300D0CDB7DEB78C01F62E47
S11305900CDF009719F1F98261E070E0CE01019659
S11305A090DE8DEFF816C1F060E072E0C80189DEDC
S11305B062E070E0CE010196C5DE61E070E0CE013C
S11305C00196C0DE89818F7131E020E0853009F029
S11305D030E0832F922F02C081E090E00F900F90C3
S11305E0DF91CF911F910F91FF900895811103C066
S11305F080910001089581E00895EF92FF920F9396
S11306001F93CF93DF9300D000D0CDB7DEB7811115
S113061078C080E197E24DDE519A599A219A29983F
S1130620229A23982B9A1AE061E070E0CE01019699
S113063089DE1150C9F784E0E2DD40E050E0BA0100
S113064080E03FDF813009F051C04AEA51E060E0C8
S113065070E088E036DF813001F564E070E0CE01BF
S1130660019670DE8B81813009F040C08C818A3A1A
S113067009F03CC008EE13E040E050E060E070E4B4
S113068089EA1FDF882359F188EE93E012DE0150D6
S113069011090115110581F729C040E050E0BA01A4
S11306A089EA0FDF823028F499EAE92E22E0F22E5B
S11306B004C0EE24E394FF24F39408EE13E040E036
S11306C050E0BA018E2DFDDE882359F188EE93E0C7
S11306D0F0DD015011090115110589F707C040E04B
S11306E050E0BA018AE3EDDE882369F0F12CF09240
S11306F0E40111E0F11010E0109300017BDE812F82
S113070019C083E017C064E070E0CE0101961ADEE0
S1130710898186FF03C03CE0F32EE9CF84E0F82E04
S1130720E6CF40E052E060E070E080E1CADE811193
S1130730DDCFDDCF0F900F900F900F90DF91CF9111
S11307401F910F91FF90EF900895FF920F931F93C5
S1130750CF93DF93EB01BA01A901811103C080910A
S1130760000101C081E080FD31C08091E40183FD7E
S113077007C0A9E0440F551F661F771FAA95D1F73C
S11307800230110518F0F2E1FF2E02C0E1E1FE2E65
S11307908F2D97DE811114C060E072E0CE0156DE29
S11307A0892B31F0DE5F0150110901151105A1F704
S11307B082E1F81205C040E050E0BA018CE081DE2D
S11307C019DE81E0012B19F480E001C083E0DF91A0
S11307D0CF911F910F91FF900895CF92DF92EF92E6
S11307E0FF920F931F93CF93DF93EB0169017A017B
S11307F0811103C08091000101C081E080FD45C0EA
S11308008091E40183FD07C0B9E0CC0CDD1CEE1C33
S1130810FF1CBA95D1F70130110589F4B701A6017F
S113082088E14FDE81112BC06EEFCE01A7DE31E0EF
S113083020E0892B09F030E0032F122F20C08670AE
S113084029F0A80160E070E087E93BDEB701A6016A
S113085089E137DE811113C06CEFCE018FDE892B65
S113086031F0DE5F0150110901151105A9F76DEF93
S113087080E090E083DE892B11F401E010E0BADD22
S113088081E0012B19F480E001C083E0DF91CF9176
S11308901F910F91FF90EF90DF90CF9008950F93E9
S11308A01F93CF93DF93CDB7DEB760970FB6F8945D
S11308B0DEBF0FBECDBF8A01811103C0809100014C
S11308C001C081E080FD7AC0613079F040F063308E
S11308D009F070C080E890E0A0E0B0E064C099DD69
S11308E011E0892B09F467C063C040E050E0BA010D
S11308F089E0E7DD882311F011E05DC060E170E07C
S1130900CE010196A3DD892BB9F399819295969531
S113091096959370888529855A859130D9F48F737B
S113092090E0A0E0B0E0DC01992788270196A11DA2
S1130930B11D30E0322F2227250F311D820F931F66
S1130940A11DB11DEAE0880F991FAA1FBB1FEA95DC
S1130950D1F729C02295269526952370F4E08F9F20
S1130960C0011124820F911D01962F81237030E064
S1130970322F2227330F330F820F931FA0E0B0E0F2
S11309802E812F704B85441F4427441F240F352F7D
S11309903370330F230F275004C0880F991FAA1FE9
S11309A0BB1F2A95D2F7F80180839183A283B38376
S11309B010E001C014E01EDD812F01C083E06096C9
S11309C00FB6F894DEBF0FBECDBFDF91CF911F915C
S11309D00F910895FB01460F571FE417F50729F0FF
S11309E02191DC012D93CD01F8CF0895480F591FB3
S11309F08417950721F0FC016193CF01F9CF089585
S1130A00FC012081318121153105B1F0F901AF01DB
S1130A106191613270F06A33D1F7F90161914E1737
S1130A205F0751F4603341F42E5F3F4FFC01318383
S1130A30208380E090E008958FEF9FEF0895009762
S1130A40C1F0DC01ED91FC911197309791F0208178
S1130A50222379F02681378112968D919C911397E8
S1130A602817390731F48181C1DD80FF04C083E098
S1130A70089589E0089580E00895FB01438D50E0D6
S1130A80542F4427928D492B60E070E0833079F431
S1130A90858990E0982F88272489822BA0E0B0E0F4
S1130AA0DC0199278827482B592B6A2B7B2BCB01F8
S1130AB0BA0108954F925F926F927F92AF92BF9264
S1130AC0CF92DF92EF92FF920F931F93CF93DF9316
S1130AD0EC014AA45BA46CA47DA46C018EE2C80E54
S1130AE0D11C01E010E0A3019201B601898175DEF9
S1130AF0811132C01C828E8D9F8DA8A1B9A1B30132
S1130B00A201481B590B6A0B7B0B8E899F89A88D08
S1130B10B98D481759076A077B0710F080E01DC09C
S1130B20AB80B12CE12CF12CC5018E199F090297E1
S1130B30A8F38E899F89A88DB98D480E591E6A1E07
S1130B407B1E01E010E0A3019201B601898145DE1C
S1130B508FEFE81AF80AE8CF81E0DF91CF911F9177
S1130B600F91FF90EF90DF90CF90BF90AF907F9068
S1130B706F905F904F900895FC01248121119ACFCA
S1130B8080E00895EF92FF920F931F93CF93DF932A
S1130B90EC01F2DF982F81115DC08881833009F068
S1130BA050C08D81813009F04CC040E052E060E0DB
S1130BB070E07E018EE2E80EF11CC70117DF85E5C7
S1130BC0FE01E45DFD4F80838AEA3196808382E5ED
S1130BD08EA78FA781E688AB91E499AB22E77B9738
S1130BE020833196208331969083319680833E858D
S1130BF02F8598898989319630833196208331965F
S1130C009083319680833A852B859C858D8531969A
S1130C1030833196208331969083319680832A8D58
S1130C203B8D4C8D5D8D2F5F3F4F4F4F5F4F2AA7FC
S1130C303BA74CA75DA701E010E0B7018981CDDD9A
S1130C401D8240E050E060E0898129DE91E081115D
S1130C5001C090E0892FDF91CF911F910F91FF90F8
S1130C60EF900895BF92CF92DF92EF92FF920F938D
S1130C701F93CF93DF93EC016A017B018AA59BA5A7
S1130C80ACA5BDA5481759076A077B07D9F0CE0163
S1130C9073DFB82E811117C001E010E0A70196019F
S1130CA0BE01625D7F4F898150DD882331F0BB2412
S1130CB0B394CC24CA94DC2C7601CAA6DBA6ECA699
S1130CC0FDA601C0B12C8B2DDF91CF911F910F9107
S1130CD0FF90EF90DF90CF90BF9008950F931F93F4
S1130CE0CF93DF93EC011C820FEF1FEF98010AA74B
S1130CF01BA72CA73DA7B6DF811150C0FE01E35D01
S1130D00FD4F808190E0982F882731972081822B96
S1130D1085359A4A09F044C0E55CF14080813197F9
S1130D20408150E060E070E0BA0155274427782BF9
S1130D3032978081482B3196008110E0102F0027D4
S1130D4020E030E0402B512B622B732B7727463465
S1130D5051446445710531F17E968081319740811B
S1130D6050E060E070E0BA0155274427782B3297B1
S1130D708081482BCF57DF4F888190E0982F8827B8
S1130D80A0E0B0E0482B592B6A2B7B2B772781E01E
S1130D90463451446445710531F404C083E003C012
S1130DA082E001C080E0DF91CF911F910F910895FF
S1130DB02F923F924F925F926F927F928F929F9267
S1130DC0AF92BF92CF92DF92EF92FF920F931F9355
S1130DD0CF93DF93CDB7DEB76D970FB6F894DEBF30
S1130DE00FBECDBF6C01CB01B42ED6011D921C9257
S1130DF007DE7C0197FDE4C2FC01EE0FFF1FE95101
S1130E00FE4F008111810115110509F4DBC2F601C1
S1130E1011830083D8018C91882359F011968C9109
S1130E20E5DB80FD06C0BB2009F4CEC282FDD0C242
S1130E30CBC2F8011082E1828E2DDFDB80FDC6C2B9
S1130E40BB2011F082FDC4C240E050E0BA01C801E9
S1130E5045DF813009F054C06801F0E1CF1AFEEF9C
S1130E60DF0A7E0121E1E20EF11C9E012F5F3F4F5C
S1130E70D6018C918823D1F017964C91179716962A
S1130E808C9190E0A0E0B0E0DC0199278827B42B96
S1130E90F6014481842B458150E0542F442760E0BF
S1130EA070E0842B952BA62BB72B03C080E090E039
S1130EB0DC01F90181939193A193B1939F01F0E136
S1130EC0CF0ED11C2E153F0599F69E012F5F3F4F83
S1130ED06901D6014D905D906D907D906D01411436
S1130EE051046104710439F0B301A201C801F6DEB2
S1130EF0811102C00FC082E0CE14DF0451F703C099
S1130F00412C512C3201833009F464C2882311F03E
S1130F108DE061C2F80182AD90E0982F882721AD61
S1130F20822B81159240A1F7F801EB5BFF4FC08043
S1130F30D12CDC2CCC2431978081C82AE12CF12CD3
S1130F40C114D104E104F104C9F47196808131978C
S1130F50C080D12CE12CF12C7601DD24CC24F82A9C
S1130F6032978081C82A3196808190E0982F882713
S1130F70A0E0B0E0C82AD92AEA2AFB2AD80156966A
S1130F80CD92DD92ED92FC925997DE962C91DE97EC
S1130F9013962C9313978FEF820F823008F0B8CFFB
S1130FA0DB96EC91DB97E98B1296EC931297EE2388
S1130FB009F4AECF4E2F50E0CA0101978423952344
S1130FC0892B09F0A5CFF801E05CFF4F808190E008
S1130FD0382E2224DF968C91DF97282A19963C928A
S1130FE02E921897C1018F709927892B09F090CF01
S1130FF032968080912C982C882431978081882A7D
S1131000A12CB12C81149104A104B104C9F47096EB
S1131010808131978080912CA12CB12C540199248A
S11310208824B82A32978081882A3196808190E07A
S1131030982F8827A0E0B0E0882A992AAA2ABB2AF8
S1131040D801DD96EC91DD97F0E0FE2FEE27DC96DB
S11310508C91E82B309709F45BCFA22FB0E0A70165
S113106096010E94CD226E8B7F8B888F998F9F0172
S113107040E050E02A8F3B8F4C8F5D8FC101F4E03C
S113108096958795FA95E1F7280F391F411D511D53
S11310908E899F89A88DB98D280F391F4A1F5B1F20
S11310A02A8B3B8B4C8B5D8B82169306A406B5066C
S11310B008F42ECFC501B401621B730B840B950B8E
S11310C0E9892E2F30E040E050E00E94AB22211548
S11310D031054105510509F41BCF263FFFE03F07C9
S11310E04105510548F0263F8FEF3807410551056A
S11310F030F492E0998B05C0A1E0A98B02C0B3E063
S1131100B98B49015A01E2E08E0E911CA11CB11C5D
S1131110D80152968D929D92AD92BC925597F8014A
S1131120428E538E648E758E8A8D9B8DAC8DBD8D53
S1131130840D951DA61DB71D868F978FA0A3B1A3FF
S11311404A895B896C897D89440D551D661D771D0F
S113115046A357A360A771A7F989F33069F523283B
S113116009F0D6CEF801E35AFF4F208131978081F0
S113117090E0A0E0B0E0DC0199278827B22B3297F9
S11311802081822B3196408150E0542F442760E027
S113119070E0842B952BA62BB72BF80182A393A385
S11311A0A4A3B5A3C501B401E2E0660F771F881FAD
S11311B0991FEA95D1F72DC0232809F4A9CE2E89C9
S11311C03F89488D598D820F931FA41FB51FF801C5
S11311D082A393A3A4A3B5A3F989F23039F4C5017A
S11311E0B401660F771F881F991F13C0A3E0B0E0F6
S11311F0A50194010E94CD229695879577956795D0
S113120021E082229924AA24BB24680D791D8A1D19
S11312109B1DDC01CB0181509E4FAF4FBF4F29E096
S1131220B695A795979587952A95D1F7C816D906A7
S1131230EA06FB0608F46CCE8FEF9FEFDC01F801A1
S113124086879787A08BB18B82879387A487B5877E
S113125080E88583F989F33009F0A1C0F801E15AE7
S1131260FF4F808190E0982F882731972081822B2F
S1131270019709F094C0B301A2014F5F5F4F6F4F14
S11312807F4FC801EFDC81118AC0D80115961C92EA
S1131290F801E35DFD4F808190E0982F8827319716
S11312A02081822B85359A4A09F079C0F80121A959
S11312B080A990E0A0E0B0E0DC0199278827B22B58
S11312C026A5822B47A550E0542F442760E070E008
S11312D0842B952BA62BB72B82359245A146B1447E
S11312E009F05DC0F801EB5EFD4F208131978081EC
S11312F090E0A0E0B0E0DC0199278827B22B329778
S11313002081822B3196408150E0542F442760E0A5
S113131070E0842B952BA62BB72B82379247A144E0
S1131320B146E9F5369620813197808190E0A0E0BE
S1131330B0E0DC0199278827B22B32972081822BD9
S11313403196408150E0542F442760E070E0842BB4
S1131350952BA62BB72BF80186879787A08BB18B8B
S1131360E35EFD4F20813197808190E0A0E0B0E002
S1131370DC0199278827B22B32972081822B319662
S1131380408150E0542F442760E070E0842B952B7B
S1131390A62BB72BF80182879387A487B587E989A1
S11313A0D801EC938091E5019091E6010196909328
S11313B0E6018093E50117969C938E93169704C0DB
S11313C08BE009C08CE007C080E005C083E003C067
S11313D08AE001C081E06D960FB6F894DEBF0FBEBF
S11313E0CDBFDF91CF911F910F91FF90EF90DF90D0
S11313F0CF90BF90AF909F908F907F906F905F90B1
S11314004F903F902F9008950F931F93FC014250EB
S113141051096109710902891389248935890250A6
S1131420110921093109401751076207730778F43C
S1131430A281B0E09A01AB010E94CD2206A117A1BE
S113144020A531A5600F711F821F931F03C060E0A8
S113145070E0CB011F910F910895AF92BF92CF928C
S1131460DF92EF92FF920F931F93CF93DF93EC01E0
S11314706A017B01423051056105710508F4BEC063
S11314808A899B89AC89BD89481759076A077B07F4
S113149008F0B4C08881823009F449C0833009F46B
S11314A06DC0813009F0AAC05A01B694A794A40E65
S11314B0B51EC501892F992786954E8D5F8D68A12C
S11314C079A1480F591F611D711DCE01CBDB882303
S11314D021F06FEF7FEFCB0195C085010F5F1F4FA8
S11314E0F501F170EC0FFD1FB6A4C801892F9927EF
S11314F086954E8D5F8D68A179A1480F591F611D96
S1131500711DCE01AFDB8111E4CFF801F170EC0F56
S1131510FD1F86A56B2D70E0782BC0FE06C0E4E0AD
S113152076956795EA95E1F726C07F7024C0772702
S11315306F2D5E2D4D2D8E8D9F8DA8A1B9A1480FC5
S1131540591F6A1F7B1FCE018DDB8111C2CFCC0CCA
S1131550DD1CEE1CFF1CE894C0F881E0D822EE24C8
S1131560FF24FE01EC0DFD1D66A5FE01EC0DFD1D25
S113157087A570E0782B80E090E044C037E0769552
S11315806795579547953A95D1F78E8D9F8DA8A16C
S1131590B9A1480F591F6A1F7B1FCE0163DB81115C
S11315A098CFE2E0CC0CDD1CEE1CFF1CEA95D1F7D1
S11315B08CEFC82281E0D822EE24FF24F601BE96E7
S11315C0EC0FFD1F22816381862F90E0A0E0B0E044
S11315D0982F882777276627822B018110E0102F08
S11315E0002720E030E0602B712B822B932BFE012F
S11315F0EC0DFD1D26A5622B9F7004C061E070E018
S113160080E090E0DF91CF911F910F91FF90EF90D8
S1131610DF90CF90BF90AF900895AF92BF92CF92DA
S1131620DF92EF92FF920F931F93CF93DF93EC011E
S11316308B017D836C83CE80DF80E884F98481E034
S1131640C816D104E104F10411F482E080C0E881F9
S1131650F98182899389A489B589C816D906EA06CD
S1131660FB0698F7C114D104E104F104B9F48081B4
S1131670833041F482A193A1A4A1B5A10097A1054F
S1131680B10551F48085918508171907F0F662A118
S113169073A184A195A12FC06C017D01A28080E17A
S11316A0A89E5001112488819981B701A6010A15C9
S11316B01B0500F1D2DE6B017C018FEFC816D80642
S11316C0E806F80609F442C082E0C816D104E10431
S11316D0F10408F4BACFE881F98182899389A48955
S11316E0B589C816D906EA06FB0608F0AECF0A1972
S11316F01B09D9CF89DECA86DB86EC86FD86611597
S113170071058105910509F4A0CF980144E036954F
S113171027954A95E1F7DC01CB01820F931FA11DA8
S1131720B11D8E879F87A88BB98B0F70112755E049
S1131730000F111F5A95E1F7025D1F4F88819981AF
S1131740800F911F9B8B8A8B80E001C081E0DF9129
S1131750CF911F910F91FF90EF90DF90CF90BF90AA
S1131760AF9008954F925F926F927F928F929F9263
S1131770AF92BF92CF92DF92EF92FF920F931F939B
S1131780CF93DF93EC016A017B01280139014230D8
S113179051056105710508F4CFC08A899B89AC891C
S11317A0BD89481759076A077B0708F0C5C08881B7
S11317B0823009F45FC0833009F47FC0813009F0BE
S11317C0BBC05A01B694A794A40EB51EC501892FB7
S11317D0992786954E8D5F8D68A179A1480F591F71
S11317E0611D711DCE013EDA8111A7C085010F5F15
S11317F01F4FF501F170EC0FFD1F4601570181E009
S113180088229924AA24BB24C0FE08C026A52F70D0
S113181030E1439EC0011124282B01C0242D26A7AA
S113182081E08C834E8D5F8D68A179A1C801892FD9
S113183099278695480F591F611D711DCE0112DA33
S113184081117BC0F801F170EC0FFD1F89288A28F3
S11318508B2849F094E076946794579447949A952A
S1131860D1F7942D05C096A5907F252D2F70922B2E
S113187096A75FC0452F562F672F77278E8D9F8D94
S1131880A8A1B9A1480F591F6A1F7B1FCE01EAD92D
S1131890811153C0CC0CDD1CEE1CFF1CE894C0F875
S11318A091E0D922EE24FF24FE01EC0DFD1D46A695
S11318B0FE01EC0DFD1D57A63CC0B7E0769567957B
S11318C057954795BA95D1F78E8D9F8DA8A1B9A14B
S11318D0480F591F6A1F7B1FCE01C4D981112DC027
S11318E062E0CC0CDD1CEE1CFF1C6A95D1F73CEFCA
S11318F0C32231E0D322EE24FF24F601BE96EC0F7E
S1131900FD1F438150E060E070E0742F6627552787
S11319104427DE01AC0DBD1D442755276627707F83
S113192044295529662977299E964C9351836283CD
S1131930738391E09C8301C082E0DF91CF911F917A
S11319400F91FF90EF90DF90CF90BF90AF909F905A
S11319508F907F906F905F904F9008954F925F9219
S11319606F927F928F929F92AF92BF92CF92DF92AB
S1131970EF92FF920F931F93CF93DF93EC012A0111
S11319803B01411551056105710599F48A849B84D5
S1131990AC84BD8481149104A104B10449F14A8941
S11319A05B896C897D8984169506A606B70600F5C1
S11319B023C053DD623071058105910508F492C09E
S11319C06F3F2FEF72078207920729F44FEF3FEF23
S11319D02FEF9FEF8CC0CA88DB88EC88FD886C15DC
S11319E07D058E059F0508F47FC05301420104C0A4
S11319F0812C912C54018394750164018FEFC81AD2
S1131A00D80AE80AF80A4A895B896C897D89C41670
S1131A10D506E606F70680F022E082169104A104BA
S1131A20B10428F440E030E020E090E060C052E0EF
S1131A30C52ED12CE12CF12CB701A601CE010DDD70
S1131A40611571058105910599F06F3F2FEF7207BC
S1131A508207920709F4BACF6130710581059105B7
S1131A6009F440C0C814D904EA04FB0439F6DACFF7
S1131A700FEF1FEF2FEF3FE0B701A601CE0172DE9B
S1131A8081112DC04114510461047104D1F4CA863A
S1131A90DB86EC86FD864E855F85688979894F3FB4
S1131AA08FEF580768077807A9F041505109610979
S1131AB071094E875F87688B798B8D8181608D83F7
S1131AC009C097018601B301A201CE014BDE882330
S1131AD0F1F205C04C2D3D2D2E2D9F2D08C08130D7
S1131AE009F474CF41E09FCF462F372F282F642F5E
S1131AF0732F822FDF91CF911F910F91FF90EF9061
S1131B00DF90CF90BF90AF909F908F907F906F9019
S1131B105F904F9008957F928F929F92AF92BF9261
S1131B20CF92DF92EF92FF920F931F93CF93DF93A5
S1131B30EC016B010C811D810F5F1F4F0115110515
S1131B4011F484E0DBC08E859F85A889B98900974C
S1131B50A105B105B1F378012FE0E222FF24E114DD
S1131B60F10409F0B8C00196A11DB11D8E879F87AD
S1131B70A88BB98B4A855B856C857D858881998125
S1131B80FC01411551056105710531F4808591858C
S1131B9008171907B0F69FC0228130E0215031099F
S1131BA0F801A4E0F695E795AA95E1F72E233F23E3
S1131BB0232B09F090C051DC4B015C0162307105AC
S1131BC08105910510F482E099C06F3F2FEF7207F1
S1131BD08207920711F481E091C088819981FC0108
S1131BE0428953896489758984169506A606B706C1
S1131BF008F464C0CD2809F4A4CF4A855B856C85BC
S1131C007D85ACDE4B015C01611571058105910593
S1131C1009F473C06130710581059105A1F26F3F2C
S1131C202FEF720782079207B1F2888199810E948F
S1131C30BC058111D0CF8881998140E052E060E0F9
S1131C4070E08E960E94F604C880D980B501A40184
S1131C50C601DADBF60162A773A784A795A7C12C96
S1131C60D12C77247394E881F981828190E0C8169D
S1131C70D906C0F47482888199810E94BC058111BF
S1131C80AACFE881F98182A593A5A4A5B5A501965B
S1131C90A11DB11D82A793A7A4A7B5A7FFEFCF1AD3
S1131CA0DF0AE1CF82A593A5A4A5B5A58C199D094A
S1131CB0A109B10982A793A7A4A7B5A78A869B8681
S1131CC0AC86BD86B501A401888199819DDB6E87B0
S1131CD07F87888B998B1D830C8375E0EE0CFF1C2A
S1131CE07A95E1F72EE2E20EF11C888199818E0D3E
S1131CF09F1D9B8B8A8B80E001C087E0DF91CF9191
S1131D001F910F91FF90EF90DF90CF90BF90AF9015
S1131D109F908F907F9008958F929F92AF92BF92E1
S1131D20DF92EF92FF920F931F93CF93DF93EC0117
S1131D308B01FB0180818F3211F08C3511F40F5F20
S1131D401F4F1E821F8218861986F80180818032F7
S1131D5038F460E070E0CE0160DC1B8A1A8AF6C0B9
S1131D60B5E0DB2E5801F80180810F5F1F4F8F32E1
S1131D70C9F38C35B9F3EC88FD884BE050E060E2A0
S1131D8070E0C7010E94F60420E030E040E050E03B
S1131D9088E090E0B0E08A010F5F1F4FF501E40F87
S1131DA0F51FA081A13208F44CC0AF3209F449C038
S1131DB0AC3509F446C0AE3209F4BFC02817390760
S1131DC008F0A6C0A7FDB3606FE76A0F6F3120F07B
S1131DD060E26A0F6D3140F54E5F5F4FF501E00F31
S1131DE0F11F108160EC610F6F3328F060E8610F20
S1131DF06D3708F08DC0BC01615071092617370793
S1131E0008F086C04901FFEF8F1A9F0AB701620FDD
S1131E10731FFB01A0832E5F3F4F8E0C9F1CF401A8
S1131E2010838A01A801B7CF4A2F50E0ECE5F1E016
S1131E306191662309F46EC070E064177507C1F7F9
S1131E4067C00A0D1B1DA13210F444E001C040E03C
S1131E50232B09F45DC0F7012081253E09F4D082CB
S1131E60089711F4BB0FBB0F8B2F8370813009F4DB
S1131E704061BC70B43009F44860F701438760E006
S1131E8070E0CE01CADB811125C04E855F8568896B
S1131E907989888199810E94320681111BC0EA895F
S1131EA0FB898081882399F0838583FD0BC0AC89ED
S1131EB0BD89CF010B96E817F90759F031912D919F
S1131EC03217C9F360E070E0CE0125DEDCCF84E098
S1131ED001C080E0EC89FD899385882329F0843052
S1131EE0A9F592FF13C032C092FD30C06A897B8984
S1131EF0FB01838584FF0AC0E881F98180810E9407
S1131F003D056E837F83888799872CCF85E01EC02B
S1131F1086E01CC04FEB4A0F4A3110F4B26006C091
S1131F204FE94A0F4A3110F4B160A052F701E20FB1
S1131F30F31FA0832F5F3F4F75CF089749F7BB0F5F
S1131F40BB0F28E030E08BE090E06CCFDF91CF91C5
S1131F501F910F91FF90EF90DF90BF90AF909F90F3
S1131F608F9008951F93CF93DF93EC0160E070E0AE
S1131F7054DB182F811117C04E855F8568897989D4
S1131F80888199810E943206182F81110CC0EA8938
S1131F90FB898081853E59F0882349F061E070E037
S1131FA0CE01B9DDE6CF143009F517E01FC04E8528
S1131FB05F8568897989888199810E943206182F02
S1131FC0811114C040E250E060E070E08A899B898E
S1131FD00E94F6046C897D894BE050E08A899B89D4
S1131FE00E94EA04E881F98181E08483812FDF91F2
S1131FF0CF911F9108958F929F92AF92BF92CF92EB
S1132000DF92EF92FF920F931F93CF93DF93EC0134
S11320106A017B01423051056105710508F44FC026
S11320204A895B896C897D89C416D506E606F7065C
S113203008F045C04A895B896C897D89C416D50638
S1132040E606F70658F4B701A601CE0106DA4B01FD
S11320505C01611571058105910511F480E030C0C2
S113206081E088169104A104B10449F18FEF881628
S11320709806A806B80609F100E010E09801B70137
S1132080A601CE016FDB81111BC04E855F85688977
S113209079894F3F8FEF58076807780759F04F5FEA
S11320A05F4F6F4F7F4F4E875F87688B798B8D8132
S11320B081608D8375016401BDCF81E001C082E040
S11320C0DF91CF911F910F91FF90EF90DF90CF9010
S11320D0BF90AF909F908F900895CF93DF93CDB72B
S11320E0DEB727970FB6F894DEBF0FBECDBF9C8333
S11320F08B837E836D837A836983CE0101964F83BC
S11321000E9400054F8197FD24C0880F991FFC0190
S1132110E951FE4F0190F081E02D309709F01082D3
S1132120EB81FC81309709F010822B813C81FC010A
S1132130E951FE4F31832083232B69F0413059F458
S113214040E0BE016B5F7F4FCE0103960E94D8062C
S113215003C08BE001C080E027960FB6F894DEBF81
S11321600FBECDBFDF91CF9108953F924F925F9202
S11321706F927F928F929F92AF92BF92CF92DF9293
S1132180EF92FF920F931F93CF93DF93CDB7DEB7F8
S1132190A4970FB6F894DEBF0FBECDBF7C017CA31D
S11321A06BA3D42E009709F4D1C0FC0111821082D4
S11321B04E71BE016D5D7F4FCE0101960E94D8061F
S11321C08111CBC0CE0147969E8B8D8B6BA17CA1D8
S11321D04697A2DD0B891C89811104C001151105E4
S11321E009F486E0FD2DFF713F2E9D2D9C7109F4AD
S11321F057C0882369F0843019F4CE010196B2DE09
S1132200232D2860322E0B891C89882341F0A5C018
S1132210F8018385817109F09FC0D2FC99C033FE17
S113222049C0F8011686178689E6808B8DEB818B71
S11322301386148E158E168E178EC980DA80B80117
S1132240F60180810E943D054B015C01F801128E6C
S1132250138E148A158A81E0F60184838114910413
S1132260A104B10439F142A453A464A475A4B50132
S1132270A401C601C0DE811170C089819A81F1E098
S11322808F1A9108A108B108FC0182869386A4865E
S1132290B586B301A2010E943206882359F05DC0BD
S11322A081115BC0F801838584FD54C0D1FE02C056
S11322B080FD52C033FE03C0F32DF0623F2EC9806F
S11322C0DA80F60182A593A5A4A5B5A5F701828FAE
S11322D0938FA48FB58F178F068F34821582B80120
S11322E0F60180810E943D05F70166877787808B20
S11322F0918BF801878D468D50E060E070E0BA0163
S113230055274427782B848D482B858D90E0982F72
S11323108827A0E0B0E0482B592B6A2B7B2BF701D0
S113232042875387648775871682178210861186C1
S1132330168A178A108E118ED182C082F601868188
S11323409781F7019383828380E007C089E005C009
S113235088E003C084E001C087E0A4960FB6F89437
S1132360DEBF0FBECDBFDF91CF911F910F91FF90C4
S1132370EF90DF90CF90BF90AF909F908F907F9021
S11323806F905F904F903F9008953F924F925F926D
S11323906F927F928F929F92AF92BF92CF92DF9271
S11323A0EF92FF920F931F93CF93DF9300D000D04F
S11323B000D0CDB7DEB79E838D835B017A013C8369
S11323C02B83D9011D921C920E941F058111B0C15B
S11323D0ED81FE8185818111ABC1848181FFA7C11B
S11323E086819781A085B185AC01BD014E0D5F1D2D
S11323F0611D711D481759076A077B0710F4E12C0A
S1132400F12C8D809E80F0E28F0E911CE114F1047A
S113241009F447C0AD81BE8116964D915D916D91D1
S11324207C911997DB01CA019170AA27BB27892BDC
S11324308A2B8B2B09F033C1AD81BE81ED91FC91C8
S1132440119732803A942A013B0139E076946794DB
S1132450579447943A95D1F7342009F05EC0452B40
S1132460462B472B79F41E966D917D918D919C910D
S11324705197611571058105910551F540E050E0D2
S1132480BA0108C0AD81BE8152964D915D916D91A6
S11324907C915597CF0162DA61157105810591052B
S11324A0B9F4ED81FE8186819781A085B18542854D
S11324B0538564857585481759076A077B0708F0B3
S11324C02CC1ED81FE8182879387A487B58725C1BE
S11324D0613071058105910511F482E080C06F3F80
S11324E0BFEF7B078B079B0709F4CCC0AD81BE818E
S11324F052966D937D938D939C9355971E964D9014
S11325005D906D907C90519745284628472829F482
S1132510FD0166877787808B918BAD81BE81149690
S11325208C91149786FF18C056962D913D914D912C
S11325305C915997ED91FC9101E010E0B401818127
S11325400E94ED0381119EC0AD81BE8114968C91D1
S113255014978F7B14968C93ED81FE810190F0810A
S1132560E02DFA83E983AD81BE8152964D915D9150
S11325706D917C915597CF010E94040A61157105F4
S11325808105910511F482E07EC02B013C01430CCE
S1132590511C611C711C6701CD2CDD24C694C1142F
S11325A0D10409F44AC0A981BA8112968C91232DD1
S11325B030E0A601420F531F90E08417950718F4EA
S11325C06C01C21AD30A8601A3019201B501E98103
S11325D0FA8181810E94ED03882331F081E0AD818D
S11325E0BE8115968C93A4C0ED81FE81868997895E
S11325F0A08DB18D84199509A609B709A60160E0DB
S113260070E084179507A607B70798F4BC01762FE6
S11326106627770F6A0D7B1D40E052E0C4010E94DB
S1132620EA04AD81BE8114968C9114978F7B149625
S11326308C93DC2CCC24DD0C54C0ED81FE81868986
S11326409789A08DB18D84159505A605B705F9F078
S1132650468157816085718582859385A485B5857A
S1132660481759076A077B0790F401E010E0A301BB
S11326709201B401A981BA8111968C910E94A5039B
S1132680882329F081E0ED81FE81858351C0AD81ED
S1132690BE8156964D925D926D927C925997ED81D2
S11326A0FE8186819781A085B1859C01317040E0CF
S11326B052E0421B530B67014E155F0508F46A0193
S11326C09170AA27BB278096A601B501AD81BE8172
S11326D08A0F9B1F0E94EA04ED81FE81848180643D
S11326E08483AC0CBD1CED81FE8186819781A0851D
S11326F0B1858C0D9D1DA11DB11D86839783A08777
S1132700B187AB81BC818D919C9111978C0D9D1DDE
S11327108D939C93EC18FD0879CEAD81BE811496FF
S11327208C911497806214968C9380E001C087E0AA
S113273026960FB6F894DEBF0FBECDBFDF91CF91C2
S11327401F910F91FF90EF90DF90CF90BF90AF90CB
S11327509F908F907F906F905F904F903F900895DF
S11327600F931F93CF93DF93EC010E941F058111F8
S113277054C08C8185FF4EC086FF13C02E893F89CB
S1132780488D598DE881F98101E010E0BE01605E59
S11327907F4F81810E94ED0381113EC08C818F7B2C
S11327A08C834A8D5B8D6C8D7D8D888199810E948F
S11327B03206811132C0EE8DFF8D8385806283875E
S11327C08A85848F8B85858F8C85868F8D85878F71
S11327D04E855F8568897989428F538FAB0166275F
S11327E07727448B558B168A178A89E6808F8DEB61
S11327F0818F128A138A8C818F7D8C83E881F98181
S113280081E0848388819981DF91CF911F910F9119
S11328100C94C20580E001C081E0DF91CF911F914B
S11328200F910895CF93DF93EC019ADF811107C0D4
S1132830CE010E941F05811102C019821882DF9106
S1132840CF9108952F923F924F925F926F927F9211
S11328508F929F92AF92BF92CF92DF92EF92FF92AC
S11328600F931F93CF93DF93CDB7DEB728970FB69F
S1132870F894DEBF0FBECDBF1C014D835E836F8312
S113288078870E941F054D815E816F817885811153
S113289089C1D10115968C911597811183C11A961E
S11328A0CD90DD90ED90FC901D97C416D506E606FC
S11328B0F70618F06A017B0104C0F101848181FDEF
S11328C0F9CFD10116964D905D906D907C9019973B
S11328D0F1011682178210861186C114D104E10415
S11328E0F10421F4C12CD12C7601FFC000811181A7
S11328F0F8018280912CA12CB12C89E0880C991CC0
S1132900AA1CBB1C8A95D1F74114510461047104BB
S1132910D9F1F1E04F1A510861087108C701B601F5
S11329206150710981099109A50194010E94AB22AA
S113293029833A834B835C83C301B201A5019401CB
S11329400E94AB2269817A818B819C816217730713
S113295084079507C8F088279927DC018819990905
S1132960AA09BB0984219521A621B721F1018683F7
S11329709783A087B187C81AD90AEA0AFB0A428951
S11329805389648975892DC0D1011E964D915D913D
S11329906D917C9151974115510561057105D1F4F3
S11329A040E050E0BA01C8010E94AE0CAB01BC018A
S11329B0413051056105710509F461C04F3FFFEFD6
S11329C05F076F077F0709F4B6C0F1014687578791
S11329D0608B718BD10152964D935D936D937C9373
S11329E05597411551056105710509F47BCF26C042
S11329F0D101ED91FC9182899389A489B589481705
S1132A0059076A077B07D8F5D10152964D935D9318
S1132A106D937C93559716968D919D910D90BC91D5
S1132A20A02D880D991DAA1DBB1DF10186839783D6
S1132A30A087B187C818D908EA08FB088C149D043C
S1132A40AE04BF0428F5F10124818081918121FF26
S1132A5018C00E94AE0CAB01BC01411551056105C3
S1132A607105A1F04F3FFFEF5F076F077F0709F480
S1132A7062C0423051056105710508F0B9CF82E0AA
S1132A8071C00E942D0AAB01BC01ECCF7501640139
S1132A90F10186819781A085B1858C0D9D1DAE1DA8
S1132AA0BF1D86839783A087B187D701C601917024
S1132AB0AA27BB27892B8A2B8B2B09F413CF808160
S1132AC091810E94040A611571058105910511F433
S1132AD082E032C0B9E0F694E794D794C794BA95EB
S1132AE0D1F7C60ED71EE81EF91EF1018681978123
S1132AF0A085B1859170AA27BB27892B8A2B8B2BA4
S1132B00D9F126893789408D518DC216D306E40642
S1132B10F50691F18481B101605E7F4F5B0186FF10
S1132B2013C00190F081E02D01E010E081810E944A
S1132B30ED03882329F081E0D10115968C9332C0EE
S1132B40F10184818F7B8483D101ED91FC9101E0BB
S1132B5010E0A7019601B50181810E94A503882395
S1132B6021F081E0F10185831DC0D1015696CD92FB
S1132B70DD92ED92FC925997F10186819781A085AF
S1132B80B1854285538564857585481759076A0759
S1132B907B0738F482879387A487B5878481806212
S1132BA0848380E028960FB6F894DEBF0FBECDBFB5
S1132BB0DF91CF911F910F91FF90EF90DF90CF9015
S1132BC0BF90AF909F908F907F906F905F904F9049
S1132BD03F902F900895589880E00C94FD020F9335
S1132BE01F93CF93DF931F92CDB7DEB78C018091F3
S1132BF0E80085FF36C08091F100F801E60FF11D71
S1132C0080838091F10081838091F100828380919F
S1132C10F10083838091F10084838091F1008583A6
S1132C208091F10086838091F10087838091F10087
S1132C3080878091F10081878091F1008287809163
S1132C40F10083878091F10084878091F10085876A
S1132C508091F10086878091F100878780E190E080
S1132C600EC08091E8008B778093E80069830E940E
S1132C70B21F6981882309F4BECF80E090E00F90F1
S1132C80DF91CF911F910F910895AF92BF92CF9290
S1132C90DF92EF92FF920F931F93CF93DF935C0128
S1132CA06A017B01E9010E94B21F811121C02097B2
S1132CB0B1F001E010E0A701960169EE71E080E057
S1132CC00E94ED0360E089EE91E089DF8FEFC81A7E
S1132CD0D80AE80AF80A2197F50180ADE6CF809179
S1132CE0E80085FD05C08091E8008B778093E800BB
S1132CF0DF91CF911F910F91FF90EF90DF90CF90D4
S1132D00BF90AF9008950F931F93CF93DF931F92BB
S1132D10CDB7DEB78C018091E80085FF35C0F8019E
S1132D20E60FF11D80818093F10081818093F10091
S1132D3082818093F10083818093F1008481809368
S1132D40F10085818093F10086818093F100878171
S1132D508093F10080858093F10081858093F10058
S1132D6082858093F10083858093F100848580932C
S1132D70F10085858093F10086858093F100878535
S1132D808093F10081E00DC08091E8008E778093FC
S1132D90E80069830E94B21F6981882309F4BFCFC8
S1132DA080E00F90DF91CF911F910F9108950F93C1
S1132DB01F93CF93DF9300D000D0CDB7DEB7890146
S1132DC049835A836B837C830E94B21F49815A8151
S1132DD06B817C8181111AC0012B79F001E010E034
S1132DE09A01AB0169EE71E080E00E94A50380E0E6
S1132DF0682F89EE91E087DFFBCF8091E80085FDA5
S1132E0005C08091E8008E778093E8000F900F90C2
S1132E100F900F90DF91CF911F910F91089581E052
S1132E2008951F920F920FB60F9211242F933F9380
S1132E304F935F936F937F938F939F93AF93BF93BE
S1132E40EF93FF93CF93DF93CDB7DEB7C656D10987
S1132E50DEBFCDBF8EB38430D1F06FE971E0CE0117
S1132E6001960E94032385E190E0A7969FAF8EAF61
S1132E70A7979E012B593F4F45E150E0BE016F5F7C
S1132E807F4F8CEE93E081DA8CEE93E069DCCA59D3
S1132E90DF4F0FB6F894DEBF0FBECDBFDF91CF91E9
S1132EA0FF91EF91BF91AF919F918F917F916F911E
S1132EB05F914F913F912F910F900FBE0F901F90F4
S1132EC018950F931F93CF93DF93CDB7DEB72C974D
S1132ED00FB6F894DEBF0FBECDBF8091E903909189
S1132EE0EA0301969093EA038093E9039F938F93F7
S1132EF085EB91E09F938F938E010F5F1F4F1F937C
S1132F000F930E940A2341E06EE971E08CE096E0A1
S1132F10E4D80F900F900F900F900F900F908111A5
S1132F2013C042E1B8018CEE93E01FD94091F6033F
S1132F305091F7036091F8037091F9038CEE93E0DC
S1132F4081DC81E08093EB032C960FB6F894DEBF0E
S1132F500FBECDBFDF91CF911F910F9108958CEEDD
S1132F6093E0FEDB8CEE93E05DDC1092EB030895BE
S1132F7084B7877F84BF88E10FB6F894809360009C
S1132F80109260000FBE90E080E80FB6F894809332
S1132F906100909361000FBE0E94D1001CDE0E946C
S1132FA020203DDF811101C0FFCF0895E1DF89DFDB
S1132FB0789481E191E01BD481E091E000D30E94F8
S1132FC090228091EB03882329F08EB3843089F713
S1132FD0C6DFEFCF76DFEDCF609122067091230636
S1132FE0809124069091250608950895089581E01E
S1132FF091E0D2D281E191E0DDC381E191E09BD304
S113300081E091E095C16EC00F931F9380913A08BF
S1133010F901818382E090E0F8019183808381E06B
S11330201F910F910895F901618180913A088617E3
S113303031F060933A0880E090E00C94EC24089519
S1133040BF92CF92DF92EF92FF920F931F93CF9391
S1133050DF93EC01B62EC8A0DF8CEE8CFD8C0BA1A7
S11330601AA1BADF6150710981099109C616D70600
S1133070E806F90668F080914C01807F85608093B2
S11330804C0181E2809356011092570180E020C0E8
S11330909801B701A601CE01BB2011F088DE01C062
S11330A0F4DD6801E12CF12C89E0CC0CDD1CEE1C74
S11330B0FF1C8A95D1F74C895D896E897F894C19EB
S11330C05D096E097F094C8B5D8B6E8B7F8B81E074
S11330D0DF91CF911F910F91FF90EF90DF90CF90F0
S11330E0BF900895CF92DF92EF92FF920F931F93B8
S11330F0CF93DF93CDB7DEB728970FB6F894DEBF32
S11331000FBECDBF8C01FC01838D8D3109F4A8C0A5
S113311090F4823109F44DC038F4882309F4DDC0F9
S1133120833009F473C0DFC08A3109F4BBC08B312A
S113313009F4D3C0D8C0883209F4AEC098F58E31F2
S113314009F4CBC0853209F0CEC080E092E0A0E063
S1133150B0E089839A83AB83BC833EDF61507109FD
S1133160810991096D837E838F83988740E050E0C5
S113317064E070E0CE010596D4D440E050E064E011
S113318070E0CE010196CDD48091E8008E778093D3
S1133190E800F80184899589A689B7890897A10967
S11331A0B10959C08A3209F475C08F3209F495C047
S11331B09AC0F801E78CF68C848D837009F054C0B2
S11331C0858D811151C06701F5E2EF16F10418F005
S11331D024E2C22ED12C40E050E0B6018FEB91E006
S11331E059D460E070E0C7018C199D0916D4809110
S11331F0E8008E778093E800F80184899589A68990
S1133200B7898C199D09A109B10925C0F801C78C9A
S1133210DC2CF2E1FC1510F492E1D92EED2CF12C0A
S113322040E050E0B7018AE491E034D48C2D90E082
S113323060E070E08E199F09F0D38091E8008E77EA
S11332408093E800F80184899589A689B7898D1946
S11332509109A109B109848B958BA68BB78B4DC0BD
S1133260F801848D82FD08C080914C01807F8560C7
S113327080934C0184E23EC0D2DD81112EC0809146
S11332804C01807F846080934C011092560110920F
S113329057013EC060E001C061E0C801D1DE88236F
S11332A0B9F12BC01092F1001092F1001092F100CC
S11332B01092F1008091E8008E778093E800F80185
S11332C0448955896689778944505109610971098E
S11332D0448B558B668B778B10C0F801148A158A42
S11332E0168A178A0AC080914C01807F856080937A
S11332F04C0180E280935601CACF80914C01807FBB
S113330080934C01109256011092570181E001C044
S113331080E028960FB6F894DEBF0FBECDBFDF91D4
S1133320CF911F910F91FF90EF90DF90CF90089570
S11333306F927F928F929F92AF92BF92CF92DF92C1
S1133340EF92FF920F931F93CF93DF9300D01F92BE
S1133350CDB7DEB77C01ADB6BEB68091E80083FF81
S113336004C1F701808190E020914508309146081E
S11333702817390709F0F9C080914208833009F40D
S11333809BC030F4813071F0823009F4D2C0EDC0BA
S11333908A3009F4B6C08B3009F49FC0893009F033
S11333A0E4C04DC080914108813A09F0DEC08DB679
S11333B09EB61A82198280914308109144088B8327
S11333C0F701408550E08DB79EB7841B950B0FB66F
S11333D0F8949EBF0FBE8DBFEDB7FEB731966F0157
S11333E060E070E0CF010E94FC224FEF410F8E019C
S11333F00F5F1F4F9601BE016D5F7F4FC70104DE53
S1133400F70186819781009729F0408550E0B60145
S11334100E94F3221092E9008091E800877F809354
S1133420E8008B8181118093F10069817A81C60162
S11334300DD48091E8008B778093E80037C08091A9
S11334404108813209F091C08DB69EB600914708BB
S11334501091480870904308609044088DB79EB757
S1133460801B910B0FB6F8949EBF0FBE8DBFEDB7B6
S1133470FEB731966F018091E800877F8093E80062
S1133480B801CF0140D48091E8008E778093E800A2
S113349021E0711001C020E030E0021B130B2C0D61
S11334A03D1D4FEF460D672DC701BDDD0FB6F894E6
S11334B09EBE0FBE8DBE59C080914108813A09F06D
S11334C054C08091E800877F8093E8008091E800F1
S11334D080FFFCCFF701818540C080914108813293
S11334E009F043C08091E800877F8093E8001BD5F2
S11334F09091430881E0911101C080E0F701818738
S113350034C080914108813281F58091E800877F41
S11335108093E80008D58091430890914408882757
S113352036E0969587953A95E1F7F7019587848774
S11335301CC080914108813AC1F48091E800877FE2
S11335408093E8008091E80080FFFCCFF701848538
S1133550958596958795969587958093F1008091AA
S1133560E8008E778093E800DED40FB6F894BEBEF0
S11335700FBEADBE0F900F900F90DF91CF911F91B2
S11335800F91FF90EF90DF90CF90BF90AF909F90FE
S11335908F907F906F900895FC01399627E0DF01AA
S11335A01D922A95E9F721E0FC01218724EF31E0FF
S11335B03587248723E0248361E0019677C45F92F2
S11335C06F927F928F929F92AF92BF92CF92DF922F
S11335D0EF92FF920F931F93CF93DF9300D01F922C
S11335E0CDB7DEB77C01ADB6BEB68EB3843009F07C
S11335F08AC08091E4009091E500F701228533852B
S11336002817390709F47FC081818F708093E900FE
S11336108091E80085FF77C08DB69EB6408550E066
S11336208DB79EB7841B950B0FB6F8949EBF0FBE43
S11336308DBFEDB7FEB731966F011B821A821982D6
S113364060E070E0CF01D8D78E010F5F1F4F960165
S113365040E0BE016D5F7F4FC701D6DC682EF701E5
S113366084859585892B41F021E086859785892B72
S113367009F020E0722E01C0712CF7010681178138
S11336800115110589F049815A81B801C6019ED7F7
S113369055245394892B09F4512CF701408550E0AB
S11336A0B601C801A0D701C0512C29813A81232B2E
S11336B0F1F0611004C0511002C070FE18C0F7018F
S11336C0848595859787868781818F708093E900AB
S11336D08B8181118093F10069817A8140E050E00F
S11336E0C601D8D18091E8008E778093E80080915C
S11336F0E4009091E500F701938782870FB6F89470
S11337009EBE0FBE8DBE0FB6F894BEBE0FBEADBE3C
S11337100F900F900F90DF91CF911F910F91FF9019
S1133720EF90DF90CF90BF90AF909F908F907F905D
S11337306F905F900895CF93DF93EC018091E80040
S113374083FF35C0888190E0209145083091460878
S11337502817390761F5809142088E3F79F08F3F31
S113376031F580914108813211F58091E800877F1D
S11337708093E800D8D381E088AF19C080914108D4
S1133780813AA9F48091E800877F8093E8008091D2
S1133790E80080FFFCCF8B8581508093F1008091FD
S11337A0E8008E778093E800DF91CF91BCC3DF916E
S11337B0CF910895CF93DF93EC01FC013C968DE209
S11337C0DF011D928A95E9F782E08C83898761E0A5
S11337D0CE0101966BD3882331F061E0CE010696C9
S11337E0DF91CF9163C380E0DF91CF910895EF9291
S11337F0FF920F931F93CF93DF9300D0CDB7DEB723
S11338008C018EB3843009F0FFC0F80186818F707B
S11338108093E9008091E80082FFBCC086818F70AC
S11338208093E9001A8219827801FCE0EF0EF11C02
S1133830AE014F5F5F4F6FE070E0C701C0D1F80188
S1133840853021F480AD882399F3A4C084859585BF
S1133850A685B78585359345A244B34461F4F80140
S1133860918D8385981738F4808D8F7121F4828D22
S11338708150803180F08091EB0080628093EB0076
S1133880F80181818F708093E9008091EB00806260
S11338908093EB007FC01A8219827801FBE1EF0E5E
S11338A0F11CF801628D70E0AE014F5F5F4FC701FC
S11338B086D1853029F4F80180AD882391F36AC05C
S11338C08091E8008B778093E800F801808D87FF72
S11338D004C081818F708093E900C80194DB91E07A
S11338E09827F80197AB45E553E562E473E543A7F0
S11338F054A765A776A7408951896289738947A728
S113390050AB61AB72AB448955896689778943AB07
S113391054AB65AB76AB811109C0452B462B472BC5
S113392029F08091EB0080628093EB00F80186819E
S11339308F708093E9008091EB00F80185FF04C04B
S113394080AD8823C1F326C081818F708093E90004
S11339508091EB0085FF05C0F80180AD8823C1F399
S113396019C01A8219827801FBE2EF0EF11CAE0134
S11339704F5F5F4F6DE070E0C7018CD0853029F454
S1133980F80180AD882399F305C08091E8008E7713
S11339908093E800F80180AD8823B1F126812F706F
S11339A081E090E0AC0102C0440F551F2A95E2F774
S11339B04093EA001092EA0021812F70022E01C088
S11339C0880F0A94EAF78093EA001092EA0086814D
S11339D08F708093E9008091EB0080618093EB000D
S11339E08091EB0088608093EB0081818F708093DD
S11339F0E9008091EB0080618093EB008091EB0003
S1133A0088608093EB0010AE0F900F90DF91CF9100
S1133A101F910F91FF90EF900895EF92FF920F93F3
S1133A201F93CF93DF938C01EB019CD281112BC0A8
S1133A30209721F088819981081B190BE12CF12C26
S1133A4001151105F9F08091E80085FD13C08091FE
S1133A50E8008E778093E800209741F0888199816F
S1133A608E0D9F1D9983888385E00DC07BD28823AA
S1133A7039F309C01092F100015011098FEFE81ACF
S1133A80F80ADECF80E0DF91CF911F910F91FF9074
S1133A90EF900895CF92DF92EF92FF920F931F93CE
S1133AA0CF93DF937C018B01EA015CD2811130C09A
S1133AB0209731F088819981081B190BE80EF91EB3
S1133AC0C12CD12C0115110511F18091E80085FD5F
S1133AD013C08091E8008E778093E800209741F02E
S1133AE0888199818C0D9D1D9983888385E010C000
S1133AF039D2882339F30CC0F70181917F01809377
S1133B00F10001501109FFEFCF1ADF0ADBCF80E08B
S1133B10DF91CF911F910F91FF90EF90DF90CF90A5
S1133B200895CF92DF92EF92FF920F931F93CF935A
S1133B30DF936C018B017A0115D2811137C0E80142
S1133B402197CC0DDD1DE114F10439F0F7018081DA
S1133B509181081B190BC81BD90BC12CD12C011541
S1133B60110519F18091E80085FD15C08091E800E8
S1133B708E778093E800E114F10449F0F701808125
S1133B8091818C0D9D1D9183808385E00FC0EAD1C6
S1133B90882329F30BC088818093F1002197015079
S1133BA01109FFEFCF1ADF0ADACF80E0DF91CF915E
S1133BB01F910F91FF90EF90DF90CF900895CF92D7
S1133BC0DF92EF92FF920F931F93CF93DF937C01C9
S1133BD08B01EA01C7D1811130C0209731F088816F
S1133BE09981081B190BE80EF91EC12CD12C011563
S1133BF0110511F18091E80085FD13C08091E80062
S1133C008B778093E800209741F0888199818C0D0F
S1133C109D1D9983888385E010C0A4D1882339F33E
S1133C200CC08091F100F70181937F0101501109CB
S1133C30FFEFCF1ADF0ADBCF80E0DF91CF911F9136
S1133C400F91FF90EF90DF90CF9008952091470857
S1133C50309148082617370748F06115710539F483
S1133C602091E8002E772093E80001C0B901FC01FF
S1133C7020E061157105A1F18EB38823F1F185303F
S1133C80F1F18091E80083FD3CC08091E80082FF5F
S1133C9006C08091E80082FF26C080E008958091EC
S1133CA0E80080FFE6CF2091F3008091F20090E0DD
S1133CB0922B6115710551F08830910538F42191EA
S1133CC02093F100615071090196F3CF21E0089728
S1133CD009F020E08091E8008E778093E800C9CF56
S1133CE02111CACFD6CF8EB3882339F0853039F06D
S1133CF08091E80083FFCDCF04C082E0089583E083
S1133D00089581E008956115710529F42091E80072
S1133D102B772093E8006115710531F12EB322232E
S1133D2061F1253061F12091E80023FD22C020914A
S1133D30E80022FFF3CFFC01CF014091F300209172
S1133D40F20030E0342B232B09F38091F1008193AE
S1133D50CF01615071096115710571F7D7CF8EB329
S1133D60882359F0853059F08091E80080FFF7CF1F
S1133D7002C081E0089580E0089582E0089583E020
S1133D80089520914708309148082617370748F0CE
S1133D906115710539F42091E8002E772093E8002D
S1133DA001C0B901FC0120E061157105B9F18EB3C0
S1133DB0882309F440C0853009F43FC08091E800AD
S1133DC083FD3DC08091E80082FF06C08091E80039
S1133DD082FF27C080E008958091E80080FFE4CF4F
S1133DE02091F3008091F20090E0922B611571050F
S1133DF059F08830910540F424912093F1003196D4
S1133E00615071090196F2CF21E0089709F020E092
S1133E108091E8008E778093E800C6CF2111C7CF48
S1133E20D5CF8EB3882339F0853039F08091E800FE
S1133E3083FFCCCF04C082E0089583E0089581E03D
S1133E400895982F973058F59093E900981739F012
S1133E507091EC002091ED005091F00003C0242FEC
S1133E60762F50E021FF19C03091EB003E7F309354
S1133E70EB003091ED003D7F3093ED003091EB008D
S1133E8031603093EB007093EC002093ED0050937D
S1133E90F0002091EE0027FF07C09F5FD3CF8F7003
S1133EA08093E90081E0089580E008950F931F93C3
S1133EB0CF93DF93062FEC0110E0101771F1988176
S1133EC0992341F12C81E981FA817B81892F8F70BB
S1133ED0873010F080E022C0223010F056E001C09C
S1133EE052E028E030E040E02E173F0720F44F5F17
S1133EF0220F331FF9CF4295407F452B692F661F50
S1133F006627661F90E4799F90011124622B99DF44
S1133F10882301F31F5F2596D0CF81E0DF91CF91F5
S1133F201F910F9108958091410887FD05C08091EC
S1133F30E80080FF0DC010C08091E80082FD04C03D
S1133F408EB38111F9CF08958091E8008B7707C073
S1133F508EB38111ECCF08958091E8008E77809321
S1133F60E80008958091E4009091E50045E62091F1
S1133F70EC0020FF20C02091E80020FD20C02EB3DB
S1133F80222389F0253089F02091EB0025FD0FC014
S1133F902091E4003091E5002817390741F341509E
S1133FA041F0C901E4CF82E0089583E0089581E0FF
S1133FB0089584E008952091E80022FFE0CF80E096
S1133FC008950F931F93CF93DF934AD051D0C8ED38
S1133FD0D0E088818F77888388818068888388810E
S1133FE08F7D888319BC1EBA10923D0810923F0839
S1133FF010923E0800EE10E0F80180818B7F8083F0
S113400088818160888342E060E080E01ADFE1EE2D
S1134010F0E080818E7F8083E2EEF0E08081816039
S11340208083808188608083F80180818E7F808393
S1134030888180618883DF91CF911F910F910895CA
S1134040E8EDF0E080818F7E8083E7EDF0E0808111
S11340508160808384E082BF81E080934008B1CF97
S1134060E8EDF0E080818E7F80831092E200089575
S11340701092DA001092E10008951F920F920FB689
S11340800F9211242F933F934F935F936F937F93DA
S11340908F939F93AF93BF93EF93FF938091E1002E
S11340A082FF0AC08091E20082FF06C08091E10095
S11340B08B7F8093E10033D28091DA0080FF1BC0B4
S11340C08091D80080FF17C08091DA008E7F8093A2
S11340D0DA008091D90019BC80FF0AC082E089BD52
S11340E009B400FEFDCF81E08EBB0E94F51703C02A
S11340F01EBA0E94F6178091E10080FF17C08091DC
S1134100E20080FF13C08091E2008E7F8093E20082
S11341108091E20080618093E2008091D800806207
S11341208093D80019BC85E08EBBF9D18091E10061
S113413084FF2DC08091E20084FF29C019BC82E075
S113414089BD09B400FEFDCF8091D8008F7D809396
S1134150D8008091E1008F7E8093E1008091E2009D
S11341608F7E8093E2008091E20081608093E20080
S113417080913D08882311F084E007C08091E3001A
S113418087FF02C083E001C081E08EBBC8D180916B
S1134190E10083FF26C08091E20083FF22C080916A
S11341A0E100877F8093E10082E08EBB10923D089E
S11341B08091E1008E7F8093E1008091E2008E7F08
S11341C08093E2008091E20080618093E20042E00B
S11341D060E080E036DE8091F00088608093F0003B
S11341E09ED1FF91EF91BF91AF919F918F917F915C
S11341F06F915F914F913F912F910F900FBE0F9050
S11342001F9018951F920F920FB60F9211242F939F
S11342103F934F935F936F937F938F939F93AF934A
S1134220BF93CF93EF93FF93C091E900CF70809138
S1134230EC001092E9008091F000877F8093F000F9
S113424078941BD01092E9008091F00088608093EC
S1134250F000C093E900FF91EF91CF91BF91AF912E
S11342609F918F917F916F915F914F913F912F918A
S11342700F900FBE0F901F9018951F93CF93DF934D
S1134280CDB7DEB7AA970FB6F894DEBF0FBECDBF89
S1134290E1E4F8E08091F100819328E0E934F20749
S11342A0C9F70E94FD178091E80083FF20C1909117
S11342B0410880914208853009F477C030F4813098
S11342C081F168F0833069F112C1883009F4E1C0EA
S11342D0893009F4F0C0863009F009C187C09038EC
S11342E081F0923809F003C1809145088F70809362
S11342F0E9008091EB0085FB882780F91092E900A2
S113430006C080913E0890913F089111826090917F
S1134310E800977F9093E8008093F1001092F100F9
S1134320C3C0292F2D7F09F0E2C0992319F09230E0
S113433061F0DDC090914308913009F0D8C083301A
S113434009F090E090933F082AC09091430891119E
S113435026C0209145082F7009F4C9C02093E900B4
S11343609091EB0090FF1BC0833021F48091EB000F
S1134370806213C08091EB0080618093EB0081E048
S113438090E0022E01C0880F0A94EAF78093EA00B5
S11343901092EA008091EB0088608093EB00109209
S11343A0E9008091E800877F82C09111A0C010913C
S11343B043081F778091E3008078812B8093E3008A
S11343C08091E800877F8093E800ADDD8091E8006C
S11343D080FFFCCF8091E30080688093E300112389
S11343E011F083E001C082E08EBB81C0905892300E
S11343F008F07DC080914308909144088C3D23E0EF
S1134400920771F583E08A838AE289834FB7F8942F
S1134410DE01139620E03EE051E2E32FF0E05093FA
S11344205700E49120FF03C0E295EF703F5FEF7007
S11344308E2F90E0EA3010F0C79601C0C0968D939D
S11344409D932F5F243149F74FBF8091E800877F08
S11344508093E8006AE270E0CE010196F7DB13C0B6
S1134460AE014F5F5F4F609145080E9416010097AF
S113447009F43DC02091E800277F2093E800BC01A7
S113448089819A817EDC8091E8008B778093E800B3
S11344902EC0903861F58091E800877F8093E80012
S11344A080913D088093F1008091E8008E7780939D
S11344B0E80039DD1CC091111AC090914308923074
S11344C0B0F48091E800877F8093E80090933D08E2
S11344D02ADD80913D08811104C08091E30087FFAB
S11344E002C084E001C081E08EBB0E94F717809176
S11344F0E80083FF0AC08091E800877F8093E8008A
S11345008091EB0080628093EB00AA960FB6F8943A
S1134510DEBF0FBECDBFDF91CF911F9108950895E7
S1134520CF938EB38823A9F08091E9008F70909186
S1134530EC0090FF02C090E801C090E0C92FC82BA6
S11345401092E9008091E80083FD97DECF70C0935C
S1134550E900CF910895A1E21A2EAA1BBB1BFD010D
S11345600DC0AA1FBB1FEE1FFF1FA217B307E4074E
S1134570F50720F0A21BB30BE40BF50B661F771FA6
S1134580881F991F1A9469F7609570958095909586
S11345909B01AC01BD01CF01089509D0A59F900DE9
S11345A0B49F900DA49F800D911D11240895A29F86
S11345B0B001B39FC001A39F700D811D1124911DF3
S11345C0B29F700D811D1124911D0895FB01DC0122
S11345D004C08D910190801921F441505040C8F7D6
S11345E0881B990B0895FB01DC0102C001900D9218
S11345F041505040D8F70895DC0101C06D934150FB
S11346005040E0F70895FB01DC0101900D92002079
S1134610E1F70895AEE0B0E0EFE0F3E2A3C20D8964
S11346201E8986E08C831A8309838FEF9FE79E831C
S11346308D83AE01475E5F4F6F89788DCE01019601
S113464008D0EF81F885E00FF11F10822E96E4E088
S1134650A5C2ACE0B0E0EEE2F3E276C27C016B010D
S11346608A01FC0117821682838181FFB0C1CE01C9
S113467001964C01F7019381F60193FD859193FF17
S113468081916F01882309F49EC1853239F493FD29
S1134690859193FF81916F01853221F4B70190E0F8
S11346A0C3D1E8CF512C312C20E02032A0F48B323E
S11346B069F030F4803259F0833269F420612CC0FF
S11346C08D3239F0803339F4216026C022602460B1
S11346D023C0286021C027FD27C030ED380F3A30B1
S11346E078F426FF06C0FAE05F9E300D1124532EA5
S11346F013C08AE0389E300D1124332E20620CC082
S11347008E3221F426FD5FC1206406C08C3611F47C
S1134710206802C0883641F4F60193FD859193FF29
S113472081916F018111C1CF982F9F7D9554933052
S113473028F40C5F1F4FFFE3F9830DC0833631F07B
S1134740833771F0833509F057C021C0F8018081A7
S113475089830E5F1F4F44244394512C540114C089
S11347603801F2E06F0E711CF801A080B18026FFC1
S113477003C0652D70E002C06FEF7FEFC5012C8789
S113478048D12C0183012C852F77222E16C03801A5
S1134790F2E06F0E711CF801A080B18026FF03C007
S11347A0652D70E002C06FEF7FEFC5012C8726D125
S11347B02C012C852068222E830123FC19C0832D13
S11347C090E048165906A0F4B70180E290E02CD19D
S11347D03A94F5CFF50127FC859127FE81915F017D
S11347E0B70190E021D131103A94F1E04F1A510809
S11347F04114510479F7DEC0843611F0893631F55D
S1134800F80127FF07C060817181828193810C5F69
S11348101F4F08C060817181882777FD8095982F8C
S11348200E5F1F4F2F76B22E97FF09C0909580958B
S1134830709561957F4F8F4F9F4F2068B22E2AE06D
S113484030E0A40123D1A82EA81843C0853729F449
S11348502F7EB22E2AE030E025C0F22FF97FBF2E42
S11348608F36C1F018F4883579F0ADC0803719F06F
S1134870883721F0A8C02F2F2061B22EB4FE0DC0BE
S11348808B2D8460B82E09C024FF0AC09F2F966028
S1134890B92E06C028E030E005C020E130E002C0B7
S11348A020E132E0F801B7FE07C0608171818281A6
S11348B093810C5F1F4F06C06081718180E090E09E
S11348C00E5F1F4FA401E2D0A82EA818FB2DFF777E
S11348D0BF2EB6FE0BC02B2D2E7FA51450F4B4FEB4
S11348E00AC0B2FC08C02B2D2E7E05C07A2C2B2DBD
S11348F003C07A2C01C0752C24FF0DC0FE01EA0D03
S1134900F11D8081803311F4297E09C022FF06C085
S11349107394739404C0822F867809F0739423FDF2
S113492012C020FF06C05A2C731418F4530C5718E5
S1134930732C731460F4B70180E290E02C8774D078
S113494073942C85F6CF731410F4371801C0312CEE
S113495024FF11C0B70180E390E02C8765D02C853B
S113496022FF16C021FF03C088E590E002C088E75B
S113497090E0B7010CC0822F867851F021FD02C06F
S113498080E201C08BE227FD8DE2B70190E04CD0BC
S1134990A51430F4B70180E390E046D05A94F8CFE0
S11349A0AA94F401EA0DF11D8081B70190E03CD096
S11349B0A110F6CF332009F45DCEB70180E290E078
S11349C033D03A94F7CFF7018681978102C08FEFF5
S11349D09FEF2C96E2E1D4C0262FF999FECF92BD29
S11349E081BDF89A019700B4021639F01FBA20BDB0
S11349F00FB6F894FA9AF99A0FBE0895FC0105903F
S1134A00615070400110D8F7809590958E0F9F1FCC
S1134A100895FC016150704001900110D8F7809511
S1134A2090958E0F9F1F08950F931F93CF93DF933D
S1134A30182F092FEB018B8181FD03C08FEF9FEFAE
S1134A4020C082FF10C04E815F812C813D814217BE
S1134A5053077CF4E881F9819F012F5F3F4F39832D
S1134A602883108306C0E885F985812F0995892B51
S1134A7029F72E813F812F5F3F4F3F832E83812F64
S1134A80902FDF91CF911F910F910895FA01AA27DA
S1134A90283051F1203181F1E8946F936E7F6E5F7D
S1134AA07F4F8F4F9F4FAF4FB1E03ED0B4E03CD02B
S1134AB0670F781F891F9A1FA11D680F791F8A1F0E
S1134AC0911DA11D6A0F711D811D911DA11D20D075
S1134AD009F468943F912AE0269F11243019305D2F
S1134AE03193DEF6CF010895462F4770405D419320
S1134AF0B3E00FD0C9F7F6CF462F4F70405D4A336D
S1134B0018F0495D31FD4052419302D0A9F7EACF34
S1134B10B4E0A6959795879577956795BA95C9F763
S1134B2000976105710508959B01AC010A2E069456
S1134B305795479537952795BA95C9F7620F731F0F
S1134B40841F951FA01D08952F923F924F925F924C
S1134B506F927F928F929F92AF92BF92CF92DF9289
S1134B60EF92FF920F931F93CF93DF93CDB7DEB7EE
S1134B70CA1BDB0B0FB6F894DEBF0FBECDBF099482
S1134B802A88398848885F846E847D848C849B84D9
S1134B90AA84B984C884DF80EE80FD800C811B81E7
S1134BA0AA81B981CE0FD11D0FB6F894DEBF0FBE16
S10D4BB0CDBFED010895F894FFCF86
S1134BBA010181100000013B08020000000000000E
S1134BCA00008340000001044000000101000000CD
S1134BDA00000000000000000000000000000000C7
S1134BEA00000000000000000000000000000000B7
S1134BFA0000000000000000000070000000000037
S1134C0A000A00000000000000000000222A2B2CE9
S1134C1A3A3B3C3D3E3F5B5D7C7F00EBFE904D534F
S1134C2A444F53352E30004E4F204E414D452020DF
S1134C3A20204641543332202020004E4F204E413A
S1134C4A4D45202020204641542020202020005475
S1134C5A4553543120544553543220544553543304
S1134C6A2F722F6E0046253035642E63737600004A
S1134C7A8000021F0000004C554641000000004419
S1134C8A617461666C617368204469736B000030F7
S1074C9A2E30300084
S9030000FC
