S02600004C5546415F50524F4A454354535F54454D505F444154414C4F47474552322E737265630D
S1130000C1C00000DCC00000DAC00000D8C000009D
S1130010D6C00000D4C00000D2C00000D0C0000090
S1130020CEC00000CCC000000C9419290C94D8292F
S1130030C6C00000C4C00000C2C00000C0C00000B0
S1130040BEC000000C944A1EBAC00000B8C0000034
S1130050B6C00000B4C00000B2C00000B0C00000D0
S1130060AEC00000ACC00000AAC00000A8C00000E0
S1130070A6C00000A4C00000A2C00000A0C00000F0
S11300809EC000009CC000009AC0000098C0000000
S113009096C0000094C0000092C0000090C0000010
S11300A08EC000008CC000008AC000002E035400E3
S11300B065006D00700065007200610074007500D9
S11300C072006500200044006100740061006C004F
S11300D06F006700670065007200000018034400A9
S11300E0650061006E002000430061006D00650042
S11300F072006100000004030904090239000201CE
S113010000C03209040000020806500007058302FB
S1130110400005070504024000050904010001032D
S113012000000009211101000122200007058103BC
S11301301000051201100100000008EB0363200108
S1130140000102DC010600FF0901A10109021500FA
S113015025FF7508950281020903150025FF75081E
S113016095029102C04D4D432F534420696E69742A
S113017069616C697A6174696F6E206661696C6526
S1130180640D0A0011241FBECFEFDAE0DEBFCDBF3D
S113019012E0A0E0B1E0E8ECFDE502C005900D92AC
S11301A0A031B107D9F728E0A0E1B2E001C01D9267
S11301B0AB37B207E1F70E941E1F0C94E22E20CF4A
S11301C027982F9A56985E9A57985F9A24982C9A53
S11301D025982D9A23982B9A229A2A9A269A3E9801
S11301E0469A219A2098289A6E98769A5D98559AFC
S11301F054985C9A5B9A539A52985A9A599A519A7B
S1130200589A509A729A6A9A85988D9A86988E9A74
S113021087988F9A8C98849A899A819A889A809AD6
S11302200895292F332723303105C9F044F42130B0
S1130230310509F439C02230310561F006C021329C
S1130240310541F12232310551F180E090E020E0A6
S113025030E033C089E390E02AEF30E02EC09927E4
S11302608130910559F08230910571F0892B09F59F
S1130270E6EFF0E0849190E09F011FC0ECEDF0E028
S1130280849190E09F0119C0ECEAF0E0849190E041
S11302909F0113C089E090E023E231E00EC080E2C8
S11302A090E025E431E009C082E190E023E331E00D
S11302B004C080E090E020E030E0FA013183208344
S11302C0089523B123B123B123B101970097C9F74E
S11302D00895FC01680F791F8191882314F42A9AE8
S11302E001C02B98299A299886FF02C02A9A01C036
S11302F02B98299A299885FF02C02A9A01C02B9825
S1130300299A299884FF02C02A9A01C02B98299A15
S1130310299883FF02C02A9A01C02B98299A299808
S113032082FF02C02A9A01C02B98299A299881FF3A
S113033002C02A9A01C02B98299A299880FF02C0EA
S11303402A9A01C02B98299A2998E617F70721F6CB
S113035008952A9AFC01680F791F8FEF299A29982A
S1130360299A2998299A2998299A2998299A299879
S1130370299A2998299A2998299A29988193E617DC
S1130380F70761F708950F931F93CF93DF931F929D
S1130390CDB7DEB708E813E161E070E0CE01019665
S11303A0D8DF89818F3F41F084E690E08ADF0150F5
S11303B011090115110581F781E090E0012B11F479
S11303C080E090E00F90DF91CF911F910F910895FD
S11303D0CF93DF931F92CDB7DEB7599A61E070E0F7
S11303E0CE010196B6DF0F90DF91CF9108950F9360
S11303F01F93CF93DF931F92CDB7DEB7599861E077
S113040070E0CE010196A5DFBEDF8C01009711F4E8
S1130410DFDF02C001E010E0C8010F90DF91CF914F
S11304201F910F910895CF92DF92EF92FF920F9355
S11304301F93CF93DF9300D0CDB7DEB77C016B0160
S113044008EE13E061E070E0CE01019682DF89815D
S11304508F3F41F484E690E034DF01501109011527
S1130460110581F789818E3F59F4B601C70171DF07
S113047062E070E0CE0101966CDF81E090E002C0A2
S113048080E090E00F900F90DF91CF911F910F913A
S1130490FF90EF90DF90CF900895FF920F931F93FA
S11304A0CF93DF9300D0CDB7DEB78C01F62E6BDF90
S11304B0009719F1F98261E070E0CE01019609DF3D
S11304C08DEFF816C1F060E072E0C80102DF62E06F
S11304D070E0CE0101963DDF61E070E0CE0101964F
S11304E038DF89818F7131E020E0853009F030E018
S11304F0832F922F02C081E090E00F900F90DF9144
S1130500CF911F910F91FF900895DF92EF92FF9288
S11305100F931F93CF93DF93CDB7DEB727970FB613
S1130520F894DEBF0FBECDBF182F042FF52EE62E94
S1130530D72E88234CF440E050E0BA0187E3E5DF8E
S1130540823008F045C01F771C3059F141DF4FDF7E
S1130550892B29F1812F80648A83DB82EC82FD82DE
S11305600E83112369F1183019F181E08F8366E05D
S113057070E0CE010296ADDE1C3029F461E070E03B
S1130580CE010196E6DE1AE061E070E0CE0101964C
S1130590E0DE89818823E4F41150B1F719C08FEFAC
S11305A017C08CE48A83DB82EC82FD820E83DDCF6C
S11305B087E88F8366E070E0CE0102968ADEE3CF9F
S11305C085E98F8366E070E0CE01029682DEDBCFA0
S11305D027960FB6F894DEBF0FBECDBFDF91CF9143
S11305E01F910F91FF90EF90DF900895811103C048
S11305F080910001089581E00895EF92FF920F9396
S11306001F93CF93DF9300D000D0CDB7DEB7811115
S1130610A7C080E197E255DE519A599A219A299808
S1130620229A23981AE061E070E0CE01019691DEEF
S11306301150C9F740E050E0BA0180E066DF813034
S113064009F06FC04AEA51E060E070E088E05DDFE5
S11306508130B9F564E070E0CE0101967ADE8B81D9
S1130660813009F060C08C818A3A09F05EC008EEDE
S113067013E040E050E060E070E489EA46DF88235C
S113068049F088EE93E01DDE0150110901151105B2
S113069081F74DC0012B09F44CC040E050E0BA0191
S11306A08AE333DF811147C064E070E0CE01019634
S11306B050DE898186FF41C00F2EFCE0FF2EF02D15
S11306C045C040E050E0BA0189EA1FDF823040F4BF
S11306D00F2EF9EAEF2EF02D6894FF24F1F804C0F0
S11306E0EE24E394FF24F39408EE13E040E050E09A
S11306F0BA018E2D0ADF882349F088EE93E0E1DD0C
S1130700015011090115110589F71BC0012BD9F0FE
S113071040E052E060E070E080E1F7DE811115C056
S113072015C0F12C13C0F12C11C0F12C0FC0F12C09
S11307300DC0F12C0BC0F12C09C06894FF24F2F811
S113074005C0F12C03C0F12C01C0F12CF092100271
S113075011E0F11010E0109300013ADE812F01C086
S113076083E00F900F900F900F90DF91CF911F9126
S11307700F91FF90EF900895FF920F931F93CF93E3
S1130780DF93EB0181113DC08091000180FD3BC0EE
S11307908091100283FD09C0012E19E0220F331F3E
S11307A0441F551F1A95D1F7102D0230110528F05A
S11307B00F2EF2E1FF2EF02D04C00F2EF1E1FF2EDB
S11307C0F02DBA01A9018F2DA0DE811114C060E0C3
S11307D072E0CE0128DE892B31F0DE5F0150110971
S11307E001151105A1F782E1F81205C040E050E0BF
S11307F0BA018CE08ADEECDD81E0012B29F480E093
S113080003C083E001C083E0DF91CF911F910F917A
S1130810FF900895CF92DF92EF92FF920F931F9370
S1130820CF93DF93EB0169017A0181114BC0809171
S1130830000180FD49C08091100283FD09C00B2E88
S1130840B9E0CC0CDD1CEE1CFF1CBA95D1F7B02D21
S11308500130110589F4B701A60188E156DE811142
S11308602BC06EEFCE0119DE31E020E0892B09F0B8
S113087030E0032F122F20C0867029F0A80160E019
S113088070E087E942DEB701A60189E13EDE81110D
S113089013C06CEFCE0101DE892B31F0DE5F015015
S11308A0110901151105A9F76DEF80E090E0F5DD60
S11308B0892B11F401E010E08BDD81E0012B29F498
S11308C080E003C083E001C083E0DF91CF911F91FA
S11308D00F91FF90EF90DF90CF900895CF92DF9229
S11308E0EF92FF920F931F93CF93DF93CDB7DEB7B1
S11308F060970FB6F894DEBF0FBECDBF8A01811199
S113090096C08091000180FD94C0613061F020F0B8
S1130910633009F479C083C06ADD11E0892B09F4DE
S113092083C010E081C040E050E0BA0189E0EDDD11
S1130930811177C060E170E0CE01019674DD892BEE
S113094009F471C08981829586958695837081307A
S113095031F588858F7390E0A0E0B0E0DC01992741
S113096088270196A11DB11D298530E0322F222749
S11309704A85240F311D820F931FA11DB11D072E1F
S11309807AE0880F991FAA1FBB1F7A95D1F7702DA3
S1130990F80180839183A283B38310E045C0498525
S11309A04295469546954370888550E0F4E08F9FC4
S11309B0400D511D11244F5F5F4F8F81837090E074
S11309C0982F8827990F990F480F591F60E070E0FE
S11309D09E819F708B85881F8827881F890F9A8521
S11309E09370990F890F87506A017B0104C0CC0C66
S11309F0DD1CEE1CFF1C8A95D2F7F801C082D1825F
S1130A00E282F38210E010C080E890E0A0E0B0E061
S1130A10FA0180839183A283B38310E005C014E0BC
S1130A2003C011E001C011E0D3DC812F03C083E0D7
S1130A3001C083E060960FB6F894DEBF0FBECDBF51
S1130A40DF91CF911F910F91FF90EF90DF90CF90A6
S1130A5008954115510551F0A62FB72FFC01840FBD
S1130A60951F2D912193E817F907D9F7089541159A
S1130A70510539F0FC01840F951F6193E817F907BC
S1130A80E1F708950F931F93DC01FB01638D70E080
S1130A90762F6627828D682B80E090E02C9123309E
S1130AA079F4058910E0102F00272489022B20E017
S1130AB030E0980111270027602B712B822B932B98
S1130AC01F910F910895FC01A081B181109709F144
S1130AD06C91613258F06A3341F1FD0131969F0106
S1130AE04191413228F04A33D1F704C0462F9D0189
S1130AF04A3391F4AD014F5F5F4F2417350779F402
S1130B00603381F41296FC01B183A08380E090E00D
S1130B1008958FEF9FEF089580E090E008958FEFA0
S1130B209FEF08958FEF9FEF08959D01E3CF8F927C
S1130B309F92AF92BF92CF92DF92EF92FF920F9368
S1130B401F93CF93DF93EC018C81882309F442C077
S1130B50CAA4DBA4ECA4FDA45E018EE2A80EB11C21
S1130B6001E010E0A7019601B501898153DE8111EE
S1130B7033C01C828E8D9F8DA8A1B9A1B701A60197
S1130B80481B590B6A0B7B0B8E899F89A88DB98DE5
S1130B90481759076A077B0708F58B80912C82E078
S1130BA088169104E8F08E899F89A88DB98DC80EA6
S1130BB0D91EEA1EFB1E01E010E0A7019601B50153
S1130BC0898128DE81E0881A910881E088169104E1
S1130BD051F708C080E007C081E005C080E003C091
S1130BE080E001C080E0DF91CF911F910F91FF90D1
S1130BF0EF90DF90CF90BF90AF909F908F9008952B
S1130C00BF92CF92DF92EF92FF920F931F93CF93F5
S1130C10DF93EC016A017B018AA59BA5ACA5BDA568
S1130C2084179507A607B707D9F0CE0180DFB82E41
S1130C30811117C001E010E0A7019601BE01625DB9
S1130C407F4F898199DD882331F0BB24B394CC2470
S1130C50CA94DC2C7601CAA6DBA6ECA6FDA601C0CC
S1130C60B12C8B2DDF91CF911F910F91FF90EF90BD
S1130C70DF90CF90BF9008950F931F93CF93DF938E
S1130C80EC011C820FEF1FEF98010AA71BA72CA7EA
S1130C903DA7B6DF811151C0FE01E35DFD4F8081A8
S1130CA090E0982F882731972081822B85359A4AA6
S1130CB009F045C0E55CF14080813197408150E006
S1130CC060E070E0BA0155274427782B3297808181
S1130CD0482B3196008110E0102F002720E030E0EF
S1130CE0402B512B622B732B772746345144644598
S1130CF0710539F17E9680813197408150E060E042
S1130D0070E0BA0155274427782B32978081482B0D
S1130D10CF57DF4F888190E0982F8827A0E0B0E07C
S1130D20482B592B6A2B7B2B772781E0463451447F
S1130D306445710539F480E005C083E003C082E0B6
S1130D4001C080E0DF91CF911F910F91089500972A
S1130D50C1F0DC01ED91FC9111973097A1F0208155
S1130D60222399F02681378112968D919C911397B5
S1130D702817390761F4818139DC80FF0AC083E0D8
S1130D80089589E0089589E0089589E0089589E047
S1130D90089580E008952F923F924F925F926F9250
S1130DA07F928F929F92AF92BF92CF92DF92EF92F7
S1130DB0FF920F931F93CF93DF93CDB7DEB76D9759
S1130DC00FB6F894DEBF0FBECDBF6C01CB01B42EBD
S1130DD0D6011D921C9277DE7C0199230CF4E1C2AA
S1130DE0FC01EE0FFF1FED5EFD4F00811181011527
S1130DF0110509F4D8C2F60111830083D8018C913E
S1130E00882361F011968C91F1DB80FD07C0BB2033
S1130E1009F4CBC282FDCBC280E017C3F801108273
S1130E20E1828E2DEADB80FDC4C2BB2011F082FD7D
S1130E30C2C240E050E0BA01C8011EDF813009F0AF
S1130E4052C0F801E051FE4F7E0121E1E20EF11C97
S1130E509E012F5F3F4FA12CB12CC12CD12C80813E
S1130E608823B1F04781868190E0A0E0B0E0DC0106
S1130E7099278827B42B4481842B458150E0542F33
S1130E80442760E070E0482B592B6A2B7B2B04C06D
S1130E904A2D5B2D6C2D7D2DD9014D935D936D9362
S1130EA07D939D017096AE15BF05C9F6FE0131967E
S1130EB06F016894BB24B1F8D6014D905D906D909C
S1130EC07D906D01411451046104710439F0B30142
S1130ED0A201C801D1DE811102C008C08B2DCE143D
S1130EE0DF0451F703C0412C512C3201833009F443
S1130EF064C2811164C2F80182AD90E0982F882702
S1130F0021AD822B8115924009F05BC2F801EB5BA5
S1130F10FF4FC080D12CDC2CCC2431978081C82A8F
S1130F20E12CF12CC114D104E104F104C9F471964B
S1130F3080813197C080D12CE12CF12C7601DD2405
S1130F40CC24F82A32978081C82A3196808190E097
S1130F50982F8827A0E0B0E0C82AD92AEA2AFB2AD9
S1130F60D8015696CD92DD92ED92FC925997DE9679
S1130F70AC91F801A3838FEF8A0F823008F023C26B
S1130F80F3ADF98B2F2FF8012283222309F41DC21C
S1130F90822F90E09C012150310982239323892BD5
S1130FA009F015C2E05CFF4F808190E0982F8827FC
S1130FB0F80127AD1C01222A31862086C1018F70D9
S1130FC09927892B09F005C2EE5BFF4F8080912C95
S1130FD0982C882431978081882AA12CB12C8114E3
S1130FE09104A104B104D1F470968081319780807A
S1130FF0912CA12CB12C540199248824B82A32971D
S11310008081882A3196808190E0982F8827AC01CE
S113101060E070E0842A952AA62AB72AF80185ADF3
S1131020E82FF0E03E2F2227F80184ADF901E82BE8
S1131030309709F4D0C1B0E0A70196010E94BC2BFF
S11310406A8F7B8F8C8F9D8F9F0140E050E02E8BA9
S11310503F8B488F598FC101929582958F70892754
S11310609F708927280F391F411D511DDA01C901BD
S11310702A8D3B8D4C8D5D8D280F391F4A1F5B1FB8
S11310802A8B3B8B4C8B5D8B82169306A406B5068C
S113109008F4A3C1C501B401621B730B840B950B47
S11310A0E9892E2F30E040E050E00E949A2BDA01CB
S11310B0C901211531054105510509F490C1263FA7
S11310C0FFE03F074105510518F461E0698B02C058
S11310D0E2E0E98B863F9F4FA105B10508F087C187
S11310E049015A0162E0860E911CA11CB11CD80171
S11310F052968D929D92AD92BC925597F801428E74
S1131100538E648E758E8E899F89A88DB98D840DBA
S1131110951DA61DB71D868F978FA0A3B1A34A89DD
S11311205B896C897D89440D551D661D771D46A319
S113113057A360A771A7F989F33061F5232809F053
S113114050C1F801E35AFF4F20813197808190E02C
S1131150A0E0B0E0DC0199278827B22B32972081E8
S1131160822B3196408150E0542F442760E070E098
S1131170842B952BA62BB72BF80182A393A3A4A3AE
S1131180B5A3880C991CAA1CBB1C880C991CAA1C0E
S1131190BB1C2DC0232809F426C12A8D3B8D4C8D00
S11311A05D8D820F931FA41FB51FF80182A393A323
S11311B0A4A3B5A3F989F23029F4880C991CAA1CBC
S11311C0BB1C15C0A3E0B0E0A50194010E94BC2B98
S11311D0DC01CB01B695A7959795879521E08222EE
S11311E09924AA24BB24880E991EAA1EBB1E3FEF75
S11311F0830E31E0931EA11CB11C072E79E0B69436
S1131200A794979487947A95D1F7702DC814D9042C
S1131210EA04FB0408F4E9C08FEF9FEFDC01F80156
S113122086879787A08BB18B82879387A487B5879E
S113123080E88583F989F33009F0A1C0F801E15A07
S1131240FF4F808190E0982F882731972081822B4F
S1131250019709F094C0B301A2014F5F5F4F6F4F34
S11312607F4FC801CDDC81118AC0D80115961C922C
S1131270F801E35DFD4F808190E0982F8827319736
S11312802081822B85359A4A09F079C0F80121A979
S113129080A990E0A0E0B0E0DC0199278827B22B78
S11312A026A5822B47A550E0542F442760E070E028
S11312B0842B952BA62BB72B82359245A146B1449E
S11312C009F05DC0F801EB5EFD4F2081319780810C
S11312D090E0A0E0B0E0DC0199278827B22B329798
S11312E02081822B3196408150E0542F442760E0C6
S11312F070E0842B952BA62BB72B82379247A14401
S1131300B146E9F5369620813197808190E0A0E0DE
S1131310B0E0DC0199278827B22B32972081822BF9
S11313203196408150E0542F442760E070E0842BD4
S1131330952BA62BB72BF80186879787A08BB18BAB
S1131340E35EFD4F20813197808190E0A0E0B0E022
S1131350DC0199278827B22B32972081822B319682
S1131360408150E0542F442760E070E0842B952B9B
S1131370A62BB72BF80182879387A487B587E989C1
S1131380D801EC93809111029091120201969093EE
S113139012028093110217969C938E93169780E005
S11313A054C08BE052C08CE050C080E04EC08AE054
S11313B04CC083E04AC08AE048C081E046C08DE06A
S11313C044C08DE042C08DE040C08DE03EC08DE061
S11313D03CC08DE03AC08DE038C08DE036C08DE071
S11313E034C08DE032C08DE030C08DE02EC04901A4
S11313F05A01F2E08F0E911CA11CB11CD801529627
S11314008D929D92AD92BC925597F801428E538E67
S1131410648E758E8E899F89A88DB98D840D951DD6
S1131420A61DB71D868F978FA0A3B1A38A899B8918
S1131430AC89BD89840D951DA61DB71D86A397A3F0
S1131440A0A7B1A7F3E0F98B79CE6D960FB6F89407
S1131450DEBF0FBECDBFDF91CF911F910F91FF90E3
S1131460EF90DF90CF90BF90AF909F908F907F9040
S11314706F905F904F903F902F900895EF92FF925E
S11314800F931F93CF93DF93EC0151DB982F8111BE
S11314905FC08881833009F052C08D81813009F0AA
S11314A04EC040E052E060E070E07E018EE2E80E63
S11314B0F11CC701DCDA85E5FE01E45DFD4F8083A4
S11314C08AEA3196808382E58EA78FA781E688AB6E
S11314D091E499AB22E77B97208331962083319660
S11314E09083319680833E852F85988989893196AA
S11314F030833196208331969083319680833A8568
S11315002B859C858D853196308331962083319649
S11315109083319680838A8D9B8DAC8DBD8D9C018B
S1131520AD012F5F3F4F4F4F5F4F2AA73BA74CA7FB
S11315305DA701E010E0B70189816CD91D8240E00C
S113154050E060E08981CAD991E0811101C090E046
S1131550892FDF91CF911F910F91FF90EF90089504
S1131560CF92DF92EF92FF92FC019A01AB012250DD
S1131570310941095109C288D388E488F58882E099
S1131580C81AD108E108F1082C153D054E055F0580
S113159068F4A281B0E00E94BC2BC6A0D7A0E0A44E
S11315A0F1A46C0D7D1D8E1D9F1D03C060E070E0D5
S11315B0CB01FF90EF90DF90CF900895AF92BF9250
S11315C0CF92DF92EF92FF920F931F93CF93DF930B
S11315D0EC016A017B01423051056105710508F493
S11315E0C5C04A895B896C897D89C416D506E6061F
S11315F0F70608F0C0C08881823009F44BC08330FC
S113160009F46FC0813009F0BBC0860116950795B7
S11316100C0D1D1DC801892F992786954E8D5F8D50
S113162068A179A1480F591F611D711DCE01E8DA27
S11316308111ABC058018FEFA81AB80A1170FE01CE
S1131640E00FF11F16A5C501892F992786954E8DA8
S11316505F8D68A179A1480F591F611D711DCE01CD
S1131660CFDA811196C081E0B822CA0DDB1D8EA5A8
S1131670612F70E0782BC0FE09C0729562956F707F
S113168067277F70672780E090E08EC07F7080E0DE
S113169090E08AC077276F2D5E2D4D2D0E8D1F8D06
S11316A028A139A1400F511F621F731FCE01A8DA70
S11316B0811173C0CC0CDD1CEE1CFF1CE894C0F837
S11316C081E0D822EE24FF24FE01EC0DFD1D66A569
S11316D0FE01EC0DFD1D87A570E0782B80E090E005
S11316E063C04E8D5F8D68A179A1970186016894CE
S11316F016F836952795179507951694D1F7400F48
S1131700511F621F731FCE017BDA81114AC0CC0CBA
S1131710DD1CEE1CFF1CCC0CDD1CEE1CFF1C8CEF36
S1131720C82281E0D822EE24FF24F601BE96EC0FF5
S1131730FD1F8281438150E060E070E0742F6627D2
S113174055274427682B818190E0982F8827A0E0B3
S1131750B0E0842B952BA62BB72BFE01EC0DFD1DC1
S113176026A5822BBC01CD019F701EC061E070E0F4
S113177080E090E019C061E070E080E090E014C087
S113178061E070E080E090E00FC06FEF7FEFCB018D
S11317900BC06FEF7FEFCB0107C06FEF7FEFCB0183
S11317A003C06FEF7FEFCB01DF91CF911F910F91BA
S11317B0FF90EF90DF90CF90BF90AF900895AF92DD
S11317C0BF92CF92DF92EF92FF920F931F93CF932A
S11317D0DF93EC018B017D836C83CE80DF80E88412
S11317E0F98481E0C816D104E104F10409F48AC043
S11317F0E881F98182899389A489B589C816D906B3
S1131800EA06FB0608F080C0C114D104E104F10427
S1131810C1F48081833041F482A193A1A4A1B5A134
S11318200097A105B10559F480859185081719071A
S113183008F06CC062A173A184A195A135C06C01AC
S11318407D01A28080E1A89E500111240A151B0588
S113185030F1B701A60188819981B0DE6B017C016A
S11318608FEFC816D806E806F80609F451C082E0DE
S1131870C816D104E104F10408F44CC0E881F981EC
S113188082899389A489B589C816D906EA06FB0614
S113189008F042C00A191B090A151B05D0F6B70146
S11318A0A601888199815CDECA86DB86EC86FD868A
S11318B0611571058105910589F19801329522958B
S11318C02F7023273F702327DC01CB01820F931F46
S11318D0A11DB11D8E879F87A88BB98B0F7011270F
S11318E0C801880F991F82959295907F9827807FD1
S11318F098278E9628813981820F931F9B8B8A8B20
S113190080E00DC082E00BC082E009C082E007C025
S113191081E005C082E003C082E001C082E0DF9183
S1131920CF911F910F91FF90EF90DF90CF90BF90D8
S1131930AF9008954F925F926F927F928F929F9291
S1131940AF92BF92CF92DF92EF92FF920F931F93C9
S1131950CF93DF93EC016A017B0128013901423006
S113196051056105710508F4DDC08A899B89AC893C
S1131970BD89481759076A077B0708F0D5C08881D5
S1131980823009F469C0833009F48BC0813009F0D6
S1131990CDC05A01B694A794A40EB51EC501892FD3
S11319A0992786954E8D5F8D68A179A1480F591F9F
S11319B0611D711DCE0124D98111B9C085010F5F4C
S11319C01F4FC50191704601570151E085229924AA
S11319D0AA24BB24C0FE0BC0FE01E80FF91F46A5D4
S11319E04F7050E1459E90011124242B01C0242DF9
S11319F0FE01E80FF91F26A781E08C834E8D5F8DD1
S1131A0068A179A1C801892F99278695480F591F84
S1131A10611D711DCE01F4D8811189C0117089280E
S1131A208A288B2849F0689413F87694679457941D
S1131A3047941694D1F709C0FE01E00FF11F26A5C3
S1131A40207F952D9F70422E492AFE01E00FF11F41
S1131A5046A691E09C836BC0452F562F672F7727AE
S1131A608E8D9F8DA8A1B9A1480F591F6A1F7B1F96
S1131A70CE01C6D881115BC0CC0CDD1CEE1CFF1C52
S1131A80E894C0F891E0D922EE24FF24FE01EC0D85
S1131A90FD1D46A6FE01EC0DFD1D57A691E09C839D
S1131AA046C08E8D9F8DA8A1B9A1689416F876952D
S1131AB06795579547951694D1F7480F591F6A1F94
S1131AC07B1FCE019DD8811132C0CC0CDD1CEE1CD5
S1131AD0FF1CCC0CDD1CEE1CFF1C2CEFC22221E0F1
S1131AE0D222EE24FF24F601BE96EC0FFD1F4381A3
S1131AF050E060E070E0742F662755274427DE012C
S1131B00AC0DBD1D442755276627707F442A552AEE
S1131B10662A772A9E964C9251826282738291E061
S1131B209C8305C082E003C082E001C082E0DF91B3
S1131B30CF911F910F91FF90EF90DF90CF90BF90C6
S1131B40AF909F908F907F906F905F904F9008958B
S1131B502F923F924F925F926F927F928F929F92B9
S1131B60AF92BF92CF92DF92EF92FF920F931F93A7
S1131B70CF93DF93EC012A013B0141155105610527
S1131B80710599F48A849B84AC84BD848114910486
S1131B90A104B10429F18A899B89AC89BD8988167D
S1131BA09906AA06BB0608F524C008DD6230710553
S1131BB08105910508F49BC06F3F2FEF72078207E0
S1131BC0920709F499C00A891B892C893D896017F9
S1131BD071078207930708F493C05301420109C0B7
S1131BE0812C912C5401839404C0812C912C540198
S1131BF08394750164016894222421F8312C00E057
S1131C0010E08FEFC81AD80AE80AF80A8A899B8973
S1131C10AC89BD89C816D906EA06FB0658F022E04D
S1131C2082169104A104B10408F46EC0C22CD32C12
S1131C30E02EF12EB701A601CE01C0DC61157105BD
S1131C408105910599F06F3F2FEF72078207920784
S1131C5009F45FC0613071058105910509F45DC027
S1131C60C814D904EA04FB0461F65BC08C2C9D2CD7
S1131C70AE2CBF2C0FEF1FEF2FEF3FE0B701A601F3
S1131C80CE0158DE81112CC0411451046104710449
S1131C9051F00C2D1D2D2E2D3F2DB301A201CE018F
S1131CA049DE81111DC08A869B86AC86BD868E85E1
S1131CB09F85A889B9898F3F2FEF9207A207B207A2
S1131CC0A9F10197A109B1098E879F87A88BB98BC8
S1131CD08D8181608D834C2D3D2D2E2D9F2D2FC008
S1131CE0813049F54FEF3FEF2FEF9FEF28C041E0E0
S1131CF030E020E090E023C0462F372F282F1FC06C
S1131D00462F372F282F1BC040E030E020E090E022
S1131D1016C0462F372F282F12C0462F372F282FB3
S1131D200EC040E030E020E090E009C04C2D3D2D95
S1131D302E2D9F2D04C041E030E020E090E0642F80
S1131D40732F822FDF91CF911F910F91FF90EF900E
S1131D50DF90CF90BF90AF909F908F907F906F90C7
S1131D605F904F903F902F9008957F928F929F9213
S1131D70AF92BF92CF92DF92EF92FF920F931F9395
S1131D80CF93DF93EC017B010C811D810F5F1F4F0B
S1131D900115110509F4E4C08E859F85A889B989C8
S1131DA00097A105B10509F4DDC068012FE0C22246
S1131DB0DD24C114D10409F0BCC00196A11DB11DDC
S1131DC08E879F87A88BB98B4A855B856C857D85BB
S1131DD0411551056105710549F4E881F981808552
S1131DE091850817190708F0BFC0A3C0E881F981DD
S1131DF0828190E001979801329522952F702327D4
S1131E003F70232782239323892B09F092C0CF01AB
S1131E10D5DB4B015C0182E088169104A104B10476
S1131E2008F4A4C0EFEF8E169E06AE06BE0609F4B3
S1131E309FC0E881F98182899389A489B58988162C
S1131E409906AA06BB0608F467C0EF2809F492C0F5
S1131E504A855B856C857D85CF017ADE4B015C010B
S1131E60611571058105910509F486C0613071051C
S1131E708105910509F482C06F3F2FEF7207820735
S1131E80920709F47DC0888199810E949705811188
S1131E9079C08881998140E052E060E070E08E96DC
S1131EA00E943705E880F980B501A401C70158DB19
S1131EB0F70162A773A784A795A7E12CF12C7724D7
S1131EC0739417C07482888199810E949705811147
S1131ED05BC0E881F98182A593A5A4A5B5A5019667
S1131EE0A11DB11D82A793A7A4A7B5A7FFEFEF1A61
S1131EF0FF0AE881F981828190E0E816F90610F37F
S1131F0082A593A5A4A5B5A58E199F09A109B10918
S1131F1082A793A7A4A7B5A78A869B86AC86BD860D
S1131F20B501A401888199811BDB6E877F87888B2B
S1131F30998B1D830C83CC0CDD1CCC0CDD1CCC0CD0
S1131F40DD1CCC0CDD1CCC0CDD1C2EE2C20ED11C25
S1131F5088819981C80ED91EDB8ACA8A80E015C09F
S1131F6084E013C084E011C084E00FC082E00DC09F
S1131F7081E00BC084E009C087E007C082E005C0AF
S1131F8081E003C081E001C081E0DF91CF911F9126
S1131F900F91FF90EF90DF90CF90BF90AF909F9004
S1131FA08F907F9008952F923F924F925F926F92FD
S1131FB07F928F929F92AF92BF92CF92DF92EF92D5
S1131FC0FF920F931F93CF93DF9300D000D0CDB730
S1131FD0DEB77C018B01DB018C918F3211F08C35E3
S1131FE011F40F5F1F4FF7011682178210861186B6
S1131FF0D8018C91803240F460E070E0C701DFDBEF
S1132000F701138A128A4DC10F2EFBE06F2EF02DBB
S1132010512CC12CD12C6894882483F8712CB12CB8
S11320207982A52C17018A82462CF8018F018191AF
S11320308F32E1F38C35D1F3D1015496ED90FC90BD
S11320405597462D552D60E270E0C7010E94370573
S11320508C2D9D2D4C2D5D2D282D372D9B2C3C82B8
S11320602B82BA016F5F7F4FF801E40FF51FA08147
S1132070A13208F4F3C0AF3209F4F7C0AC3509F467
S1132080F4C0AE3209F4DEC08217930708F0C8C06A
S113209008C0990C990CAB018A819981242D3A2DA1
S11320A0E0CFAA231CF4B92DB3609B2EEFE7EA0F0F
S11320B0EF3120F0E0E2EA0FED3108F54E5F5F4FBB
S11320C0F801E60FF71FB08160EC6B0F6F3328F057
S11320D060E86B0F6D3708F0A5C0B9016150710954
S11320E08617970708F0A0C0F701E80FF91FA0832F
S11320F0FC013196EE0DFF1D0296B083B2CF2A2E5D
S1132100312CE2E22E16310409F490C0EDE5F1E041
S1132110A9012191222309F49AC030E02216330642
S1132120C1F786C0492D4260942E08C04FE94A0F7A
S11321304A3120F4592D5160952EA052F701E80F31
S1132140F91FA0830196AB018CCF892B09F472C0CF
S1132150D7018C91853E11F4E5E0EC9328303105EC
S113216019F4952E990C990C892D8370813009F4FA
S11321704061892D8C70843009F44860D7011B9626
S11321804C936C2D7D2DC1011ADB811175C0710139
S1132190F7014685578560897189808191810E9404
S11321A0000681116AC0D70152966D917C915397B4
S11321B0FB019081992309F469C0938593FD13C0B1
S11321C054964D915C915597DA019B01255F3F4FE1
S11321D0170104C0E217F30709F45FC0F1909D9161
S11321E0F916C1F371016C2D7D2DC701BEDD882365
S11321F079F243C092FF20C084E053C0DB011B96F8
S11322008C9184FF1BC0F101808191810E94420561
S1132210D10116966D937D938D939C93199705CF59
S113222086E03FC086E03DC086E03BC086E039C022
S113223086E037C086E035C085E033C085E031C034
S113224086E02FC02830310509F423CFF9CF9A0155
S11322504FEB4A0F4A3108F465CF68CF2B803C809E
S1132260060F171F592D44E070CF2B803C80060FBA
S1132270171F592D4B2D69CF7101D7015496ED913C
S1132280FC9155979385843061F4B4CFD70154966B
S1132290ED91FC9155979385ADCFFA01938592FF0B
S11322A0ADCF0F900F900F900F90DF91CF911F91B2
S11322B00F91FF90EF90DF90CF90BF90AF909F90E1
S11322C08F907F906F905F904F903F902F900895E4
S11322D01F93CF93DF93EC0160E070E070DA182F66
S11322E0811119C04E855F856889798988819981B2
S11322F00E940006182F81110EC0EA89FB89808193
S1132300853E69F0882359F061E070E0CE012DDD4F
S1132310182F882339F3143011F1111121C04E857F
S11323205F8568897989888199810E940006182FC0
S1132330811116C040E250E060E070E08A899B8918
S11323400E9437056C897D894BE050E08A899B891E
S11323500E942905E881F98181E0848301C017E0A6
S1132360812FDF91CF911F9108958F929F92AF9209
S1132370BF92CF92DF92EF92FF920F931F93CF936E
S1132380DF93EC014A015B0142305105610571059F
S113239008F44BC04A895B896C897D89841695064B
S11323A0A606B70608F043C0B501A401CE0106D9BC
S11323B06B017C016115710581059105D1F191E0F5
S11323C0C916D104E104F104B1F18FEFC816D8069F
S11323D0E806F80691F100E010E09801B501A401C7
S11323E0CE01A8DA81112AC04E855F856889798972
S11323F04F3F9FEF59076907790759F04F5F5F4FC8
S11324006F4F7F4F4E875F87688B798B9D8191607B
S11324109D834A895B896C897D89C416D506E60645
S1132420F70660F446015701BFCF82E007C082E09F
S113243005C080E003C082E001C081E0DF91CF915C
S11324401F910F91FF90EF90DF90CF90BF90AF90CE
S11324509F908F9008951F93CF93DF9300D000D067
S113246000D0CDB7DEB79C838B837E836D83142F1E
S11324707A836983CE0101960E946305992334F11E
S1132480FC01EE0FFF1FED5EFD4F0190F081E02D8A
S1132490309709F01082EB81FC813097E9F01082CB
S11324A02B813C81FC01EE0FFF1FED5EFD4F31835C
S11324B02083232B69F0113069F440E0BE016B5F87
S11324C07F4FCE0103960E94CB060EC08BE00CC05A
S11324D080E00AC080E008C0FC01EE0FFF1FED5E43
S11324E0FD4F1182108280E026960FB6F894DEBF6D
S11324F00FBECDBFDF91CF911F9108954F925F9290
S11325006F927F92BF92CF92DF92EF92FF920F93DE
S11325101F93CF93DF93CDB7DEB7A8970FB6F89488
S1132520DEBF0FBECDBF8C017CA36BA3F42E00973E
S113253009F4E5C0DC011D921C924E71BE016D5D73
S11325407F4FCE0101960E94CB068111ECC0BF2DB6
S1132550BF71BB2ECE0147969E8B8D8B6BA17CA148
S1132560469721DDCB88DC888111D1C0C114D10408
S113257009F0C7C0CBC0882371F0843009F0D3C000
S1132580CE010196A5DEEB2DE860BE2ECB88DC885B
S1132590882349F0C8C0D6011B968C91817109F03B
S11325A0BBC0F2FCBBC0B3FE56C0F601168617864C
S11325B089E6808B8DEB818B1386148E158E168E97
S11325C0178EE980FA80B601C7010E9442052B01EB
S11325D03C01D6015A961C925A975B961C925B97C3
S11325E054961C92549755961C9281E0F70184836B
S11325F0411451046104710471F182A593A5A4A549
S1132600B5A58DA39EA3AFA3B8A7B301A201C7012B
S1132610ACDE811188C089819A81B301A201415045
S1132620510961097109FC014287538764877587E1
S11326304DA15EA16FA178A50E9400060AC0D60133
S11326401B968C9184FD6CC0F1FE05C080FD6AC0B0
S113265002C0811168C0B3FE03C0BB2DB062BB2EA3
S1132660E980FA80F70182A593A5A4A5B5A5F80190
S1132670828F938FA48FB58FD78EC68EB482158226
S1132680B601C7010E944205D8011E966D937D9341
S11326908D939C935197F601878D468D50E060E0B1
S11326A070E0BA0155274427782B848D482B858DFB
S11326B090E0982F8827A0E0B0E0482B592B6A2B94
S11326C07B2BD8011A964D935D936D937C931D9744
S11326D0F801168217821086118656961D921D9255
S11326E01D921C9259971196FC92EE92F7018681E5
S11326F0978113969C938E93129780E014C089E07F
S113270012C08F2D8C7109F046CF99CF86E09F2D92
S11327109C7109F030CF9DCF87E005C088E003C0ED
S113272084E001C087E0A8960FB6F894DEBF0FBE20
S1132730CDBFDF91CF911F910F91FF90EF90DF906C
S1132740CF90BF907F906F905F904F9008952F929D
S11327503F924F925F926F927F928F929F92AF922D
S1132760BF92CF92DF92EF92FF920F931F93CF937A
S1132770DF9300D000D01F92CDB7DEB79D838C834A
S11327805B017A016901D9011D921C920E94A7067E
S11327908111B4C1EC81FD8185818111AFC1848136
S11327A081FFABC186819781A085B185AC01BD0154
S11327B04E0D5F1D611D711D481759076A077B0780
S11327C008F47EC1E114F10409F47AC1B096FB83E4
S11327D0EA83EC81FD8186819781A085B185AC0176
S11327E0BD01517066277727452B462B472B09F0EF
S11327F029C180809180F40122812150AC01BD0166
S1132800032E39E076956795579547953A95D1F714
S1132810302D24232983211152C0892B8A2B8B2B01
S113282099F4AC81BD811E966D917D918D919C91A1
S113283051976115710581059105A1F440E050E0BF
S1132840BA01C40185D908C0EC81FD81428953894C
S113285064897589C4017CD9611571058105910567
S113286009F42EC1613071058105910531F482E0CE
S1132870AC81BD8115968C9341C16F3FBFEF7B073F
S11328808B079B0729F481E0EC81FD81858336C1A8
S1132890AC81BD8152966D937D938D939C93559796
S11328A01E964D905D906D907C90519745284628DA
S11328B0472829F4FD0166877787808B918BAC814B
S11328C0BD8114968C91149786FF1EC056962D9147
S11328D03D914D915C915997ED91FC9101E010E08F
S11328E06A817B8181810E940A04882329F081E026
S11328F0EC81FD81858302C1AC81BD8114968C91EC
S113290014978F7B14968C93EC81FD812080318009
S11329104289538964897589C1010E94B00A61158D
S113292071058105910531F482E0AC81BD81159674
S11329308C93E4C02B013C01B9814B0E511C611CEA
S1132940711C4701892C992486948114910409F4FB
S113295047C0F1014281242F30E0C4018B0F911D47
S11329602817390718F449018B1A91088401A30127
S11329709201B501D10111968C910E940A04882319
S113298029F081E0EC81FD818583B8C0EC81FD8173
S113299086899789A08DB18D84199509A609B709EF
S11329A0A40160E070E084179507A607B707A0F4B8
S11329B0982F8827990FB501680F791F40E052E0DE
S11329C08A819B810E942905AC81BD8114968C91DA
S11329D014978F7B14968C93982C8824990C54C04C
S11329E0EC81FD8186899789A08DB18D841595052B
S11329F0A605B705F9F04681578160857185828502
S1132A009385A485B585481759076A077B0790F411
S1132A1001E010E0A30192016A817B81D10111964A
S1132A208C910E94BC03882329F081E0EC81FD8114
S1132A30858364C0AC81BD8156964D925D926D9242
S1132A407C925997EC81FD8186819781A085B1851F
S1132A509C01317040E052E0421B530B47014E157C
S1132A605F0508F44A019170AA27BB278096A40148
S1132A70B501AC81BD818A0F9B1F0E942905EC81A1
S1132A80FD81848180648483A80CB91CEC81FD8160
S1132A9086819781A085B185880D991DA11DB11DE1
S1132AA086839783A087B187D6018D919C911197D6
S1132AB0880D991D8D939C93E818F90809F089CE27
S1132AC0EC81FD8186819781A085B18542855385FE
S1132AD064857585481759076A077B0720F4828740
S1132AE09387A487B587AC81BD8114968C91149784
S1132AF0806214968C9380E001C087E00F900F9061
S1132B000F900F900F90DF91CF911F910F91FF9035
S1132B10EF90DF90CF90BF90AF909F908F907F9079
S1132B206F905F904F903F902F9008950F931F9355
S1132B30CF93DF93EC010E94A706811151C08C81D1
S1132B4085FF4BC086FF13C02E893F89488D598D60
S1132B50E881F98101E010E0BE01605E7F4F818170
S1132B600E940A0481113BC08C818F7B8C834A8D27
S1132B705B8D6C8D7D8D888199810E940006811109
S1132B802FC0EE8DFF8D8385806283878A85848F35
S1132B908B85858F8C85868F8D85878F4E855F8508
S1132BA068897989428F538FAB0166277727448BD5
S1132BB0558B168A178A89E6808F8DEB818F128A4E
S1132BC0138A8C818F7D8C83E881F98181E08483F1
S1132BD0888199810E943E0A03C080E001C081E09F
S1132BE0DF91CF911F910F910895CF93DF93EC0163
S1132BF09DDF811107C0CE010E94A706811102C08A
S1132C0019821882DF91CF9108952F923F924F92AB
S1132C105F926F927F928F929F92AF92BF92CF9268
S1132C20DF92EF92FF920F931F93CF93DF9300D025
S1132C3000D0CDB7DEB71C016A017B010E94A70654
S1132C408111BDC1D10115968C9115978111B7C120
S1132C501A968D919D910D90BC91A02D8C159D057A
S1132C60AE05BF0530F4F101248121FD02C06C01E1
S1132C707D01D10116964D905D906D907C901997D1
S1132C80F1011682178210861186C114D104E10461
S1132C90F10409F491C100811181D80112968C903C
S1132CA0912CA12CB12C072E79E0880C991CAA1C1C
S1132CB0BB1C7A95D1F7702D411451046104710441
S1132CC009F43FC0B1E04B1A510861087108C7010B
S1132CD0B6016150710981099109A50194010E940D
S1132CE09A2B29833A834B835C83C301B201A501E8
S1132CF094010E949A2B89819A81AB81BC818217AD
S1132D009307A407B507E8F088279927DC018819F9
S1132D109909AA09BB09482259226A227B22D101B6
S1132D2016964D925D926D927C921997C418D508AF
S1132D30E608F70852966D917D918D919C91559777
S1132D4030C0F101668577858089918961157105A7
S1132D508105910509F540E050E0BA01C8010E94DF
S1132D60A80D613071058105910529F482E0D10136
S1132D7015968C9324C16F3FBFEF7B078B079B078E
S1132D8021F481E0F10185831AC1D1011E966D936E
S1132D907D938D939C935197F101628B738B848BFC
S1132DA0958B611571058105910509F49FC08C14FB
S1132DB09D04AE04BF0408F062C0AB01BC01D101A4
S1132DC014962C91149721FF0CC08D919C910E9414
S1132DD0A80DAB01BC01411551056105710541F414
S1132DE04AC0F101808191810E94DE0AAB01BC01DD
S1132DF04F3FFFEF5F076F077F0729F481E0D101A1
S1132E0015968C93DCC0423051056105710560F064
S1132E10D101ED91FC9102891389248935894017E8
S1132E2051076207730720F082E0F1018583C7C070
S1132E30D10152964D935D936D937C93559716965D
S1132E400D911D912D913C911997080D191D2A1D65
S1132E503B1DF1010683178320873187C818D908E1
S1132E60EA08FB088C149D04AE04BF0408F4A7CF41
S1132E70CB01BA0104C0CB01BA0175016401D101CF
S1132E8016960D911D912D913C9119970C0D1D1DB8
S1132E902E1D3F1DF101068317832087318797017B
S1132EA08601117022273327012B022B032B11F1EA
S1132EB0AB01BC01808191810E94B00A611571054A
S1132EC08105910529F482E0D10115968C9377C090
S1132ED00B2EB9E0F694E794D794C794BA95D1F73A
S1132EE0B02DC60ED71EE81EF91E07C0C12CD12C6A
S1132EF0760103C0C12CD12C7601F1018681978122
S1132F00A085B1859170AA27BB27892B8A2B8B2B8F
S1132F10E1F126893789408D518D2C153D054E05EB
S1132F205F0599F1848186FF16C00190F081E02D40
S1132F3001E010E0B101605E7F4F81810E940A04CC
S1132F40882329F081E0D10115968C9338C0F101D2
S1132F5084818F7B8483D101ED91FC9101E010E0A9
S1132F60A7019601B101605E7F4F81810E94BC037D
S1132F70882321F081E0F101858321C0D101569697
S1132F80CD92DD92ED92FC925997F1018681978161
S1132F90A085B18542855385648575854817590791
S1132FA06A077B0758F482879387A487B58784814F
S1132FB08062848380E003C080E001C080E00F90E1
S1132FC00F900F900F90DF91CF911F910F91FF9071
S1132FD0EF90DF90CF90BF90AF909F908F907F90B5
S1132FE06F905F904F903F902F9008952F923F9253
S1132FF04F925F926F927F928F929F92AF92BF9205
S1133000CF92DF92EF92FF920F931F93CF93DF93B0
S1133010CDB7DEB7A6970FB6F894DEBF0FBECDBF0F
S11330209A878987162F7A01623008F0AEC4CE01E0
S113303009960E9463055C0199230CF4A8C4FC0161
S1133040EE0FFF1FED5EFD4F80809180811491048F
S113305009F49FC4D4011C928F870E94FD0280FD55
S11330609AC482FD9AC4AE014B5F5F4F61E08A2D22
S11330700E946E04811193C44D805E806F807884B9
S1133080B0E84B1651046104710408F48AC4112396
S113309029F0188E198E1A8E1B8E08C02FE330E08B
S11330A040E050E0288F398F4A8F5B8F888D998D4F
S11330B0AA8DBB8D481A590A6A0A7B0A4D825E8220
S11330C06F827886C70101978E219F21892B19F47D
S11330D0E114F10451F5C301B20120ED37E040E001
S11330E050E00E949A2B211594E0390741055105BF
S11330F098F4E7EBF1E080E090E069017A01A12F18
S113310001964191519160E070E0C416D506E6063F
S1133110F706B0F31A2F02C080E090E0880F991FE1
S1133120FC01E156FE4FE080F180E114A2E0FA06D2
S113313020F08F2D8695E82EF12CE114F10419F47A
S1133140EE24E394F12CFE8EED8EF701E138F105C7
S113315020F020E830E03E8F2D8F4D8D5E8D6A018A
S1133160E12CF12CC301B201A70196010E949A2B14
S1133170263F6FE036074105510508F02EC425C4EB
S1133180DA01C901880F991FAA1FBB1F880F991F55
S1133190AA1FBB1F895F9D4FAF4FBF4F9C01AD015D
S11331A0012E19E056954795379527951A95D1F72D
S11331B0102D2C8B3D8B4E8B5F8B33E03C8F1F8E01
S11331C018A219A21AA280E290E0A0E0B0E08B87D6
S11331D09C87AD87BE8741C0A3E0B0E00E94BC2BB2
S11331E0DC01CB010196A11DB11DB695A79597955C
S11331F087950396A11DB11DE1E0EC8F0BC0DA01A8
S1133200C9010296A11DB11D880F991FAA1FBB1FDA
S1133210F2E0FC8F81509E4FAF4FBF4F9C01AD0138
S1133220012E19E056954795379527951A95D1F7AC
S1133230102D2C8B3D8B4E8B5F8B80E290E0A0E0B9
S1133240B0E08F8F98A3A9A3BAA321E030E040E0B7
S113325050E02B873C874D875E878B859C85AD85A9
S1133260BE85288D398D4A8D5B8D820F931FA41FD7
S1133270B51F8BA39CA3ADA3BEA38F8D98A1A9A1B9
S1133280BAA12C893D894E895F89820F931FA41F9F
S1133290B51F2BA13CA14DA15EA1280F391F4A1FC8
S11332A05B1F288B398B4A8B5B8BD701C601288D1A
S11332B0398D4A8D5B8D821B930BA40BB50B28892A
S11332C039894A895B89820F931FA41FB51F481649
S11332D059066A067B0608F466C3AE014F5F5F4F6A
S11332E063E08A2D0E946E0481110CC089819A8149
S11332F0AB81BC810197A109B10981159048A10551
S1133300B10540F081E090E0A0E0B0E089839A83C9
S1133310AB83BC8349815A816B817C81DB01CA0107
S11333200197A109B109488859886A887B88480EA1
S1133330591E6A1E7B1E88279927DC01841B950B66
S1133340A60BB70B84219521A621B721488859885B
S11333506A887B8884199509A609B70989839A83A1
S1133360AB83BC832C8D233009F046C04B845C8432
S11333706D847E84480E591E6A1E7B1E4B865C86B5
S11333806D867E864BA05CA06DA07EA0480E591E63
S11333906A1E7B1E4BA25CA26DA27EA28D819E81C1
S11333A0AF81B8854B845C846D847E8484199509CF
S11333B0A609B7094C885D886E887F8884199509A9
S11333C0A609B709BC01CD014F8C58A069A07AA009
S11333D06419750986099709A70196010E949A2B19
S11333E069017A0126EFC2162FEFD206E104F10437
S11333F008F4DBC20CE054C04C885D886E887F887A
S1133400480E591E6A1E7B1E4C8A5D8A6E8A7F8A0C
S11334104D805E806F807884D301C2012B853C850A
S11334204D855E85821B930BA40BB50B2C893D89BE
S11334304E895F89821B930BA40BB50BBC01CD0194
S11334402F8D38A149A15AA1621B730B840B950BD4
S1133450A70196010E949A2B69017A013C8D3230B2
S113346049F446EFC4164FE0D406E104F10408F42D
S11334709EC20BC05C8D513041F44114510461E093
S11334806606710450F006E00BC04114510481E05B
S11334906806710420F006E003C001E001C004E006
S11334A0111167C040E052E060E070E014019EE258
S11334B0290E311CC1010E94370581E0F401E3515A
S11334C0FE4F80833196808331961082319600833B
S11334D08EEF319680834D805E806F807884688D16
S11334E0798D8A8D9B8D640D751D861D971D21EC2C
S11334F03EE340E050E00E949A2B29833A834B83B9
S11335005C83F401EE50FE4FDA01C901B695A7952C
S113351097958795B695A795979587958F6380839B
S1133520319620838FE331968083319610823196D1
S113353010823196108231964082319650823196B3
S113354060823196708285E5F19680838AEA3196AD
S1133550808301E010E020E030E0A901B1018A2D70
S11335600E940A04811125C20F2EF8EF7F2EF02D40
S113357004C00F2EF0EF7F2EF02D1401AEE22A0EC0
S1133580311C40E052E060E070E0C1010E94370568
S11335904BE050E06BE671E0C1010E942905F401A3
S11335A011AE82E082AF4D8C43AE5B8454AE6C842A
S11335B065AE81E086AF2C8D233011F480E001C02C
S11335C082E0D401DF961C92F401E05CFF4F80831B
S11335D08D819E81AF81B8850097E1E0AE07B1058A
S11335E038F4F401EF5BFF4F8083319690830AC077
S11335F0F401E25BFF4F8083319690833196A08380
S11336003196B083F401ED5BFF4F70828FE3339604
S11336108083319610828FEF3196808331961082A9
S11336203196488C408231961082319610823196C0
S1133630108280E090E0A9E6BDEB89839A83AB8396
S1133640BC832C8D233009F04DC0B4961082319682
S1133650108289E6319680838DEB31968083B29710
S11336603C89308331964D89408331965E895083FD
S113367031966F89608382E035968083319610821B
S1133680319610823196108281E031968083319692
S1133690108286E0319680833196108280E83D96D0
S11336A0808389E23296808343E150E067E771E0EA
S11336B0C4018B589F4F0E94290585E5F401E45D00
S11336C0FD4F80838AEA3196808301E010E0288DE3
S11336D0398D4A8D5B8DB1018A2D0E940A0488239D
S11336E0C1F169C1F401EB5AFF4F10823196108287
S11336F089E6319680838DEB3196808374978C892B
S1133700808331969D89908380E83D96808389E209
S11337103296808343E150E06BE871E0C401875A3C
S11337209F4F0E94290585E5F401E45DFD4F8083E8
S11337308AEA3196808301E010E0288D398D4A8D24
S11337405B8DB1018A2D0E940A04882309F44DC1BE
S113375034C101E010E0288D398D4A8D5B8D2A5FDC
S11337603F4F4F4F5F4FB1018A2D0E940A0440E042
S113377052E060E070E0C1010E943705872D90E0BF
S1133780A0E0B0E09F6FAF6FBF6F89839A83AB8374
S1133790BC83F40186A78FEF87A780AB81AB82AB94
S11337A083AB84AB85AB86AB87AB80AF8FE081AF57
S11337B012C080E09FEFAFEFB0E0842B952BA62BD7
S11337C0B72B89839A83AB83BC83F40186A72FEF3D
S11337D027A720ABB1AB4BA05CA06DA07EA0FFEFF0
S11337E04F1A5F0A6F0A7F0A01E010E02BA13CA187
S11337F04DA15EA1B1018A2D0E940A048111DFC08E
S113380040E052E060E070E0C1010E94370581E0D1
S113381090E0A0E0B0E089839A83AB83BC83A301EA
S113382092011CC029013A016FEF461A560A660A32
S1133830760A01E010E0B1018F850E940A0481112B
S1133840C0C089819A81AB81BC810196A11DB11D43
S113385089839A83AB83BC83A301920189819A8172
S1133860AB81BC814C885D886E887F888415950502
S1133870A605B705B8F229013A012C8D233039F099
S11338804F8D58A15E8F4D8FA301920102C0A301F9
S1133890920129013A016FEF461A560A660A760A1E
S11338A001E010E0B1018F850E940A0481118BC0F0
S11338B08D8D9E8D01979E8F8D8F892B19F0A3017D
S11338C09201E7CF9C8D933009F054C082E5D40176
S11338D09E968C939E979F968C939F9781E6D09605
S11338E08C93D09791E4D1969C93F401EE5EFD4FB6
S11338F022E720833196208331969083319680830A
S113390031968FEF8C0D80833196C6010197908399
S1133910B1E0CB1AD108E108F1083196E082319682
S1133920F082319682E08083319610823196108243
S1133930319610823F9685E5808331968AEA8083AA
S1133940288D398D4A8D5B8D2F5F3F4F4F4F5F4FD1
S113395001E010E0B1018A2D0E940A04288D398DFE
S11339604A8D5B8D295F3F4F4F4F5F4FB1018A2DC9
S11339700E940A0440E050E060E08A2D0E946E0438
S113398091E0811146C090E044C093E142C09BE0C5
S113399040C09CE03EC093E03CC09AE03AC091E055
S11339A038C091E036C09EE034C09EE032C09EE054
S11339B030C091E02EC091E02CC091E02AC091E08B
S11339C028C091E026C091E024C0263FEFEF3E07D7
S11339D04105510508F0D4CBFFCB263FFFEF3F074D
S11339E04105510508F0CCCB0ACC40E052E060E040
S11339F070E0C1010E943705472D50E060E070E09F
S1133A002C8D213009F4D5CE80E09FEFAFEFBFEFCE
S1133A10D4CE892FA6960FB6F894DEBF0FBECDBFC5
S1133A20DF91CF911F910F91FF90EF90DF90CF9096
S1133A30BF90AF909F908F907F906F905F904F90CA
S1133A403F902F900895CF93DF93C5E6D1E006C051
S1133A50DF93CF930E94F22B0F900F9080E00E948F
S1133A60FD028823A9F3DF91CF9108951F93CF938B
S1133A70DF93EC01162F8091E80085FD09C0E8EE84
S1133A80F0E080818B7780830E947B28811128C09D
S1133A90A1EFB0E08C91FE01E10FF11D80838C91C8
S1133AA081838C9182838C9183838C9184838C9188
S1133AB085838C9186838C9187838C9180878C916C
S1133AC081878C9182878C9183878C9184878C9158
S1133AD085878C9186878C91878780E190E002C0EE
S1133AE080E090E0DF91CF911F910895AF92BF9253
S1133AF0CF92DF92EF92FF920F931F93CF93DF93B6
S1133B005C016A017B01E9010E947B288823C9F0DA
S1133B1026C001E010E0A701960165E172E080E0B3
S1133B200E940A0460E085E192E0A0DF8FEFC81AEA
S1133B30D80AE80AF80A2197F50180AD882321F014
S1133B400EC0209731F702C0209719F78091E80042
S1133B5085FD05C0E8EEF0E080818B778083DF91FE
S1133B60CF911F910F91FF90EF90DF90CF90BF9076
S1133B70AF9008951F93CF93DF93EC01162F80919C
S1133B80E80085FD09C0E8EEF0E080818E7780834F
S1133B900E947B28811144C0DE01A10FB11D8C91CC
S1133BA0E1EFF0E0808311968C9111978083129657
S1133BB08C911297808313968C911397808314961B
S1133BC08C911497808315968C9115978083169603
S1133BD08C911697808317968C91179780831896EB
S1133BE08C911897808319968C91199780831A96D3
S1133BF08C911A9780831B968C911B9780831C96BB
S1133C008C911C9780831D968C911D9780831E96A2
S1133C108C911E9780831F968C91808381E001C0D4
S1133C2080E0DF91CF911F910895CF92DF92EF92C0
S1133C30FF920F931F93CF93DF936A017B01E901F6
S1133C400E947B28882381F01AC001E010E0A701BC
S1133C50960165E172E080E00E94BC0380E0682F79
S1133C6085E192E087DFFBCFCD2B79F78091E800E7
S1133C7085FD05C0E8EEF0E080818E778083DF91DA
S1133C80CF911F910F91FF90EF90DF90CF90089507
S1133C9081E008951F920F920FB60F9211242F9373
S1133CA03F934F935F936F937F938F939F93AF93C0
S1133CB0BF93EF93FF93CF93DF93CDB7DEB7C65691
S1133CC0D109DEBFCDBF8EB38430F9F086E1EBECD1
S1133CD0F1E0DE01119601900D928A95E1F785E1FC
S1133CE090E0A7969FAF8EAFA7979E012B593F4FA9
S1133CF045E150E0BE016F5F7F4F88E194E00E9490
S1133D00A71388E194E00E949615CA59DF4F0FB6B5
S1133D10F894DEBF0FBECDBFDF91CF91FF91EF913D
S1133D20BF91AF919F918F917F916F915F914F91CF
S1133D303F912F910F900FBE0F901F901895CF9326
S1133D40DF93CDB7DEB72C970FB6F894DEBF0FBE66
S1133D50CDBF80911504909116040196909316049A
S1133D60809315049F938F9381EE91E09F938F939B
S1133D70CE0101969F938F930E94112C41E06EE92E
S1133D8071E088E396E00E942B120F900F900F9041
S1133D900F900F900F908D3031F440E050E060E0D0
S1133DA08EE991E023D9811117C042E1BE016F5F12
S1133DB07F4F88E194E00E947E124091220450914A
S1133DC02304609124047091250488E194E00E9406
S1133DD0051681E0809317042C960FB6F894DEBF85
S1133DE00FBECDBFDF91CF91089588E194E00E948A
S1133DF0961588E194E00E94F51510921704089531
S1133E0084B7877F84BF88E10FB6F89480936000FD
S1133E10109260000FBE90E080E80FB6F894809393
S1133E206100909361000FBE0E94E0000CDE0E94CE
S1133E30FB282EDF811101C0FFCF0895E1DF7FDF72
S1133E40789481E191E056D481E091E03ED30E94E0
S1133E50802B80911704882329F08EB3843089F74E
S1133E60C4DFEFCF6CDFEDCF60914E0670914F064B
S1133E70809150069091510608950895089581E027
S1133E8091E00FD381E191E01BC4089581E191E0B9
S1133E90DBD381E091E0BBC108956EC008950F9318
S1133EA01F9380916608F901818382E090E0F80114
S1133EB09183808381E01F910F910895F9016181BD
S1133EC080916608681731F06093660880E090E09E
S1133ED00C94F32D0895BF92CF92DF92EF92FF924C
S1133EE00F931F93CF93DF93EC01B62EC8A0DF8C02
S1133EF0EE8CFD8C0BA11AA1B7DFC616D706E80617
S1133F00F90668F0ECE4F1E08081807F85608083CD
S1133F1081E2809356011092570180E023C0BB20B8
S1133F2039F0202F312FB701A601CE017EDE06C065
S1133F30202F312FB701A601CE01D8DDCC88DD8832
S1133F40EE88FF8891DF9B01AC01A02FB12F0E9466
S1133F50BC2BC61AD70AE80AF90ACC8ADD8AEE8A8B
S1133F60FF8A81E0DF91CF911F910F91FF90EF9035
S1133F70DF90CF90BF900895CF92DF92EF92FF929F
S1133F800F931F93CF93DF93CDB7DEB728970FB668
S1133F90F894DEBF0FBECDBF8C01FC01838D8D3143
S1133FA009F4BDC088F4823109F138F4882309F496
S1133FB0FEC0833009F45AC000C18A3109F4DEC05E
S1133FC08B3109F4F4C0F9C0883209F4D3C038F451
S1133FD08E3109F4ECC0853209F474C0EEC08A3223
S1133FE009F4C4C08F3209F4E2C0E7C0F801C78CF9
S1133FF0D68C848D837019F4858D882369F0ECE464
S1134000F1E08081807F8560808384E28093560123
S11340101092570180E0DEC07601F5E2CF16D1049C
S113402028F00F2EF4E2EF2EF12CF02D40E050E0BA
S1134030B7018BEE91E0E1D460E070E0C6018E1927
S11340409F098BD4E8EEF0E080818E778083F801BD
S113405084899589A689B7898E199F09A109B1090F
S1134060848B958BA68BB78B81E0B4C0F801D78C79
S1134070CD2CF2E1FD1520F40F2EF2E1CF2EF02D20
S1134080EC2CF12C40E050E0B7018AE491E0B5D487
S11340908D2D90E060E070E08E199F095ED4E8EE0B
S11340A0F0E080818E778083F80184899589A689E0
S11340B0B7898C199109A109B109848B958BA68BB9
S11340C0B78B8AC080E092E0A0E0B0E089839A8355
S11340D0AB83BC83C9DE6D837E838F83988740E086
S11340E050E064E070E0CE010596E3D440E050E097
S11340F064E070E0CE010196DCD4E8EEF0E080816B
S11341008E778083F80184899589A689B789089771
S1134110A109B109848B958BA68BB78B5DC0F8017F
S1134120848D82FD0DC0ECE4F1E08081807F8560A8
S1134130808384E2809356011092570180E04AC044
S1134140A7DD81110CC0ECE4F1E08081807F846004
S11341508083109256011092570180E03BC0F80111
S1134160148A158A168A178A81E034C060E0C8016F
S1134170B2DE30C061E0C801AEDE2CC0E1EFF0E099
S11341801082108210821082E8EEF0E080818E7737
S11341908083F80144895589668977894450510997
S11341A061097109448B558B668B778B15C0F801B7
S11341B0148A158A168A178A0FC0ECE4F1E080810C
S11341C0807F8560808380E280935601109257013E
S11341D080E00EC0882359F0ECE4F1E08081807F18
S11341E08083109256011092570181E001C080E053
S11341F028960FB6F894DEBF0FBECDBFDF91CF91E6
S11342001F910F91FF90EF90DF90CF9008953F9210
S11342104F925F926F927F928F929F92AF92BF92D2
S1134220CF92DF92EF92FF920F931F93CF93DF937E
S113423000D01F92CDB7DEB76C01EDB6FEB680910B
S1134240E80083FF14C1F601808190E02091710899
S1134250309172082817390709F009C180916E0856
S1134260833009F4A1C030F4813071F0823009F454
S1134270E3C0FDC08A3009F4C3C08B3009F4ACC07C
S1134280893009F0F4C052C080916D08813A09F078
S1134290EEC08DB69EB61A821982EFE6F8E08081F0
S11342A011818B83F601408550E08DB79EB7841B46
S11342B0950B0FB6F8949EBF0FBE8DBFEDB7FEB73A
S11342C031965F0160E070E0CF010E94EB2B4FEF6D
S11342D0410F8E010F5F1F4F9501BE016D5F7F4F30
S11342E0C601DDDDF60186819781009729F04085BE
S11342F050E0B5010E94E22B1092E900E8EEF0E0F4
S11343008081877F80838B8181118093F100698113
S11343107A81C5018CD4E8EEF0E080818B778083CC
S11343200FB6F8949EBE0FBE8DBEA1C080916D08DD
S1134330813209F09CC06DB67EB6A0907308B0902F
S11343407408EFE6F8E0508041808DB79EB78A1973
S11343509B090FB6F8949EBF0FBE8DBFEDB7FEB795
S113436031964F0108EE10E0F8018081877F808349
S1134370B501C401DFD4F80180818E77808321E008
S1134380511001C020E030E08501021B130B280D01
S1134390391D4FEF440D652DC60190DD0FB6F8941D
S11343A07EBE0FBE6DBE63C080916D08813A09F078
S11343B05EC0E8EEF0E08081877F8083808180FFAB
S11343C0FDCFF60181858093F100E8EEF0E0808175
S11343D08E7780836ED64BC080916D08813209F050
S11343E046C0E8EEF0E08081877F808362D69091BA
S11343F06F0881E0911101C080E0F601818737C028
S113440080916D08813299F5E8EEF0E08081877F34
S113441080834FD680916F0890917008882700247C
S1134420880F991F001C880F991F001C892F902D3D
S1134430F601958784871BC080916D08813AB9F491
S1134440E8EEF0E08081877F8083808180FFFDCF6C
S1134450F60184859585969587959695879580939D
S1134460F100E8EEF0E080818E77808322D60FB6EB
S1134470F894FEBE0FBEEDBE0F900F900F90DF912B
S1134480CF911F910F91FF90EF90DF90CF90BF904D
S1134490AF909F908F907F906F905F904F903F90E0
S11344A00895FC01399627E0DF011D922A95E9F76A
S11344B021E0FC01218724EF31E03587248723E0C4
S11344C0248361E0019698C508955F926F927F926C
S11344D08F929F92AF92BF92CF92DF92EF92FF9210
S11344E00F931F93CF93DF9300D01F92CDB7DEB706
S11344F07C01CDB6DEB68EB3843009F08DC08091D8
S1134500E4009091E500F7012285338528173907E7
S113451009F482C081818F708093E9008091E80062
S113452085FF7AC08DB69EB6408550E08DB79EB7A4
S1134530841B950B0FB6F8949EBF0FBE8DBFEDB7CD
S1134540FEB731965F011B821A82198260E070E027
S1134550CF010E94EB2B8E010F5F1F4F950140E0AE
S1134560BE016D5F7F4FC7019ADC682EF701248579
S11345703585232B41F021E086859785892B09F029
S113458020E0522E01C0512CF7010681178101153C
S1134590110599F049815A81B801C5010E94D52BB2
S11345A077247394892B09F4712CF701408550E02A
S11345B0B501C8010E94E22B01C0712C29813A8106
S11345C0232BF1F0611004C0711002C050FE18C01A
S11345D0F701848595859787868781818F7080937D
S11345E0E9008B8181118093F10069817A8140E037
S11345F050E0C50102D2E8EEF0E080818E7780833E
S11346008091E4009091E500F701938782870FB6CB
S1134610F8949EBE0FBE8DBE0FB6F894DEBE0FBEDC
S1134620CDBE0F900F900F90DF91CF911F910F91FE
S1134630FF90EF90DF90CF90BF90AF909F908F90BE
S11346407F906F905F900895CF93DF93EC018091FA
S1134650E80083FF32C0888190E020917108309196
S113466072082817390749F580916E088E3F79F052
S11346708F3F19F580916D088132F9F4E8EEF0E08E
S11346808081877F808315D581E088AF16C08091B3
S11346906D08813A91F4E8EEF0E08081877F8083B1
S11346A0808180FFFDCF8B8581508093F100E8EEFF
S11346B0F0E080818E778083FCD4DF91CF910895E0
S11346C0CF93DF93EC01FC013C968DE2DF011D9258
S11346D08A95E9F782E08C83898761E0CE010196AF
S11346E08BD4882321F061E0CE01069685D4DF9136
S11346F0CF910895EF92FF920F931F93CF93DF937F
S113470000D0CDB7DEB78C018EB3843009F01CC164
S1134710D80116968C9116978F708093E90080913A
S1134720E80082FFD2C016968C918F708093E900C6
S11347301A8219827801BCE0EB0EF11C04C0F80166
S113474080AD8111C2C0AE014F5F5F4F6FE070E07A
S1134750C70111D2853099F3F80184859585A68522
S1134760B78585359345A244B34499F4D801599645
S11347709C9159971B968C911B97981750F45896B7
S11347808C9158978F7129F45A968C91815080316D
S113479078F0EBEEF0E0808180628083D80111969E
S11347A08C918F708093E9008081806280838DC0BA
S11347B01A8219827801BBE1EB0EF11C04C0F801E6
S11347C080AD811182C0D8015A966C9170E0AE011F
S11347D04F5F5F4FC701CFD1853089F3E8EEF0E03A
S11347E080818B778083F801808D882324F48181F4
S11347F08F708093E900C80150DB91E09827D801BD
S1134800D7969C93D79745E553E562E473E5F801A1
S113481043A754A765A776A74089518962897389FC
S11348209F964D935D936D937C93D29754964D913F
S11348305D916D917C91579743AB54AB65AB76AB6F
S1134840811109C0452B462B472B29F0EBEEF0E0F4
S1134850808180628083D80116968C918F708093BA
S1134860E900EBEEF0E005C0D801D8968C918111F7
S11348702CC0808185FDF8CFF80181818F708093F1
S1134880E900EBEEF0E005C0D801D8968C918111D7
S11348901CC0808185FDF8CF1A8219827801BBE2A1
S11348A0EB0EF11C04C0F80180AD81110EC0AE0105
S11348B04F5F5F4F6DE070E0C7019FD0853099F383
S11348C0E8EEF0E080818E778083D801D8968C91D1
S11348D0D8978823C9F116962C9116972F7081E0EA
S11348E090E0FC0102C0EE0FFF1F2A95E2F79F0142
S11348F0EAEEF0E02083108211962C9111972F702C
S113490002C0880F991F2A95E2F7808310821696B9
S11349108C918F7029EE30E0D9018C93EBEEF0E0AE
S1134920808180618083808188608083D801119632
S11349308C918F70D9018C93808180618083808178
S113494088608083F80110AE0F900F90DF91CF91B3
S11349501F910F91FF90EF900895AF92BF92CF9265
S1134960DF92EF92FF920F931F93CF93DF93EC01AB
S11349706B01C1D3811136C0C114D10429F0F601F1
S113498080819181C81BD90B209749F1E12CF12C2E
S113499008EE10E00F2EF1EFAF2EB12CF02DF80140
S11349A0808185FD13C080818E778083C114D104FA
S11349B049F0F60180819181E80EF91EF182E082CE
S11349C085E010C098D3882339F00CC0F50110821B
S11349D02197FFEFEF1AFF0A209709F702C080E042
S11349E001C080E0DF91CF911F910F91FF90EF9074
S11349F0DF90CF90BF90AF9008958F929F92AF9227
S1134A00BF92CF92DF92EF92FF920F931F93CF93B7
S1134A10DF937C01EB016A016ED381113DC0C114A7
S1134A20D10439F0F60180819181C81BD90BE80EBD
S1134A30F91E209771F100E010E00F2EF8EE8F2E92
S1134A40912CF02D0F2EF1EFAF2EB12CF02DF4019F
S1134A50808185FD13C080818E778083C114D10449
S1134A6049F0F60180819181080F191F1183008399
S1134A7085E012C040D3882349F00EC0F70181912C
S1134A807F01F501808321970F5F1F4F2097F9F66F
S1134A9002C080E001C080E0DF91CF911F910F91AF
S1134AA0FF90EF90DF90CF90BF90AF909F908F904A
S1134AB008958F929F92AF92BF92CF92DF92EF921E
S1134AC0FF920F931F93CF93DF938C01EB016A0145
S1134AD012D3811143C04E0181E0881A9108800EDF
S1134AE0911EC114D10439F0F60180819181C81B53
S1134AF0D90B881A990A209771F1E12CF12C08EE50
S1134B0010E00F2EF1EFAF2EB12CF02DF8018081C3
S1134B1085FD13C080818E778083C114D10449F050
S1134B20F60180819181E80EF91EF182E08285E030
S1134B3015C0E1D2882361F011C0F4018081F50130
S1134B408083F1E08F1A910821978FEFE81AF80A11
S1134B502097E1F602C080E001C080E0DF91CF91B0
S1134B601F910F91FF90EF90DF90CF90BF90AF9087
S1134B709F908F9008958F929F92AF92BF92CF9201
S1134B80DF92EF92FF920F931F93CF93DF937C01F9
S1134B90EB016A01B0D281113DC0C114D10439F0D6
S1134BA0F60180819181C81BD90BE80EF91E20976C
S1134BB071F100E010E00F2EF8EE8F2E912CF02D05
S1134BC00F2EF1EFAF2EB12CF02DF401808185FD75
S1134BD013C080818B778083C114D10449F0F6011E
S1134BE080819181080F191F1183008385E012C011
S1134BF082D2882349F00EC0F5018081F7018193A8
S1134C007F0121970F5F1F4F2097F9F602C080E0C4
S1134C1001C080E0DF91CF911F910F91FF90EF9041
S1134C20DF90CF90BF90AF909F908F900895DF92C8
S1134C30EF92FF920F931F93CF93DF93209173080A
S1134C40309174082617370758F06115710539F447
S1134C50E8EEF0E020812E7720839B0101C09B01C8
S1134C60A0E0E8EEF0E003EF10E062EF70E0C1EFE7
S1134C70D0E0FF24F394E12C37C04EB3442309F46D
S1134C8046C0453009F445C0408143FD44C04081DD
S1134C9042FF03C0E8EEF0E035C0408140FF24C08D
S1134CA0D801DC90DB014C9150E05D2921153105E0
S1134CB099F04830510580F4A82FB92F8D9188833D
S1134CC08A2F9B2F215031094F5F5F4F21153105EA
S1134CD019F04830510591F7AF2D4830510509F0CE
S1134CE0AE2D40814E7740832115310531F6A11157
S1134CF0C4CFD0CF8EB3882381F0853081F08081FA
S1134D0083FD0FC0808182FFF5CF80E00BC082E07D
S1134D1009C083E007C081E005C082E003C083E0EE
S1134D2001C081E0DF91CF911F910F91FF90EF902F
S1134D30DF900895CF92DF92FF920F931F93CF934A
S1134D40DF936115710529F4E8EEF0E020812B77FB
S1134D502083E8EEF0E043EF50E00F2EF2EFCF2E89
S1134D60D12CF02D01EF10E021C02EB32223D1F17C
S1134D702530D1F1208123FD39C0208122FFF5CFD8
S1134D8041C0E80188818D938A2F9B2F615071095E
S1134D906115710541F0EA01F880E601288130E0EF
S1134DA03F29232B71F720812B772083611571050F
S1134DB019F4E8EEF0E011C02EB32223C9F0253037
S1134DC0C9F0208123FD18C0208122FD1BC0CDCF56
S1134DD08EB3882399F0853099F0808180FFF8CFD5
S1134DE080E01BC082E019C083E017C081E015C0D9
S1134DF082E013C083E011C081E00FC082E00DC0E7
S1134E0083E00BC0EA01A881E601288130E03A2B57
S1134E10232B49F2A82FB92FB4CFDF91CF911F9143
S1134E200F91FF90DF90CF900895CF92DF92FF9281
S1134E300F931F93CF93DF932091730830917408DD
S1134E402617370758F06115710539F4E8EEF0E0DC
S1134E5020812E7720839B0101C09B01E82FF92F2D
S1134E6010E0A8EEB0E063EF70E042EF50E00F2EE8
S1134E70F1EFCF2ED12CF02D01E0F12C33C08EB305
S1134E80882309F442C0853009F441C08C9183FD24
S1134E9040C08C9182FF03C0E8EEF0E031C08C91F9
S1134EA080FF20C0EB011881EA01888190E0912BFA
S1134EB02115310581F08830910568F41491E601DB
S1134EC0188331962150310901962115310519F0C5
S1134ED08830910599F7102F089709F01F2D8C91B0
S1134EE08E778C932115310551F61111C8CFD4CF8B
S1134EF08EB3882381F0853081F0808183FD0FC0DB
S1134F00808182FFF5CF80E00BC082E009C083E09E
S1134F1007C081E005C082E003C083E001C081E0F6
S1134F20DF91CF911F910F91FF90DF90CF90089563
S1134F308F929F92BF92CF92DF92EF92FF920F9344
S1134F401F93CF93DF93873070F126C0592F5F7082
S1134F50E8015883891731F0E901D8805081E401D0
S1134F60788103C05B2DD62E7C2D51FF12C04C914D
S1134F704E7F4C9340814D7F40834C9141604C93D4
S1134F80E901D8825083E4017883E70158815523ED
S1134F9044F49F5F9730D1F68F708093E90081E0ED
S1134FA01FC080E01DC0982F9F709093E900982F38
S1134FB0542FD62E70E0ABEEB0E0EDEEF0E02CEE28
S1134FC030E00F2EF0EF8F2E912CF02D0F2EFEEEF1
S1134FD0EF2EF12CF02D09EE10E0B42EC12CC5CF2C
S1134FE0DF91CF911F910F91FF90EF90DF90CF90C1
S1134FF0BF909F908F900895BF92CF92DF92EF92CF
S1135000FF920F931F93CF93DF93062F662309F428
S113501041C0C82FD92F10E0F12C6894DD24D3F8B7
S1135020E12C6894BB24B1F80F2EF6E0CF2EF02DBE
S11350305881552351F19C81E981FA817B81852F27
S11350408F70873048F5923010F04C2D01C04B2DF5
S1135050E930F10550F02D2D3E2D9F2D9F5F220F3D
S1135060331F2E173F07D0F301C09F2D9295907FD9
S1135070492B551F5527551F90E4799F9001112402
S1135080652F622B55DF882351F01F5F259610137F
S1135090CFCF04C081E003C080E001C081E0DF9194
S11350A0CF911F910F91FF90EF90DF90CF90BF9021
S11350B0089580916D0888231CF0E8EEF0E012C09A
S11350C0E8EEF0E003C08EB38823A1F0808182FF74
S11350D0FACFE8EEF0E080818B77808308958EB379
S11350E0882341F0808180FFFACFE8EEF0E08081F0
S11350F08E77808308950F931F93CF93DF9320912E
S1135100E4003091E50065E6ACEEB0E0E8EEF0E0F6
S11351100BEE10E044EE50E08C9180FD20C023C0E3
S11351208EB3882381F0853081F0E801888185FD84
S11351300EC0EA01888199812817390769F3615003
S113514041F09C01E9CF82E012C083E010C081E00D
S11351500EC084E00CC080E00AC080E008C08081FA
S113516080FFDECFF8CF808182FFDACFF6CFDF91E8
S1135170CF911F910F9108950F931F93CF93DF93B6
S11351804BD052D0C8EDD0E088818F778883888156
S11351908068888388818F7D888319BC1EBA1092A9
S11351A0690810926B0810926A0800EE10E0F8018A
S11351B080818B7F808388818160888342E060E086
S11351C080E0B6DEE1EEF0E080818E7F8083E2EE67
S11351D0F0E0808181608083808188608083F80131
S11351E080818E7F8083888180618883DF91CF91E5
S11351F01F910F910895E8EDF0E080818F7E808308
S1135200E7EDF0E080818160808384E082BF81E00B
S113521080936C08B1CF0895E8EDF0E080818E7F33
S113522080831092E20008951092DA001092E10057
S113523008951F920F920FB60F9211242F933F934C
S11352404F935F936F937F938F939F93AF93BF938A
S1135250EF93FF938091E10082FF0AC08091E20006
S113526082FF06C0E1EEF0E080818B7F808347D22D
S11352708091DA0080FF1CC08091D80080FF18C0A4
S1135280EAEDF0E080818E7F80838091D90080FFF9
S11352900BC019BC82E089BD09B400FEFDCF81E0DA
S11352A08EBB0E943D1F04C019BC1EBA0E943E1F43
S11352B08091E10080FF15C08091E20080FF11C061
S11352C0E2EEF0E080818E7F808380818061808344
S11352D0E8EDF0E080818062808319BC85E08EBBBC
S11352E00ED28091E10084FF2CC08091E20084FF03
S11352F028C019BC82E089BD09B400FEFDCFE8EDE9
S1135300F0E080818F7D8083E1EEF0E080818F7E0C
S11353108083E2EEF0E080818F7E808380818160F3
S1135320808380916908882319F084E08EBB08C0CB
S11353308091E300882314F483E001C081E08EBBF4
S1135340DED18091E10083FF22C08091E20083FFDF
S11353501EC0E1EEF0E08081877F808382E08EBB17
S11353601092690880818E7F8083E2EEF0E0808174
S11353708E7F808380818061808342E060E080E072
S1135380D7DDE0EFF0E0808188608083B8D1FF91C1
S1135390EF91BF91AF919F918F917F916F915F91A9
S11353A04F913F912F910F900FBE0F901F90189522
S11353B01F920F920FB60F9211242F933F934F9386
S11353C05F936F937F938F939F93AF93BF93CF9389
S11353D0EF93FF93C091E900CF708091EC0010929D
S11353E0E900E0EFF0E08081877F808378941BD030
S11353F0E9EEF0E01082A0EFB0E08C9188608C932D
S1135400C083FF91EF91CF91BF91AF919F918F9105
S11354107F916F915F914F913F912F910F900FBEAC
S11354200F901F9018950F931F93CF93DF93CDB7D1
S1135430DEB7AA970FB6F894DEBF0FBECDBFEDE678
S1135440F8E085E798E0A1EFB0E02C912193E8170C
S1135450F907D9F70E94461F8091E80083FF2AC10B
S113546090916D0880916E08853009F478C030F40D
S11354708130B1F168F0833099F11CC1883009F4AE
S1135480E8C0893009F4F5C0863009F013C189C039
S1135490903821F0923809F00DC108C080916A0853
S11354A090916B08992371F082600CC0809171080F
S11354B08F70E9EEF0E080838091EB0085FB882714
S11354C080F91082E8EEF0E09081977F9083A1EF5D
S11354D0B0E08C931C9280818E778083EADDEAC0F1
S11354E0992309F4F6C0923009F0E4C0F7C091E0C2
S11354F0833009F090E090936B0828C020917108E4
S11355002F7009F4D7C02093E9008091EB0080FF4D
S11355101DC080916E08833031F4EBEEF0E08081A1
S11355208062808313C0EBEEF0E080818061808331
S113553081E090E002C0880F991F2A95E2F7AAEE55
S1135540B0E08C931C928081886080831092E90083
S1135550E8EEF0E08081877F8083ABDDABC0911102
S1135560A9C010916F081F77E3EEF0E08081807886
S1135570812B8083E8EEF0E08081877F808399DD52
S1135580E8EEF0E0808180FFFDCFE3EEF0E0808183
S113559080688083112311F083E001C082E08EBB18
S11355A089C09058923008F085C080916F0890911E
S11355B070088C3D23E0920799F583E08A838AE2A0
S11355C089835FB7F894DE01139620E03EE041E260
S11355D0E32FF0E040935700849120FF03C08295AD
S11355E08F703F5F8F708A3018F090E0C79602C0CA
S11355F090E0C0968D939D932F5F243149F75FBF50
S113560008EE10E0F8018081877F80836AE270E011
S1135610CE0101960CDBF80180818B7780834AC030
S1135620AE014F5F5F4F609171080E9411010097B6
S113563009F440C008EE10E0F8012081277F2083A0
S1135640BC0189819A81F1DBF80180818B778083A9
S113565031C0903879F5E8EEF0E08081877F80836F
S1135660809169088093F10080818E77808321DDA9
S113567021C091111FC080916F088230D8F4E8EEE8
S1135680F0E08081877F808380916F088093690830
S113569010DD80916908882319F084E08EBB08C06E
S11356A08091E300882314F484E001C081E08EBB80
S11356B00E943F1F8091E80083FF16C0E8EEF0E0EF
S11356C08081877F8083EBEEF0E08081806280833D
S11356D00BC090916F08913069F709CF80916F08E2
S11356E0882309F40BCF32CFAA960FB6F894DEBF05
S11356F00FBECDBFDF91CF911F910F9108950895F3
S1135700CF938EB38823A1F0C091E900CF7080912C
S1135710EC0080FF02C080E801C080E0C82B10923A
S1135720E9008091E80083FD7EDECF70C093E9003C
S1135730CF910895A1E21A2EAA1BBB1BFD010DC037
S1135740AA1FBB1FEE1FFF1FA217B307E407F5072D
S113575020F0A21BB30BE40BF50B661F771F881F09
S1135760991F1A9469F760957095809590959B019F
S1135770AC01BD01CF01089509D0A59F900DB49F40
S1135780900DA49F800D911D11240895A29FB00136
S1135790B39FC001A39F700D811D1124911DB29F61
S11357A0700D811D1124911D0895FB01DC0104C0BD
S11357B08D910190801921F441505040C8F7881B05
S11357C0990B0895FB01DC0102C001900D92415038
S11357D05040D8F70895DC0101C06D93415050400A
S11357E0E0F70895A0E0B0E0E7EFFBE2C2C2FE01FB
S11357F037966191719107E718E0D8018D919C91DA
S1135800DC0113962C911397286013962C93AF0107
S113581027D0D801ED91FC912381277F2383E4E0F5
S1135820C4C2AEE0B0E0E6E1FCE2A3C20D891E8989
S113583086E08C831A8309838FEF9FE79E838D8391
S1135840AE01475E5F4F6F89788DCE01019608D017
S1135850EF81F885E00FF11F10822E96E4E0A5C2D7
S1135860ACE0B0E0E5E3FCE276C27C016B018A01C6
S1135870FC0117821682838181FFB0C1CE0101969B
S11358804C01F7019381F60193FD859193FF81917A
S11358906F01882309F49EC1853239F493FD859103
S11358A093FF81916F01853221F4B70190E0C3D158
S11358B0E8CF512C312C20E02032A0F48B3269F057
S11358C030F4803259F0833269F420612CC08D3277
S11358D039F0803339F4216026C02260246023C06B
S11358E0286021C027FD27C030ED380F3A3078F406
S11358F026FF06C0FAE05F9E300D1124532E13C01C
S11359008AE0389E300D1124332E20620CC08E3272
S113591021F426FD5FC1206406C08C3611F4206892
S113592002C0883641F4F60193FD859193FF81917D
S11359306F018111C1CF982F9F7D9554933028F426
S11359400C5F1F4FFFE3F9830DC0833631F08337BB
S113595071F0833509F057C021C0F8018081898333
S11359600E5F1F4F44244394512C540114C038013A
S1135970F2E06F0E711CF801A080B18026FF03C015
S1135980652D70E002C06FEF7FEFC5012C8748D111
S11359902C0183012C852F77222E16C03801F2E0CA
S11359A06F0E711CF801A080B18026FF03C0652D25
S11359B070E002C06FEF7FEFC5012C8726D12C0168
S11359C02C852068222E830123FC19C0832D90E0AE
S11359D048165906A0F4B70180E290E02CD13A941D
S11359E0F5CFF50127FC859127FE81915F01B70171
S11359F090E021D131103A94F1E04F1A510841144A
S1135A00510479F7DEC0843611F0893631F5F80196
S1135A1027FF07C060817181828193810C5F1F4FD2
S1135A2008C060817181882777FD8095982F0E5F6B
S1135A301F4F2F76B22E97FF09C0909580957095D1
S1135A4061957F4F8F4F9F4F2068B22E2AE030E040
S1135A50A40123D1A82EA81843C0853729F42F7E8A
S1135A60B22E2AE030E025C0F22FF97FBF2E8F3608
S1135A70C1F018F4883579F0ADC0803719F0883753
S1135A8021F0A8C02F2F2061B22EB4FE0DC08B2DA3
S1135A908460B82E09C024FF0AC09F2F9660B92ED7
S1135AA006C028E030E005C020E130E002C020E17B
S1135AB032E0F801B7FE07C0608171818281938171
S1135AC00C5F1F4F06C06081718180E090E00E5F23
S1135AD01F4FA401E2D0A82EA818FB2DFF77BF2EDC
S1135AE0B6FE0BC02B2D2E7FA51450F4B4FE0AC0B5
S1135AF0B2FC08C02B2D2E7E05C07A2C2B2D03C0A2
S1135B007A2C01C0752C24FF0DC0FE01EA0DF11D95
S1135B108081803311F4297E09C022FF06C073946A
S1135B20739404C0822F867809F0739423FD12C005
S1135B3020FF06C05A2C731418F4530C5718732CF6
S1135B40731460F4B70180E290E02C8774D07394EE
S1135B502C85F6CF731410F4371801C0312C24FFB0
S1135B6011C0B70180E390E02C8765D02C8522FF1B
S1135B7016C021FF03C088E590E002C088E790E0EA
S1135B80B7010CC0822F867851F021FD02C080E25B
S1135B9001C08BE227FD8DE2B70190E04CD0A51443
S1135BA030F4B70180E390E046D05A94F8CFAA9439
S1135BB0F401EA0DF11D8081B70190E03CD0A11001
S1135BC0F6CF332009F45DCEB70180E290E033D004
S1135BD03A94F7CFF7018681978102C08FEF9FEF48
S1135BE02C96E2E1D4C0262FF999FECF92BD81BD57
S1135BF0F89A019700B4021639F01FBA20BD0FB607
S1135C00F894FA9AF99A0FBE0895FC010590615030
S1135C1070400110D8F7809590958E0F9F1F0895BE
S1135C20FC016150704001900110D8F78095909567
S1135C308E0F9F1F08950F931F93CF93DF93182FF9
S1135C40092FEB018B8181FD03C08FEF9FEF20C0F3
S1135C5082FF10C04E815F812C813D814217530722
S1135C607CF4E881F9819F012F5F3F4F39832883BA
S1135C70108306C0E885F985812F0995892B29F7BA
S1135C802E813F812F5F3F4F3F832E83812F902FA3
S1135C90DF91CF911F910F910895FA01AA2728301F
S1135CA051F1203181F1E8946F936E7F6E5F7F4FE5
S1135CB08F4F9F4FAF4FB1E03ED0B4E03CD0670F61
S1135CC0781F891F9A1FA11D680F791F8A1F911DB4
S1135CD0A11D6A0F711D811D911DA11D20D009F404
