:10000000B2C00000CDC00000CBC00000C9C00000DD
:10001000C7C00000C5C00000C3C00000C1C00000D0
:10002000BFC00000BDC000000C94E6150C94A316E0
:10003000B7C00000B5C00000B3C00000B1C00000F0
:10004000AFC000000C948E10ABC00000A9C000002F
:10005000A7C00000A5C00000A3C00000A1C0000010
:100060009FC000009DC000009BC0000099C0000020
:1000700097C0000095C0000093C0000091C0000030
:100080008FC000008DC000008BC0000089C0000040
:1000900087C0000085C0000083C0000081C0000050
:1000A0007FC000007DC000007BC000002E03540014
:1000B00065006D00700065007200610074007500DD
:1000C00072006500200044006100740061006C0053
:1000D0006F006700670065007200000018034400AD
:1000E000650061006E002000430061006D00650046
:1000F00072006100000004030904090239000201D2
:1001000000C03209040000020806500007058302FF
:100110004000050705040240000509040100010331
:1001200000000009211101000122200007058103C0
:100130001000051201100100000008EB036320010C
:10014000000102DC010600FF0901A10109021500FE
:1001500025FF7508950281020903150025FF750822
:1001600095029102C00011241FBECFEFDAE0DEBF7E
:10017000CDBF11E0A0E0B1E0EEECF6E302C00590E7
:100180000D92AA36B107D9F725E0AAE6B1E001C081
:100190001D92AE3CB207E1F70E9445110C94651B1D
:1001A0002FCF27982F9A56985E9A57985F9A24983F
:1001B0002C9A25982D9A23982B9A229A269A3E9823
:1001C000469A219A2098289A6E98769A5D98559A20
:1001D00054985C9A5B9A539A52985A9A599A519A9F
:1001E000589A509A729A6A9A85988D9A86988E9A99
:1001F00087988F9A8C98849A899A819A889A809AFB
:100200000895292F332723303105C9F044F42130D4
:10021000310509F439C02230310561F006C02132C0
:10022000310541F12232310551F180E090E020E0CA
:1002300030E033C089E390E02AEF30E02EC0992708
:100240008130910559F08230910571F0892B09F5C3
:10025000E6EFF0E0849190E09F011FC0ECEDF0E04C
:10026000849190E09F0119C0ECEAF0E0849190E065
:100270009F0113C089E090E023E231E00EC080E2EC
:1002800090E025E431E009C082E190E023E331E031
:1002900004C080E090E020E030E0FA013183208368
:1002A000089523B123B123B123B101970097C9F772
:1002B0000895FC01680F791F8191882314F42A9A0C
:1002C00001C02A98299A299886FF02C02A9A01C05B
:1002D0002A98299A299885FF02C02A9A01C02A984B
:1002E000299A299884FF02C02A9A01C02A98299A3B
:1002F000299883FF02C02A9A01C02A98299A29982E
:1003000082FF02C02A9A01C02A98299A299881FF5F
:1003100002C02A9A01C02A98299A299880FF02C00F
:100320002A9A01C02A98299A2998E617F70721F6F0
:1003300008952A9AFC01680F791F83B1299A299898
:1003400083FB882780F9880F1B998F5F299A29984A
:10035000880F1B998F5F299A2998880F1B998F5FA7
:10036000299A2998880F1B998F5F299A2998880FB5
:100370001B998F5F299A2998880F1B998F5F299A5B
:100380002998880F1B998F5F299A29988193E617DE
:10039000F70799F608950F931F93CF93DF931F925A
:1003A000CDB7DEB708E813E161E070E0CE01019659
:1003B000C0DF89818F3F41F084E690E072DF015019
:1003C00011090115110581F781E090E0012B11F46D
:1003D00080E090E00F90DF91CF911F910F910895F1
:1003E000CF93DF931F92CDB7DEB7599A61E070E0EB
:1003F000CE0101969EDF0F90DF91CF9108950F936C
:100400001F93CF93DF931F92CDB7DEB7599861E06A
:1004100070E0CE0101968DDFBEDF8C01009711F4F4
:10042000DFDF02C001E010E0C8010F90DF91CF9143
:100430001F910F910895CF92DF92EF92FF920F9349
:100440001F93CF93DF9300D0CDB7DEB77C016B0154
:1004500008EE13E061E070E0CE0101966ADF898169
:100460008F3F41F484E690E01CDF01501109011533
:10047000110581F789818E3F59F4B601C70159DF13
:1004800062E070E0CE01019654DF81E090E002C0AE
:1004900080E090E00F900F90DF91CF911F910F912E
:1004A000FF90EF90DF90CF900895FF920F931F93EE
:1004B000CF93DF9300D0CDB7DEB78C01F62E6BDF84
:1004C000009719F1F98261E070E0CE010196F1DE4A
:1004D0008DEFF816C1F060E072E0C801EADE62E07C
:1004E00070E0CE01019625DF61E070E0CE0101965B
:1004F00020DF89818F7131E020E0853009F030E024
:10050000832F922F02C081E090E00F900F90DF9137
:10051000CF911F910F91FF900895DF92EF92FF927C
:100520000F931F93CF93DF93CDB7DEB727970FB607
:10053000F894DEBF0FBECDBF182F042FF52EE62E88
:10054000D72E88234CF440E050E0BA0187E3E5DF82
:10055000823008F045C01F771C3059F141DF4FDF72
:10056000892B29F1812F80648A83DB82EC82FD82D2
:100570000E83112369F1183019F181E08F8366E051
:1005800070E0CE01029695DE1C3029F461E070E047
:10059000CE010196CEDE1AE061E070E0CE01019658
:1005A000C8DE89818823E4F41150B1F719C08FEFB8
:1005B00017C08CE48A83DB82EC82FD820E83DDCF60
:1005C00087E88F8366E070E0CE01029672DEE3CFAB
:1005D00085E98F8366E070E0CE0102966ADEDBCFAC
:1005E00027960FB6F894DEBF0FBECDBFDF91CF9137
:1005F0001F910F91FF90EF90DF900895811103C03C
:1006000080910001089581E00895EF92FF920F9389
:100610001F93CF93DF9300D000D0CDB7DEB7811109
:10062000A7C080E197E23DDE519A599A219A299814
:10063000229A23981AE061E070E0CE01019679DEFB
:100640001150C9F740E050E0BA0180E066DF813028
:1006500009F06FC04AEA51E060E070E088E05DDFD9
:100660008130B9F564E070E0CE01019662DE8B81E5
:10067000813009F060C08C818A3A09F05EC008EED2
:1006800013E040E050E060E070E489EA46DF882350
:1006900049F088EE93E005DE0150110901151105BE
:1006A00081F74DC0012B09F44CC040E050E0BA0185
:1006B0008AE333DF811147C064E070E0CE01019628
:1006C00038DE898186FF41C00F2EFCE0FF2EF02D21
:1006D00045C040E050E0BA0189EA1FDF823040F4B3
:1006E0000F2EF9EAEF2EF02D6894FF24F1F804C0E4
:1006F000EE24E394FF24F39408EE13E040E050E08E
:10070000BA018E2D0ADF882349F088EE93E0C9DD17
:10071000015011090115110589F71BC0012BD9F0F2
:1007200040E052E060E070E080E1F7DE811115C04A
:1007300015C0F12C13C0F12C11C0F12C0FC0F12CFD
:100740000DC0F12C0BC0F12C09C06894FF24F2F805
:1007500005C0F12C03C0F12C01C0F12CF0926A010C
:1007600011E0F11010E0109300013ADE812F01C07A
:1007700083E00F900F900F900F90DF91CF911F911A
:100780000F91FF90EF900895FF920F931F93CF93D7
:10079000DF93EB0181113DC08091000180FD3BC0E2
:1007A00080916A0183FD09C0012E19E0220F331FD9
:1007B000441F551F1A95D1F7102D0230110528F04E
:1007C0000F2EF2E1FF2EF02D04C00F2EF1E1FF2ECF
:1007D000F02DBA01A9018F2DA0DE811114C060E0B7
:1007E00072E0CE0128DE892B31F0DE5F0150110965
:1007F00001151105A1F782E1F81205C040E050E0B3
:10080000BA018CE08ADEECDD81E0012B29F480E086
:1008100003C083E001C083E0DF91CF911F910F916E
:10082000FF900895CF92DF92EF92FF920F931F9364
:10083000CF93DF93EB0169017A0181114BC0809165
:10084000000180FD49C080916A0183FD09C00B2E23
:10085000B9E0CC0CDD1CEE1CFF1CBA95D1F7B02D15
:100860000130110589F4B701A60188E156DE811136
:100870002BC06EEFCE0119DE31E020E0892B09F0AC
:1008800030E0032F122F20C0867029F0A80160E00D
:1008900070E087E942DEB701A60189E13EDE811101
:1008A00013C06CEFCE0101DE892B31F0DE5F015009
:1008B000110901151105A9F76DEF80E090E0F5DD54
:1008C000892B11F401E010E08BDD81E0012B29F48C
:1008D00080E003C083E001C083E0DF91CF911F91EE
:1008E0000F91FF90EF90DF90CF900895CF92DF921D
:1008F000EF92FF920F931F93CF93DF93CDB7DEB7A5
:1009000060970FB6F894DEBF0FBECDBF8A0181118C
:1009100096C08091000180FD94C0613061F020F0AC
:10092000633009F479C083C06ADD11E0892B09F4D2
:1009300083C010E081C040E050E0BA0189E0EDDD05
:10094000811177C060E170E0CE01019674DD892BE2
:1009500009F471C08981829586958695837081306E
:1009600031F588858F7390E0A0E0B0E0DC01992735
:1009700088270196A11DB11D298530E0322F22273D
:100980004A85240F311D820F931FA11DB11D072E13
:100990007AE0880F991FAA1FBB1F7A95D1F7702D97
:1009A000F80180839183A283B38310E045C0498519
:1009B0004295469546954370888550E0F4E08F9FB8
:1009C000400D511D11244F5F5F4F8F81837090E068
:1009D000982F8827990F990F480F591F60E070E0F2
:1009E0009E819F708B85881F8827881F890F9A8515
:1009F0009370990F890F87506A017B0104C0CC0C5A
:100A0000DD1CEE1CFF1C8A95D2F7F801C082D18252
:100A1000E282F38210E010C080E890E0A0E0B0E055
:100A2000FA0180839183A283B38310E005C014E0B0
:100A300003C011E001C011E0D3DC812F03C083E0CB
:100A400001C083E060960FB6F894DEBF0FBECDBF45
:100A5000DF91CF911F910F91FF90EF90DF90CF909A
:100A600008954115510551F0A62FB72FFC01840FB1
:100A7000951F2D912193E817F907D9F7089541158E
:100A8000510539F0FC01840F951F6193E817F907B0
:100A9000E1F70895FC01A081B181109709F16C91F3
:100AA000613258F06A3341F1FD0131969F01419165
:100AB000413228F04A33D1F704C0462F9D014A3312
:100AC00091F4AD014F5F5F4F2417350779F4603320
:100AD00081F41296FC01B183A08380E090E0089538
:100AE0008FEF9FEF089580E090E008958FEF9FEFE4
:100AF00008958FEF9FEF08959D01E3CF8F929F920E
:100B0000AF92BF92CF92DF92EF92FF920F931F931B
:100B1000CF93DF93EC018C81882309F442C0CAA4EF
:100B2000DBA4ECA4FDA45E018EE2A80EB11C01E0E2
:100B300010E0A7019601B501898174DE811133C0EF
:100B40001C828E8D9F8DA8A1B9A1B701A601481B5B
:100B5000590B6A0B7B0B8E899F89A88DB98D48171D
:100B600059076A077B0708F58B80912C82E088166D
:100B70009104E8F08E899F89A88DB98DC80ED91E81
:100B8000EA1EFB1E01E010E0A7019601B501898174
:100B900049DE81E0881A910881E08816910451F7B6
:100BA00008C080E007C081E005C080E003C080E0AD
:100BB00001C080E0DF91CF911F910F91FF90EF90E6
:100BC000DF90CF90BF90AF909F908F900895BF928D
:100BD000CF92DF92EF92FF920F931F93CF93DF9309
:100BE000EC016A017B018AA59BA5ACA5BDA5841774
:100BF0009507A607B707D9F0CE0180DFB82E81117F
:100C000017C001E010E0A7019601BE01625D7F4FB1
:100C10008981BADD882331F0BB24B394CC24CA94F3
:100C2000DC2C7601CAA6DBA6ECA6FDA601C0B12C81
:100C30008B2DDF91CF911F910F91FF90EF90DF905F
:100C4000CF90BF9008950F931F93CF93DF93EC0144
:100C50001C820FEF1FEF98010AA71BA72CA73DA727
:100C6000B6DF811151C0FE01E35DFD4F808190E050
:100C7000982F882731972081822B85359A4A09F051
:100C800045C0E55CF14080813197408150E060E0F3
:100C900070E0BA0155274427782B32978081482B82
:100CA0003196008110E0102F002720E030E0402B2B
:100CB000512B622B732B77274634514464457105C1
:100CC00039F17E9680813197408150E060E070E09C
:100CD000BA0155274427782B32978081482BCF576C
:100CE000DF4F888190E0982F8827A0E0B0E0482B64
:100CF000592B6A2B7B2B772781E04634514464457E
:100D0000710539F480E005C083E003C082E001C0D2
:100D100080E0DF91CF911F910F9108950097C1F06E
:100D2000DC01ED91FC9111973097A1F020812223F5
:100D300099F02681378112968D919C9113972817EF
:100D4000390761F481815ADC80FF0AC083E008958D
:100D500089E0089589E0089589E0089589E008957B
:100D600080E008952F923F924F925F926F927F9210
:100D70008F929F92AF92BF92CF92DF92EF92FF92AB
:100D80000F931F93CF93DF93CDB7DEB76D970FB659
:100D9000F894DEBF0FBECDBF6C01CB01B42ED601DF
:100DA0001D921C9277DE7C0199230CF4E1C2FC01B8
:100DB000EE0FFF1FE359FE4F008111810115110550
:100DC00009F4D8C2F60111830083D8018C918823DD
:100DD00061F011968C9112DC80FD07C0BB2009F4F4
:100DE000CBC282FDCBC280E017C3F8011082E18242
:100DF0008E2D0BDC80FDC4C2BB2011F082FDC2C26F
:100E000040E050E0BA01C8011EDF813009F052C055
:100E1000F801E051FE4F7E0121E1E20EF11C9E013E
:100E20002F5F3F4FA12CB12CC12CD12C8081882366
:100E3000B1F04781868190E0A0E0B0E0DC01992725
:100E40008827B42B4481842B458150E0542F4427BC
:100E500060E070E0482B592B6A2B7B2B04C04A2D95
:100E60005B2D6C2D7D2DD9014D935D936D937D93FD
:100E70009D017096AE15BF05C9F6FE0131966F0152
:100E80006894BB24B1F8D6014D905D906D907D9033
:100E90006D01411451046104710439F0B301A201E0
:100EA000C801D1DE811102C008C08B2DCE14DF0431
:100EB00051F703C0412C512C3201833009F464C234
:100EC000811164C2F80182AD90E0982F882721AD8E
:100ED000822B8115924009F05BC2F801EB5BFF4F5A
:100EE000C080D12CDC2CCC2431978081C82AE12C05
:100EF000F12CC114D104E104F104C9F4719680818C
:100F00003197C080D12CE12CF12C7601DD24CC244A
:100F1000F82A32978081C82A3196808190E0982FF4
:100F20008827A0E0B0E0C82AD92AEA2AFB2AD801FB
:100F30005696CD92DD92ED92FC925997DE96AC9149
:100F4000F801A3838FEF8A0F823008F023C2F3AD3C
:100F5000F98B2F2FF8012283222309F41DC2822F3F
:100F600090E09C012150310982239323892B09F0C1
:100F700015C2E05CFF4F808190E0982F8827F80130
:100F800027AD1C01222A31862086C1018F70992746
:100F9000892B09F005C2EE5BFF4F8080912C982CC5
:100FA000882431978081882AA12CB12C8114910446
:100FB000A104B104D1F47096808131978080912C86
:100FC000A12CB12C540199248824B82A329780810D
:100FD000882A3196808190E0982F8827AC0160E0C4
:100FE00070E0842A952AA62AB72AF80185ADE82F51
:100FF000F0E03E2F2227F80184ADF901E82B30976D
:1010000009F4D0C1B0E0A70196010E946B186A8F65
:101010007B8F8C8F9D8F9F0140E050E02E8B3F8B0C
:10102000488F598FC101929582958F7089279F7043
:101030008927280F391F411D511DDA01C9012A8D49
:101040003B8D4C8D5D8D280F391F4A1F5B1F2A8BEE
:101050003B8B4C8B5D8B82169306A406B50608F479
:10106000A3C1C501B401621B730B840B950BE98905
:101070002E2F30E040E050E00E944918DA01C9010B
:10108000211531054105510509F490C1263FFFE0C6
:101090003F074105510518F461E0698B02C0E2E0A9
:1010A000E98B863F9F4FA105B10508F087C1490133
:1010B0005A0162E0860E911CA11CB11CD801529607
:1010C0008D929D92AD92BC925597F801428E538EAF
:1010D000648E758E8E899F89A88DB98D840D951D1E
:1010E000A61DB71D868F978FA0A3B1A34A895B89E0
:1010F0006C897D89440D551D661D771D46A357A338
:1011000060A771A7F989F33061F5232809F050C170
:10111000F801E35AFF4F20813197808190E0A0E0F1
:10112000B0E0DC0199278827B22B32972081822BEF
:101130003196408150E0542F442760E070E0842BCA
:10114000952BA62BB72BF80182A393A3A4A3B5A339
:10115000880C991CAA1CBB1C880C991CAA1CBB1CC3
:101160002DC0232809F426C12A8D3B8D4C8D5D8D21
:10117000820F931FA41FB51FF80182A393A3A4A3FA
:10118000B5A3F989F23029F4880C991CAA1CBB1C60
:1011900015C0A3E0B0E0A50194010E946B18DC012A
:1011A000CB01B695A7959795879521E08222992442
:1011B000AA24BB24880E991EAA1EBB1E3FEF830ED5
:1011C00031E0931EA11CB11C072E79E0B694A794C0
:1011D000979487947A95D1F7702DC814D904EA04AE
:1011E000FB0408F4E9C08FEF9FEFDC01F80186876C
:1011F0009787A08BB18B82879387A487B58780E878
:101200008583F989F33009F0A1C0F801E15AFF4F55
:10121000808190E0982F882731972081822B019739
:1012200009F094C0B301A2014F5F5F4F6F4F7F4F32
:10123000C801CDDC81118AC0D80115961C92F80135
:10124000E35DFD4F808190E0982F882731972081C2
:10125000822B85359A4A09F079C0F80121A980A925
:1012600090E0A0E0B0E0DC0199278827B22B26A50A
:10127000822B47A550E0542F442760E070E0842B78
:10128000952BA62BB72B82359245A146B14409F088
:101290005DC0F801EB5EFD4F20813197808190E0C9
:1012A000A0E0B0E0DC0199278827B22B329720819B
:1012B000822B3196408150E0542F442760E070E04B
:1012C000842B952BA62BB72B82379247A144B1468E
:1012D000E9F5369620813197808190E0A0E0B0E07A
:1012E000DC0199278827B22B32972081822B3196F7
:1012F000408150E0542F442760E070E0842B952B10
:10130000A62BB72BF80186879787A08BB18BE35E5E
:10131000FD4F20813197808190E0A0E0B0E0DC01BA
:1013200099278827B22B32972081822B31964081D2
:1013300050E0542F442760E070E0842B952BA62BBF
:10134000B72BF80182879387A487B587E989D801ED
:10135000EC9380916B0190916C01019690936C01DC
:1013600080936B0117969C938E93169780E054C0E0
:101370008BE052C08CE050C080E04EC08AE04CC090
:1013800083E04AC08AE048C081E046C08DE044C0A6
:101390008DE042C08DE040C08DE03EC08DE03CC09D
:1013A0008DE03AC08DE038C08DE036C08DE034C0AD
:1013B0008DE032C08DE030C08DE02EC049015A0171
:1013C000F2E08F0E911CA11CB11CD80152968D9297
:1013D0009D92AD92BC925597F801428E538E648EC9
:1013E000758E8E899F89A88DB98D840D951DA61D3A
:1013F000B71D868F978FA0A3B1A38A899B89AC89DB
:10140000BD89840D951DA61DB71D86A397A3A0A712
:10141000B1A7F3E0F98B79CE6D960FB6F894DEBFE5
:101420000FBECDBFDF91CF911F910F91FF90EF9035
:10143000DF90CF90BF90AF909F908F907F906F90F4
:101440005F904F903F902F900895EF92FF920F93EF
:101450001F93CF93DF93EC0151DB982F81115FC075
:101460008881833009F052C08D81813009F04EC0EF
:1014700040E052E060E070E07E018EE2E80EF11C98
:10148000C701FDDA85E5FE01E45DFD4F80838AEA50
:101490003196808382E58EA78FA781E688AB91E4A1
:1014A00099AB22E77B9720833196208331969083F6
:1014B000319680833E852F8598898989319630833E
:1014C0003196208331969083319680833A852B859F
:1014D0009C858D853196308331962083319690831B
:1014E000319680838A8D9B8DAC8DBD8D9C01AD0125
:1014F0002F5F3F4F4F4F5F4F2AA73BA74CA75DA7DA
:1015000001E010E0B70189818DD91D8240E050E0F3
:1015100060E08981EBD991E0811101C090E0892FD1
:10152000DF91CF911F910F91FF90EF900895CF928F
:10153000DF92EF92FF92FC019A01AB012250310938
:1015400041095109C288D388E488F58882E0C81A25
:10155000D108E108F1082C153D054E055F0568F43A
:10156000A281B0E00E946B18C6A0D7A0E0A4F1A4AD
:101570006C0D7D1D8E1D9F1D03C060E070E0CB01D2
:10158000FF90EF90DF90CF900895AF92BF92CF92EF
:10159000DF92EF92FF920F931F93CF93DF93EC01B3
:1015A0006A017B01423051056105710508F4C5C02F
:1015B0004A895B896C897D89C416D506E606F706DB
:1015C00008F0C0C08881823009F44BC0833009F430
:1015D0006FC0813009F0BBC08601169507950C0DD0
:1015E0001D1DC801892F992786954E8D5F8D68A195
:1015F00079A1480F591F611D711DCE01E8DA8111D3
:10160000ABC058018FEFA81AB80A1170FE01E00FA5
:10161000F11F16A5C501892F992786954E8D5F8DDF
:1016200068A179A1480F591F611D711DCE01CFDA44
:10163000811196C081E0B822CA0DDB1D8EA5612FF5
:1016400070E0782BC0FE09C0729562956F706727B5
:101650007F70672780E090E08EC07F7080E090E030
:101660008AC077276F2D5E2D4D2D0E8D1F8D28A1E1
:1016700039A1400F511F621F731FCE01A8DA8111DB
:1016800073C0CC0CDD1CEE1CFF1CE894C0F881E09C
:10169000D822EE24FF24FE01EC0DFD1D66A5FE01FF
:1016A000EC0DFD1D87A570E0782B80E090E063C015
:1016B0004E8D5F8D68A179A197018601689416F817
:1016C00036952795179507951694D1F7400F511F1A
:1016D000621F731FCE017BDA81114AC0CC0CDD1C66
:1016E000EE1CFF1CCC0CDD1CEE1CFF1C8CEFC8227A
:1016F00081E0D822EE24FF24F601BE96EC0FFD1FF8
:101700008281438150E060E070E0742F66275527A6
:101710004427682B818190E0982F8827A0E0B0E0D3
:10172000842B952BA62BB72BFE01EC0DFD1D26A5BA
:10173000822BBC01CD019F701EC061E070E080E093
:1017400090E019C061E070E080E090E014C061E0DA
:1017500070E080E090E00FC06FEF7FEFCB010BC037
:101760006FEF7FEFCB0107C06FEF7FEFCB0103C0BF
:101770006FEF7FEFCB01DF91CF911F910F91FF9022
:10178000EF90DF90CF90BF90AF9008954F925F920F
:101790006F927F928F929F92AF92BF92CF92DF9281
:1017A000EF92FF920F931F93CF93DF93EC016A01A7
:1017B0007B0128013901423051056105710508F4AA
:1017C000DDC08A899B89AC89BD89481759076A079A
:1017D0007B0708F0D5C08881823009F469C0833066
:1017E00009F48BC0813009F0CDC05A01B694A7949A
:1017F000A40EB51EC501892F992786954E8D5F8D44
:1018000068A179A1480F591F611D711DCE01DFD953
:101810008111B9C085010F5F1F4FC501917046014D
:10182000570151E085229924AA24BB24C0FE0BC095
:10183000FE01E80FF91F46A54F7050E1459E90014B
:101840001124242B01C0242DFE01E80FF91F26A727
:1018500081E08C834E8D5F8D68A179A1C801892FAD
:1018600099278695480F591F611D711DCE01AFD96B
:10187000811189C0117089288A288B2849F06894C1
:1018800013F876946794579447941694D1F709C047
:10189000FE01E00FF11F26A5207F952D9F70422E9F
:1018A000492AFE01E00FF11F46A691E09C836BC020
:1018B000452F562F672F77278E8D9F8DA8A1B9A111
:1018C000480F591F6A1F7B1FCE0181D981115BC050
:1018D000CC0CDD1CEE1CFF1CE894C0F891E0D92272
:1018E000EE24FF24FE01EC0DFD1D46A6FE01EC0DCD
:1018F000FD1D57A691E09C8346C08E8D9F8DA8A1AB
:10190000B9A1689416F876956795579547951694FA
:10191000D1F7480F591F6A1F7B1FCE0158D981117B
:1019200032C0CC0CDD1CEE1CFF1CCC0CDD1CEE1CF4
:10193000FF1C2CEFC22221E0D222EE24FF24F6016C
:10194000BE96EC0FFD1F438150E060E070E0742F05
:10195000662755274427DE01AC0DBD1D44275527BA
:101960006627707F442A552A662A772A9E964C92CB
:1019700051826282738291E09C8305C082E003C041
:1019800082E001C082E0DF91CF911F910F91FF9023
:10199000EF90DF90CF90BF90AF909F908F907F900F
:1019A0006F905F904F9008952F923F924F925F9269
:1019B0006F927F928F929F92AF92BF92CF92DF925F
:1019C000EF92FF920F931F93CF93DF93EC012A01C5
:1019D0003B01411551056105710599F48A849B8489
:1019E000AC84BD8481149104A104B10429F18A89D5
:1019F0009B89AC89BD8988169906AA06BB0608F59D
:101A000024C0C3DD623071058105910508F49BC0D7
:101A10006F3F2FEF72078207920709F499C00A8976
:101A20001B892C893D89601771078207930708F489
:101A300093C05301420109C0812C912C540183941D
:101A400004C0812C912C5401839475016401689425
:101A5000222421F8312C00E010E08FEFC81AD80AB8
:101A6000E80AF80A8A899B89AC89BD89C816D90613
:101A7000EA06FB0658F022E082169104A104B104A4
:101A800008F46EC0C22CD32CE02EF12EB701A601B3
:101A9000CE017BDD611571058105910599F06F3FE0
:101AA0002FEF72078207920709F45FC0613071055A
:101AB0008105910509F45DC0C814D904EA04FB044A
:101AC00061F65BC08C2C9D2CAE2CBF2C0FEF1FEF52
:101AD0002FEF3FE0B701A601CE0158DE81112CC0E7
:101AE000411451046104710451F00C2D1D2D2E2D53
:101AF0003F2DB301A201CE0149DE81111DC08A86AE
:101B00009B86AC86BD868E859F85A889B9898F3FC7
:101B10002FEF9207A207B207A9F10197A109B10916
:101B20008E879F87A88BB98B8D8181608D834C2D8B
:101B30003D2D2E2D9F2D2FC0813049F54FEF3FEFCA
:101B40002FEF9FEF28C041E030E020E090E023C07D
:101B5000462F372F282F1FC0462F372F282F1BC067
:101B600040E030E020E090E016C0462F372F282FCD
:101B700012C0462F372F282F0EC040E030E020E063
:101B800090E009C04C2D3D2D2E2D9F2D04C041E02D
:101B900030E020E090E0642F732F822FDF91CF910F
:101BA0001F910F91FF90EF90DF90CF90BF90AF907B
:101BB0009F908F907F906F905F904F903F902F906D
:101BC00008951F93CF93DF9300D000D000D0CDB7FE
:101BD000DEB79C838B837E836D83142F7A83698326
:101BE000CE0101960E944A0599232CF1FC01EE0FCB
:101BF000FF1FE359FE4F0190F081E02D309709F06F
:101C00001082EB81FC813097E1F010822B813C81C6
:101C1000FC01EE0FFF1FE359FE4F31832083232B7E
:101C200061F0113061F440E0BE016B5F7F4FCE0187
:101C3000039698D80EC08BE00CC080E00AC080E00C
:101C400008C0FC01EE0FFF1FE359FE4F1182108206
:101C500080E026960FB6F894DEBF0FBECDBFDF91B1
:101C6000CF911F9108952F923F924F925F926F9262
:101C70007F928F929F92AF92BF92CF92DF92EF921C
:101C8000FF920F931F93CF93DF9300D000D01F924A
:101C9000CDB7DEB79D838C835B017A016901D901E1
:101CA0001D921C923BD88111B3C1EC81FD818581CD
:101CB0008111AEC1848181FFAAC186819781A085EF
:101CC000B185AC01BD014E0D5F1D611D711D481731
:101CD00059076A077B0708F47DC1E114F10409F490
:101CE00079C1B096FB83EA83EC81FD81868197817F
:101CF000A085B185AC01BD01517066277727452BC2
:101D0000462B472B09F028C180809180F401228165
:101D10002150AC01BD01032E39E0769567955795AA
:101D200047953A95D1F7302D24232983211152C0AC
:101D3000892B8A2B8B2B99F4AC81BD811E966D91DA
:101D40007D918D919C91519761157105810591054A
:101D5000A1F440E050E0BA01C40126DE08C0EC81E5
:101D6000FD814289538964897589C4011DDE61152D
:101D700071058105910509F42DC161307105810559
:101D8000910531F482E0AC81BD8115968C9340C100
:101D90006F3FBFEF7B078B079B0729F481E0EC8146
:101DA000FD81858335C1AC81BD8152966D937D9354
:101DB0008D939C9355971E964D905D906D907C9061
:101DC000519745284628472829F4FD0166877787DB
:101DD000808B918BAC81BD8114968C91149786FF7A
:101DE0001EC056962D913D914D915C915997ED9164
:101DF000FC9101E010E06A817B8181810E941204E4
:101E0000882329F081E0EC81FD81858301C1AC81CB
:101E1000BD8114968C9114978F7B14968C93EC81D2
:101E2000FD81208031804289538964897589C1018F
:101E30007EDB611571058105910531F482E0AC818D
:101E4000BD8115968C93E4C02B013C01B9814B0EEA
:101E5000511C611C711C4701892C992486948114A2
:101E6000910409F447C0F1014281242F30E0C401FC
:101E70008B0F911D2817390718F449018B1A910807
:101E80008401A3019201B501D10111968C910E94A8
:101E90001204882329F081E0EC81FD818583B8C09C
:101EA000EC81FD8186899789A08DB18D8419950972
:101EB000A609B709A40160E070E084179507A6079A
:101EC000B707A0F4982F8827990FB501680F791FDD
:101ED00040E052E08A819B810E943105AC81BD8146
:101EE00014968C9114978F7B14968C93982C88243D
:101EF000990C54C0EC81FD8186899789A08DB18DA4
:101F000084159505A605B705F9F0468157816085CA
:101F1000718582859385A485B585481759076A0719
:101F20007B0790F401E010E0A30192016A817B81BC
:101F3000D10111968C910E94C403882329F081E07D
:101F4000EC81FD81858364C0AC81BD8156964D9244
:101F50005D926D927C925997EC81FD81868197818B
:101F6000A085B1859C01317040E052E0421B530BCB
:101F700047014E155F0508F44A019170AA27BB2757
:101F80008096A401B501AC81BD818A0F9B1F0E9480
:101F90003105EC81FD81848180648483A80CB91CA7
:101FA000EC81FD8186819781A085B185880D991D81
:101FB000A11DB11D86839783A087B187D6018D911E
:101FC0009C911197880D991D8D939C93E818F908A1
:101FD00009F08ACEEC81FD8186819781A085B1854B
:101FE0004285538564857585481759076A077B07BD
:101FF00020F482879387A487B587AC81BD8114962E
:102000008C911497806214968C9380E001C087E0D5
:102010000F900F900F900F900F90DF91CF911F9125
:102020000F91FF90EF90DF90CF90BF90AF909F9077
:102030008F907F906F905F904F903F902F9008957A
:102040000F931F93CF93DF93EC010E948E068111B3
:1020500050C08C8185FF4AC086FF13C02E893F89FE
:10206000488D598DE881F98101E010E0BE01605E84
:102070007F4F81810E94120481113AC08C818F7B35
:102080008C834A8D5B8D6C8D7D8D888199810E94BA
:10209000E70581112EC0EE8DFF8D838580628387D9
:1020A0008A85848F8B85858F8C85868F8D85878F9C
:1020B0004E855F8568897989428F538FAB0166278A
:1020C0007727448B558B168A178A89E6808F8DEB8C
:1020D000818F128A138A8C818F7D8C83E881F981AC
:1020E00081E0848388819981B0D903C080E001C0F8
:1020F00081E0DF91CF911F910F91089558982FEFB4
:1021000089E698E1215080409040E1F700C000004E
:1021100080E00C940503089581E008951F920F92CA
:102120000FB60F9211242F933F934F935F936F93AA
:102130007F938F939F93AF93BF93EF93FF93CF932F
:10214000DF93CDB7DEB7C656D109DEBFCDBF8EB3A4
:102150008430E9F086E1EAE4F1E0DE0111960190D5
:102160000D928A95E1F785E190E0A7969FAF8EAF3B
:10217000A7979E012B593F4F45E150E0BE016F5F8D
:102180007F4F81E791E06FDD81E791E059DFCA5928
:10219000DF4F0FB6F894DEBF0FBECDBFDF91CF91FA
:1021A000FF91EF91BF91AF919F918F917F916F912F
:1021B0005F914F913F912F910F900FBE0F901F9005
:1021C0001895CF93DF93CDB7DEB72C970FB6F89461
:1021D000DEBF0FBECDBF80916F019091700101965F
:1021E0009093700180936F019F938F9380E691E0AD
:1021F0009F938F93CE0101969F938F9395D741E044
:102200006FE571E081E993E0DCDC282F30E00F908E
:102210000F900F900F900F900F9080E090E08998B2
:102220004FEF54E36CE0415050406040E1F700C094
:102230000000899A4FEF54E36CE0415050406040F9
:10224000E1F700C0000001962817390744F7FFCFD7
:1022500084B7877F84BF88E10FB6F89480936000CD
:10226000109260000FBE90E080E80FB6F894809363
:102270006100909361000FBE0E94D1003FDF88D4BF
:102280004BDF811101C0FFCF0895E2DF9ADF08958F
:10229000089581E091E06FD181E191E0BCC10895A2
:1022A00081E191E07CD181E091E01DC008950F9320
:1022B0001F938091BF05F901818382E090E0F801CE
:1022C0009183808381E01F910F910895F9016181CD
:1022D0008091BF05681731F06093BF0580E090E002
:1022E0000C94761A08953F924F925F926F927F926C
:1022F0008F929F92AF92BF92CF92DF92EF92FF9216
:102300000F931F93CF93DF9300D01F92CDB7DEB70B
:102310006C01EDB6FEB68091E80083FF12C1F601B4
:10232000808190E02091CA053091CB0528173907AC
:1023300009F007C18091C705833009F49FC030F4CC
:10234000813071F0823009F4E1C0FBC08A3009F4B9
:10235000C1C08B3009F4AAC0893009F0F2C050C066
:102360008091C605813A09F0ECC08DB69EB61A82FE
:102370001982E8ECF5E0808111818B83F6014085BC
:1023800050E08DB79EB7841B950B0FB6F8949EBF97
:102390000FBE8DBFEDB7FEB731965F0160E070E014
:1023A000CF01BBD64FEF410F8E010F5F1F4F95013D
:1023B000BE016D5F7F4FC6017ADFF601868197818E
:1023C000009721F0408550E0B5019ED61092E900BB
:1023D000E8EEF0E08081877F80838B81811180939C
:1023E000F10069817A81C50130D1E8EEF0E08081A9
:1023F0008B7780830FB6F8949EBE0FBE8DBEA1C0B2
:102400008091C605813209F09CC06DB67EB6A09061
:10241000CC05B090CD05E8ECF5E0508041808DB75B
:102420009EB78A199B090FB6F8949EBF0FBE8DBF49
:10243000EDB7FEB731964F0108EE10E0F80180814C
:10244000877F8083B501C40183D1F80180818E77B5
:10245000808321E0511001C020E030E08501021BA3
:10246000130B280D391D4FEF440D652DC6012EDFCE
:102470000FB6F8947EBE0FBE6DBE63C08091C605D8
:10248000813A09F05EC0E8EEF0E08081877F8083CA
:10249000808180FFFDCFF60181858093F100E8EE19
:1024A000F0E080818E77808312D34BC08091C60587
:1024B000813209F046C0E8EEF0E08081877F8083BA
:1024C00006D39091C80581E0911101C080E0F6012A
:1024D000818737C08091C605813299F5E8EEF0E03A
:1024E0008081877F8083F3D28091C8059091C90550
:1024F00088270024880F991F001C880F991F001C33
:10250000892F902DF601958784871BC08091C60581
:10251000813AB9F4E8EEF0E08081877F80838081A2
:1025200080FFFDCFF60184859585969587959695D4
:1025300087958093F100E8EEF0E080818E778083CC
:10254000C6D20FB6F894FEBE0FBEEDBE0F900F9030
:102550000F90DF91CF911F910F91FF90EF90DF903F
:10256000CF90BF90AF909F908F907F906F905F9033
:102570004F903F900895FC01399627E0DF011D92AE
:102580002A95E9F721E0FC01218724EF31E0358726
:10259000248723E0248361E001963CC20895CF9311
:1025A000DF93EC018091E80083FF32C0888190E0E6
:1025B0002091CA053091CB052817390749F580913C
:1025C000C7058E3F79F08F3F19F58091C60581329E
:1025D000F9F4E8EEF0E08081877F808378D281E0B3
:1025E00088AF16C08091C605813A91F4E8EEF0E01C
:1025F0008081877F8083808180FFFDCF8B858150A4
:102600008093F100E8EEF0E080818E7780835FD2E6
:10261000DF91CF910895CF93DF93EC01FC013C96BD
:102620008DE2DF011D928A95E9F782E08C8389872C
:1026300061E0CE010196EED1882321F061E0CE0168
:102640000696E8D1DF91CF910895DF92EF92FF9245
:102650000F931F93CF93DF932091CC053091CD053D
:102660002617370758F06115710539F4E8EEF0E0E8
:1026700020812E7720839B0101C09B01A0E0E8EE22
:10268000F0E003EF10E062EF70E0C1EFD0E0FF2474
:10269000F394E12C37C04EB3442309F446C04530CF
:1026A00009F445C0408143FD44C0408142FF03C05E
:1026B000E8EEF0E035C0408140FF24C0D801DC9056
:1026C000DB014C9150E05D292115310599F048302E
:1026D000510580F4A82FB92F8D9188838A2F9B2FC5
:1026E000215031094F5F5F4F2115310519F04830F6
:1026F000510591F7AF2D4830510509F0AE2D4081BD
:102700004E7740832115310531F6A111C4CFD0CFCA
:102710008EB3882381F0853081F0808183FD0FC0E6
:10272000808182FFF5CF80E00BC082E009C083E0AA
:1027300007C081E005C082E003C083E001C081E002
:10274000DF91CF911F910F91FF90EF90DF9008954F
:10275000CF92DF92FF920F931F93CF93DF93611578
:10276000710529F4E8EEF0E020812B772083E8EE74
:10277000F0E043EF50E00F2EF2EFCF2ED12CF02DF2
:1027800001EF10E021C02EB32223D1F12530D1F189
:10279000208123FD39C0208122FFF5CF41C0E8010F
:1027A00088818D938A2F9B2F615071096115710566
:1027B00041F0EA01F880E601288130E03F29232B2F
:1027C00071F720812B7720836115710519F4E8EEEC
:1027D000F0E011C02EB32223C9F02530C9F02081CA
:1027E00023FD18C0208122FD1BC0CDCF8EB38823CE
:1027F00099F0853099F0808180FFF8CF80E01BC090
:1028000082E019C083E017C081E015C082E013C0E8
:1028100083E011C081E00FC082E00DC083E00BC0F7
:10282000EA01A881E601288130E03A2B232B49F206
:10283000A82FB92FB4CFDF91CF911F910F91FF90A7
:10284000DF90CF900895CF92DF92FF920F931F9366
:10285000CF93DF932091CC053091CD052617370714
:1028600058F06115710539F4E8EEF0E020812E771B
:1028700020839B0101C09B01E82FF92F10E0A8EEF7
:10288000B0E063EF70E042EF50E00F2EF1EFCF2E9B
:10289000D12CF02D01E0F12C33C08EB3882309F444
:1028A00042C0853009F441C08C9183FD40C08C91B9
:1028B00082FF03C0E8EEF0E031C08C9180FF20C0C1
:1028C000EB011881EA01888190E0912B21153105F7
:1028D00081F08830910568F41491E60118833196EF
:1028E0002150310901962115310519F088309105E3
:1028F00099F7102F089709F01F2D8C918E778C93E4
:102900002115310551F61111C8CFD4CF8EB38823CC
:1029100081F0853081F0808183FD0FC0808182FF4E
:10292000F5CF80E00BC082E009C083E007C081E002
:1029300005C082E003C083E001C081E0DF91CF9158
:102940001F910F91FF90DF90CF9008958F929F92EB
:10295000BF92CF92DF92EF92FF920F931F93CF938C
:10296000DF93873070F126C0592F5F70E8015883DC
:10297000891731F0E901D8805081E401788103C0E2
:102980005B2DD62E7C2D51FF12C04C914E7F4C9367
:1029900040814D7F40834C9141604C93E901D88246
:1029A0005083E4017883E7015881552344F49F5F05
:1029B0009730D1F68F708093E90081E01FC080E0EE
:1029C0001DC0982F9F709093E900982F542FD62EFA
:1029D00070E0ABEEB0E0EDEEF0E02CEE30E00F2E6C
:1029E000F0EF8F2E912CF02D0F2EFEEEEF2EF12C0E
:1029F000F02D09EE10E0B42EC12CC5CFDF91CF91A0
:102A00001F910F91FF90EF90DF90CF90BF909F901C
:102A10008F900895BF92CF92DF92EF92FF920F9323
:102A20001F93CF93DF93062F662309F441C0C82F6D
:102A3000D92F10E0F12C6894DD24D3F8E12C6894B0
:102A4000BB24B1F80F2EF6E0CF2EF02D5881552380
:102A500051F19C81E981FA817B81852F8F708730CC
:102A600048F5923010F04C2D01C04B2DE930F105A6
:102A700050F02D2D3E2D9F2D9F5F220F331F2E17BF
:102A80003F07D0F301C09F2D9295907F492B551F92
:102A90005527551F90E4799F90011124652F622BD3
:102AA00055DF882351F01F5F25961013CFCF04C048
:102AB00081E003C080E001C081E0DF91CF911F91F0
:102AC0000F91FF90EF90DF90CF90BF90089580918D
:102AD000C60588231CF0E8EEF0E012C0E8EEF0E056
:102AE00003C08EB38823A1F0808182FFFACFE8EE85
:102AF000F0E080818B77808308958EB3882341F046
:102B0000808180FFFACFE8EEF0E080818E778083CD
:102B100008950F931F93CF93DF934BD052D0C8EDFE
:102B2000D0E088818F7788838881806888838881D6
:102B30008F7D888319BC1EBA1092C2051092C405FD
:102B40001092C30500EE10E0F80180818B7F808336
:102B500088818160888342E060E080E0F7DEE1EE1A
:102B6000F0E080818E7F8083E2EEF0E08081816002
:102B70008083808188608083F80180818E7F80835C
:102B8000888180618883DF91CF911F910F91089593
:102B9000E8EDF0E080818F7E8083E7EDF0E08081DA
:102BA0008160808384E082BF81E08093C505B1CFDE
:102BB0000895E8EDF0E080818E7F80831092E2003E
:102BC00008951092DA001092E10008951F920F927A
:102BD0000FB60F9211242F933F934F935F936F93F0
:102BE0007F938F939F93AF93BF93EF93FF938091C6
:102BF000E10082FF0AC08091E20082FF06C0E1EEA0
:102C0000F0E080818B7F808343D28091DA0080FF67
:102C10001AC08091D80080FF16C0EAEDF0E08081F4
:102C20008E7F80838091D90080FF0AC019BC82E02A
:102C300089BD09B400FEFDCF81E08EBB28DB03C057
:102C400019BC1EBA25DB8091E10080FF15C0809180
:102C5000E20080FF11C0E2EEF0E080818E7F808391
:102C6000808180618083E8EDF0E0808180628083F4
:102C700019BC85E08EBB0CD28091E10084FF2CC092
:102C80008091E20084FF28C019BC82E089BD09B4AC
:102C900000FEFDCFE8EDF0E080818F7D8083E1EEE6
:102CA000F0E080818F7E8083E2EEF0E080818F7E95
:102CB00080838081816080838091C205882319F0A0
:102CC00084E08EBB08C08091E300882314F483E085
:102CD00001C081E08EBBDCD18091E10083FF22C086
:102CE0008091E20083FF1EC0E1EEF0E08081877FEB
:102CF000808382E08EBB1092C20580818E7F8083AC
:102D0000E2EEF0E080818E7F80838081806180832D
:102D100042E060E080E01ADEE0EFF0E08081886071
:102D20008083B6D1FF91EF91BF91AF919F918F9129
:102D30007F916F915F914F913F912F910F900FBEB7
:102D40000F901F9018951F920F920FB60F9211249B
:102D50002F933F934F935F936F937F938F939F93A3
:102D6000AF93BF93CF93EF93FF93C091E900CF70E0
:102D70008091EC001092E900E0EFF0E08081877F25
:102D8000808378941BD0E9EEF0E01082A0EFB0E0F1
:102D90008C9188608C93C083FF91EF91CF91BF910C
:102DA000AF919F918F917F916F915F914F913F91E3
:102DB0002F910F900FBE0F901F9018950F931F9398
:102DC000CF93DF93CDB7DEB7AA970FB6F894DEBFE7
:102DD0000FBECDBFE6ECF5E08EEC95E0A1EFB0E0E4
:102DE0002C912193E817F907D9F75ADA8091E80076
:102DF00083FF29C19091C6058091C705853009F4EC
:102E000078C030F48130B1F168F0833099F11BC1A2
:102E1000883009F4E8C0893009F4F5C0863009F03B
:102E200012C189C0903821F0923809F00CC108C055
:102E30008091C3059091C405992371F082600CC004
:102E40008091CA058F70E9EEF0E080838091EB00FD
:102E500085FB882780F91082E8EEF0E09081977F6B
:102E60009083A1EFB0E08C931C9280818E77808359
:102E70002EDEE9C0992309F4F5C0923009F0E3C0D1
:102E8000F6C091E0833009F090E09093C40528C02B
:102E90002091CA052F7009F4D6C02093E9008091D3
:102EA000EB0080FF1DC08091C705833031F4EBEE4D
:102EB000F0E080818062808313C0EBEEF0E08081DF
:102EC0008061808381E090E002C0880F991F2A957D
:102ED000E2F7AAEEB0E08C931C9280818860808338
:102EE0001092E900E8EEF0E08081877F8083EFDDDB
:102EF000AAC09111A8C01091C8051F77E3EEF0E0B9
:102F000080818078812B8083E8EEF0E08081877F6C
:102F10008083DDDDE8EEF0E0808180FFFDCFE3EE31
:102F2000F0E0808180688083112311F083E001C08C
:102F300082E08EBB88C09058923008F084C08091A7
:102F4000C8059091C9058C3D23E0920799F583E06F
:102F50008A838AE289835FB7F894DE01139620E0C2
:102F60003EE041E2E32FF0E040935700849120FFE0
:102F700003C082958F703F5F8F708A3018F090E0A9
:102F8000C79602C090E0C0968D939D932F5F243129
:102F900049F75FBF08EE10E0F8018081877F8083EA
:102FA0006AE270E0CE01019650DBF80180818B77F8
:102FB000808349C0AE014F5F5F4F6091CA050E9498
:102FC0000101009709F43FC008EE10E0F8012081EC
:102FD000277F2083BC0189819A8135DCF8018081BB
:102FE0008B77808330C0903871F5E8EEF0E0808117
:102FF000877F80838091C2058093F10080818E77E6
:10300000808365DD20C091111EC08091C80582308B
:10301000D0F4E8EEF0E08081877F80838091C8055E
:103020008093C20554DD8091C205882319F084E0A5
:103030008EBB08C08091E300882314F484E001C0B3
:1030400081E08EBB26D98091E80083FF16C0E8EEB0
:10305000F0E08081877F8083EBEEF0E0808180620A
:1030600080830BC09091C805913069F70ACF809199
:10307000C805882309F40CCF33CFAA960FB6F8946D
:10308000DEBF0FBECDBFDF91CF911F910F9108958D
:103090000895A1E21A2EAA1BBB1BFD010DC0AA1F99
:1030A000BB1FEE1FFF1FA217B307E407F50720F0B1
:1030B000A21BB30BE40BF50B661F771F881F991F2C
:1030C0001A9469F760957095809590959B01AC0175
:1030D000BD01CF01089509D0A59F900DB49F900D1B
:1030E000A49F800D911D11240895A29FB001B39F4C
:1030F000C001A39F700D811D1124911DB29F700D01
:10310000811D1124911D0895FB01DC0102C0019075
:103110000D9241505040D8F70895DC0101C06D93E5
:1031200041505040E0F70895AEE0B0E0E9E9F8E141
:10313000A3C20D891E8986E08C831A8309838FEFD1
:103140009FE79E838D83AE01475E5F4F6F89788DC9
:10315000CE01019608D0EF81F885E00FF11F1082B3
:103160002E96E4E0A5C2ACE0B0E0E8EBF8E176C270
:103170007C016B018A01FC0117821682838181FF29
:10318000B0C1CE0101964C01F7019381F60193FD88
:10319000859193FF81916F01882309F49EC1853247
:1031A00039F493FD859193FF81916F01853221F46C
:1031B000B70190E0C3D1E8CF512C312C20E0203270
:1031C000A0F48B3269F030F4803259F0833269F424
:1031D00020612CC08D3239F0803339F4216026C053
:1031E0002260246023C0286021C027FD27C030ED65
:1031F000380F3A3078F426FF06C0FAE05F9E300DB3
:103200001124532E13C08AE0389E300D1124332E22
:1032100020620CC08E3221F426FD5FC1206406C0FE
:103220008C3611F4206802C0883641F4F60193FD13
:10323000859193FF81916F018111C1CF982F9F7D5F
:103240009554933028F40C5F1F4FFFE3F9830DC0B2
:10325000833631F0833771F0833509F057C021C0D0
:10326000F801808189830E5F1F4F44244394512CC1
:10327000540114C03801F2E06F0E711CF801A080F7
:10328000B18026FF03C0652D70E002C06FEF7FEFB5
:10329000C5012C8748D12C0183012C852F77222E44
:1032A00016C03801F2E06F0E711CF801A080B180E9
:1032B00026FF03C0652D70E002C06FEF7FEFC501F0
:1032C0002C8726D12C012C852068222E830123FCFB
:1032D00019C0832D90E048165906A0F4B70180E28A
:1032E00090E02CD13A94F5CFF50127FC859127FE8B
:1032F00081915F01B70190E021D131103A94F1E062
:103300004F1A51084114510479F7DEC0843611F088
:10331000893631F5F80127FF07C06081718182810C
:1033200093810C5F1F4F08C060817181882777FDF2
:103330008095982F0E5F1F4F2F76B22E97FF09C0F2
:1033400090958095709561957F4F8F4F9F4F206826
:10335000B22E2AE030E0A40123D1A82EA81843C041
:10336000853729F42F7EB22E2AE030E025C0F22FD7
:10337000F97FBF2E8F36C1F018F4883579F0ADC0D3
:10338000803719F0883721F0A8C02F2F2061B22E86
:10339000B4FE0DC08B2D8460B82E09C024FF0AC076
:1033A0009F2F9660B92E06C028E030E005C020E1CE
:1033B00030E002C020E132E0F801B7FE07C06081D2
:1033C0007181828193810C5F1F4F06C06081718182
:1033D00080E090E00E5F1F4FA401E2D0A82EA81855
:1033E000FB2DFF77BF2EB6FE0BC02B2D2E7FA51415
:1033F00050F4B4FE0AC0B2FC08C02B2D2E7E05C0CE
:103400007A2C2B2D03C07A2C01C0752C24FF0DC003
:10341000FE01EA0DF11D8081803311F4297E09C07F
:1034200022FF06C07394739404C0822F867809F03B
:10343000739423FD12C020FF06C05A2C731418F495
:10344000530C5718732C731460F4B70180E290E0AA
:103450002C8774D073942C85F6CF731410F437181E
:1034600001C0312C24FF11C0B70180E390E02C870C
:1034700065D02C8522FF16C021FF03C088E590E0AF
:1034800002C088E790E0B7010CC0822F867851F027
:1034900021FD02C080E201C08BE227FD8DE2B70171
:1034A00090E04CD0A51430F4B70180E390E046D012
:1034B0005A94F8CFAA94F401EA0DF11D8081B70166
:1034C00090E03CD0A110F6CF332009F45DCEB701D7
:1034D00080E290E033D03A94F7CFF701868197816C
:1034E00002C08FEF9FEF2C96E2E1D4C0262FF9990E
:1034F000FECF92BD81BDF89A019700B4021639F053
:103500001FBA20BD0FB6F894FA9AF99A0FBE089523
:10351000FC010590615070400110D8F7809590959E
:103520008E0F9F1F0895FC016150704001900110A3
:10353000D8F7809590958E0F9F1F08950F931F9336
:10354000CF93DF93182F092FEB018B8181FD03C0EF
:103550008FEF9FEF20C082FF10C04E815F812C81D2
:103560003D81421753077CF4E881F9819F012F5F69
:103570003F4F39832883108306C0E885F985812F62
:103580000995892B29F72E813F812F5F3F4F3F837C
:103590002E83812F902FDF91CF911F910F9108954E
:1035A000FA01AA27283051F1203181F1E8946F9374
:1035B0006E7F6E5F7F4F8F4F9F4FAF4FB1E03ED01A
:1035C000B4E03CD0670F781F891F9A1FA11D680FB8
:1035D000791F8A1F911DA11D6A0F711D811D911DEB
:1035E000A11D20D009F468943F912AE0269F112460
:1035F0003019305D3193DEF6CF010895462F4770C4
:10360000405D4193B3E00FD0C9F7F6CF462F4F701E
:10361000405D4A3318F0495D31FD4052419302D07C
:10362000A9F7EACFB4E0A695979587957795679522
:10363000BA95C9F700976105710508959B01AC0122
:103640000A2E06945795479537952795BA95C9F749
:10365000620F731F841F951FA01D08952F923F9224
:103660004F925F926F927F928F929F92AF92BF9292
:10367000CF92DF92EF92FF920F931F93CF93DF933E
:10368000CDB7DEB7CA1BDB0B0FB6F894DEBF0FBE9B
:10369000CDBF09942A88398848885F846E847D84E8
:1036A0008C849B84AA84B984C884DF80EE80FD80EA
:1036B0000C811B81AA81B981CE0FD11D0FB6F89460
:0E36C000DEBF0FBECDBFED010895F894FFCF21
:1036CE0001018110000001C0050200000000000091
:1036DE0000008340000001044000000101000000D2
:1036EE0000000000000000000000000000000000CC
:1036FE0000000000000000000000000000000000BC
:10370E00000000000000000000005445535431201A
:10371E0054455354322054455354332F722F6E0058
:0A372E0046253035642E63737600E3
:00000001FF
